:020000040800F2
:10000000000002207166000895650008A3650008DD
:10001000A9650008AF650008B5650008000000008C
:10002000000000000000000000000000BB650008A8
:10003000C965000800000000D7650008E5650008F4
:10004000C1660008C1660008C1660008C1660008F4
:10005000C1660008C1660008C1660008C1660008E4
:10006000C1660008C1660008C1660008C1660008D4
:10007000C1660008C1660008C1660008C1660008C4
:10008000F1650008C1660008C1660008C166000885
:10009000C1660008C1660008C1660008C1660008A4
:1000A000C1660008C1660008C1660008C166000894
:1000B000C1660008C1660008C1660008C166000884
:1000C000C1660008C1660008C1660008C166000874
:1000D000C1660008C1660008C1660008C166000864
:1000E000C1660008C1660008C1660008C166000854
:1000F000C1660008C1660008C1660008C166000844
:10010000C1660008C1660008C1660008C166000833
:10011000C1660008C1660008C1660008C166000823
:10012000C1660008C1660008C1660008C166000813
:10013000C1660008C1660008C1660008C166000803
:10014000C1660008C1660008C1660008C1660008F3
:10015000C1660008C1660008C1660008C1660008E3
:10016000C1660008C1660008C1660008C1660008D3
:10017000C1660008C1660008C166000800000000F2
:08018000C1660008C166000819
:1001880010B5054C237833B9044B13B10448AFF3C9
:1001980000800123237010BD7400002000000000BF
:1001A800F867000808B5034B1BB103490348AFF3D0
:1001B800008008BD0000000078000020F8670008F3
:1001C80081F0004102E000BF83F0004330B54FEA00
:1001D80041044FEA430594EA050F08BF90EA020F6D
:1001E8001FBF54EA000C55EA020C7FEA645C7FEA00
:1001F800655C00F0E2804FEA5454D4EB5555B8BF23
:100208006D420CDD2C4480EA020281EA030382EA93
:10021800000083EA010180EA020281EA0303362D25
:1002280088BF30BD11F0004F4FEA01314FF4801CF8
:100238004CEA113102D0404261EB410113F0004F0A
:100248004FEA03334CEA133302D0524263EB4303C1
:1002580094EA050F00F0A780A4F10104D5F1200E5F
:100268000DDB02FA0EFC22FA05F2801841F10001BA
:1002780003FA0EF2801843FA05F359410EE0A5F18E
:1002880020050EF1200E012A03FA0EFC28BF4CF0BF
:10029800020C43FA05F3C01851EBE37101F0004575
:1002A80007D54FF0000EDCF1000C7EEB00006EEB82
:1002B8000101B1F5801F1BD3B1F5001F0CD349080C
:1002C8005FEA30004FEA3C0C04F101044FEA445263
:1002D80012F5800F80F09A80BCF1004F08BF5FEAEA
:1002E800500C50F1000041EB045141EA050130BDCA
:1002F8005FEA4C0C404141EB010111F4801FA4F16D
:100308000104E9D191F0000F04BF01460020B1FAC1
:1003180081F308BF2033A3F10B03B3F120020CDAF9
:100328000C3208DD02F1140CC2F10C0201FA0CF0D7
:1003380021FA02F10CE002F11402D8BFC2F1200C3C
:1003480001FA02F120FA0CFCDCBF41EA0C019040F2
:10035800E41AA2BF01EB0451294330BD6FEA04043B
:100368001F3C1CDA0C340EDC04F11404C4F1200226
:1003780020FA04F001FA02F340EA030021FA04F338
:1003880045EA030130BDC4F10C04C4F1200220FA8F
:1003980002F001FA04F340EA0300294630BD21FACD
:1003A80004F0294630BD94F0000F83F4801306BF93
:1003B80081F480110134013D4EE77FEA645C18BF87
:1003C8007FEA655C29D094EA050F08BF90EA020F1E
:1003D80005D054EA000C04BF1946104630BD91EA16
:1003E800030F1EBF0021002030BD5FEA545C05D119
:1003F8004000494128BF41F0004130BD14F5800458
:100408003CBF01F5801130BD01F0004545F0FE41CB
:1004180041F470014FF0000030BD7FEA645C1ABF00
:10042800194610467FEA655C1CBF0B46024650EA37
:10043800013406BF52EA033591EA030F41F4002163
:1004480030BD00BF90F0000F04BF0021704730B5E9
:100458004FF4806404F132044FF000054FF00001BE
:1004680050E700BF90F0000F04BF0021704730B57F
:100478004FF4806404F1320410F0004548BF404254
:100488004FF000013EE700BF42004FEAE2014FEAA9
:1004980031014FEA02701FBF12F07F4393F07F4F84
:1004A80081F06051704732F07F4208BF704793F087
:1004B8007F4F04BF41F40021704730B54FF460749A
:1004C80001F0004521F000411CE700BF50EA01029D
:1004D80008BF704730B54FF000050AE050EA010246
:1004E80008BF704730B511F0004502D5404261EBB6
:1004F80041014FF4806404F132045FEA915C3FF4F7
:10050800D8AE4FF003025FEADC0C18BF03325FEA93
:10051800DC0C18BF033202EBDC02C2F1200300FA44
:1005280003FC20FA02F001FA03FE40EA0E0021FA69
:1005380002F11444BDE600BF70B54FF0FF0C4CF457
:10054800E06C1CEA11541DBF1CEA135594EA0C0F09
:1005580095EA0C0F00F0DEF82C4481EA030621EA44
:100568004C5123EA4C5350EA013518BF52EA03357F
:1005780041F4801143F4801338D0A0FB02CE4FF031
:100588000005E1FB02E506F00042E0FB03E54FF061
:100598000006E1FB03569CF0000F18BF4EF0010E59
:1005A800A4F1FF04B6F5007F64F5407404D25FEA55
:1005B8004E0E6D4146EB060642EAC62141EA555108
:1005C8004FEAC52040EA5E504FEACE2EB4F1FD0C4A
:1005D80088BFBCF5E06F1ED8BEF1004F08BF5FEAC8
:1005E800500E50F1000041EB045170BD06F000467A
:1005F80046EA010140EA020081EA0301B4EB5C0427
:10060800C2BFD4EB0C0541EA045170BD41F480111E
:100618004FF0000E013C00F3AB8014F1360FDEBF43
:10062800002001F0004170BDC4F10004203C35DA1F
:100638000C341BDC04F11404C4F1200500FA05F3A2
:1006480020FA04F001FA05F240EA020001F0004243
:1006580021F0004110EBD37021FA04F642EB0601B9
:100668005EEA430E08BF20EAD37070BDC4F10C04E3
:10067800C4F1200500FA04F320FA05F001FA04F2A7
:1006880040EA020001F0004110EBD37041F1000193
:100698005EEA430E08BF20EAD37070BDC4F120059E
:1006A80000FA05F24EEA020E20FA04F301FA05F206
:1006B80043EA020321FA04F001F0004121FA04F2AE
:1006C80020EA020000EBD3705EEA430E08BF20EA7E
:1006D800D37070BD94F0000F0FD101F000464000B8
:1006E80041EB010111F4801F08BF013CF7D041EA3A
:1006F800060195F0000F18BF704703F0004652003E
:1007080043EB030313F4801F08BF013DF7D043EA0E
:100718000603704794EA0C0F0CEA135518BF95EAC4
:100728000C0F0CD050EA410618BF52EA4306D1D14B
:1007380081EA030101F000414FF0000070BD50EA6A
:10074800410606BF1046194652EA430619D094EAF4
:100758000C0F02D150EA013613D195EA0C0F05D1DE
:1007680052EA03361CBF104619460AD181EA030132
:1007780001F0004141F0FE4141F470014FF00000EA
:1007880070BD41F0FE4141F4780170BD70B54FF085
:10079800FF0C4CF4E06C1CEA11541DBF1CEA135505
:1007A80094EA0C0F95EA0C0F00F0A7F8A4EB0504E7
:1007B80081EA030E52EA03354FEA013100F08880DE
:1007C8004FEA03334FF0805545EA131343EA1263A7
:1007D8004FEA022245EA111545EA10654FEA00265C
:1007E8000EF000419D4208BF964244F1FD0404F515
:1007F800407402D25B084FEA3202B61A65EB030571
:100808005B084FEA32024FF480104FF4002CB6EB2D
:10081800020E75EB030E22BFB61A754640EA0C00AD
:100828005B084FEA3202B6EB020E75EB030E22BFED
:10083800B61A754640EA5C005B084FEA3202B6EB2E
:10084800020E75EB030E22BFB61A754640EA9C00ED
:100858005B084FEA3202B6EB020E75EB030E22BFBD
:10086800B61A754640EADC0055EA060E18D04FEA7B
:10087800051545EA16754FEA06164FEAC30343EA1B
:1008880052734FEAC2025FEA1C1CC0D111F4801FE8
:100898000BD141EA00014FF000004FF0004CB6E7E1
:1008A80011F4801F04BF01430020B4F1FD0C88BF80
:1008B800BCF5E06F3FF6AFAEB5EB030C04BFB6EB8B
:1008C800020C5FEA500C50F1000041EB045170BD7E
:1008D8000EF0004E4EEA113114EB5C04C2BFD4EBAB
:1008E8000C0541EA045170BD41F480114FF0000E2F
:1008F800013C90E645EA060E8DE60CEA135594EAAB
:100908000C0F08BF95EA0C0F3FF43BAF94EA0C0FAD
:100918000AD150EA01347FF434AF95EA0C0F7FF422
:1009280025AF104619462CE795EA0C0F06D152EA76
:1009380003353FF4FDAE1046194622E750EA41065A
:1009480018BF52EA43067FF4C5AE50EA41047FF46B
:100958000DAF52EA43057FF4EBAE12E74FEA4102CE
:10096800B2F1E04324BFB3F5001CDCF1FE5C0DD905
:1009780001F0004C4FEAC0024CEA5070B2F1004F4F
:1009880040EB830008BF20F00100704711F0804F52
:1009980021D113F13872BCBF01F00040704741F417
:1009A80080114FEA5252C2F11802C2F1200C10FA1B
:1009B8000CF320FA02F018BF40F001004FEAC123FF
:1009C8004FEAD32303FA0CFC40EA0C0023FA02F3A3
:1009D8004FEA4303CCE77FEA625307D150EA013379
:1009E8001EBF4FF0FE4040F44000704701F0004049
:1009F80040F0FE4040F40000704700BF53B94AB9C8
:100A0800002908BF00281CBF4FF0FF314FF0FF300E
:100A180000F072B9ADF1080C6DE904CE00F006F8EB
:100A2800DDF804E0DDE9022304B070472DE9F04762
:100A3800089E04468846002B4BD18A42154667D942
:100A4800B2FA82F24AB1C2F1200701FA02F320FA9F
:100A580007F7954047EA030894404FEA154E230CE0
:100A6800B8FBFEF71FFA85FC0EFB178843EA08431C
:100A780007FB0CF1994209D9EB1807F1FF3080F018
:100A88001B81994240F21881023F2B445B1AA4B2A1
:100A9800B3FBFEF00EFB103344EA034400FB0CFCEE
:100AA800A44509D92C1900F1FF3380F00781A4452A
:100AB80040F2048102382C4440EA0740A4EB0C04BD
:100AC80000271EB1D4400023C6E900433946BDE8DB
:100AD800F0878B4209D9002E00F0EB800027C6E989
:100AE800000138463946BDE8F087B3FA83F7002F8E
:100AF80047D18B4202D3824200F2FA80841A61EB1A
:100B0800030301209846002EE0D0C6E90048DDE73F
:100B180002B9FFDEB2FA82F2002A40F08F80491B48
:100B28004FEA154E1FFA85F80127B1FBFEFC230C8E
:100B38000EFB1C1143EA014308FB0CF1994207D94B
:100B4800EB180CF1FF3002D2994200F2CD808446B6
:100B5800591AA3B2B1FBFEF00EFB101443EA044489
:100B680008FB00F8A04507D92C1900F1FF3302D281
:100B7800A04500F2B6801846A4EB080440EA0C40F1
:100B88009FE7C7F1200CBB4022FA0CFE4EEA030E89
:100B980001FA07F420FA0CF521FA0CF34FEA1E4883
:100BA8002543B3FBF8F92C0C08FB19331FFA8EFA0E
:100BB80044EA034309FB0AF49C4202FA07F200FAEA
:100BC80007F10BD91EEB030309F1FF3080F0878092
:100BD8009C4240F28480A9F1020973441B1BADB208
:100BE800B3FBF8F008FB103345EA034400FB0AFAAC
:100BF800A24508D91EEB040400F1FF336BD2A245CD
:100C080069D90238744440EA0940A0FB0289A4EB80
:100C18000A044C45C2464B4654D351D0002E69D0E5
:100C2800B1EB0A0564EB030404FA0CFCFD40FC403C
:100C38004CEA0505C6E90054002747E7C2F120033E
:100C480020FA03F7954001FA02F021FA03F34FEA7C
:100C5800154E3843010CB3FBFEF71FFA85F80EFB5F
:100C6800173341EA034107FB08F38B4204FA02F405
:100C780007D9691807F1FF3C2FD28B422DD9023FC3
:100C88002944CB1A81B2B3FBFEF00EFB103341EAC4
:100C9800034100FB08F38B4207D9691800F1FF3CB8
:100CA80017D28B4215D902382944C91A40EA074796
:100CB8003BE73746304609E70746E7E61846FBE6CE
:100CC8004145ABD2B8EB020A69EB0E020138134674
:100CD800A4E76046E9E7184695E76746D1E7814605
:100CE8007CE702382C4447E7ACF1020C2B442FE791
:100CF800384608E73746E9E6704700BF80B500AFD9
:100D08000E4B1B680D4A43F4007313600B4B1B68B2
:100D18000A4A43F480631360084B1B68074A43F48C
:100D280080731360032000F027F9002000F008F812
:100D380005F0C0FA0023184680BD00BF003C024001
:100D480080B582B000AF7860124B1A68124B1B78DE
:100D580019464FF47A73B3FBF1F3B2FBF3F3184679
:100D680000F03FF90346002B01D001230EE07B6819
:100D78000F2B0AD8002279684FF0FF3000F007F9EE
:100D8800064A7B681360002300E0012318460837F1
:100D9800BD4680BD0800002004000020000000209F
:100DA80080B400AF064B1B781A46064B1B681344E9
:100DB800044A136000BFBD465DF8047B704700BF5E
:100DC80004000020F000002080B400AF034B1B6833
:100DD8001846BD465DF8047B704700BFF000002050
:100DE80080B485B000AF78607B6803F00703FB60D0
:100DF8000C4BDB68BB60BA684FF6FF031340BB605F
:100E0800FB681A02BB68134343F0BF6343F4003323
:100E1800BB60044ABB68D36000BF1437BD465DF8A9
:100E2800047B704700ED00E080B400AF044BDB6842
:100E38001B0A03F007031846BD465DF8047B70479C
:100E480000ED00E080B483B000AF0346FB71FB798E
:100E580003F01F02074997F907305B09012000FAE0
:100E680002F241F8232000BF0C37BD465DF8047B31
:100E7800704700BF00E100E080B483B000AF0346D4
:100E88003960FB7197F90730002B0BDA3B68DAB24F
:100E98000C49FB7903F00F03043B1201D2B20B4457
:100EA8001A7609E03B68DAB2074997F90730120168
:100EB800D2B20B4483F8002300BF0C37BD465DF85F
:100EC800047B704700ED00E000E100E080B489B0E9
:100ED80000AFF860B9607A60FB6803F00703FB6154
:100EE800FB69C3F10703042B28BF0423BB61FB691B
:100EF8000433062B02D9FB69033B00E000237B6126
:100F08004FF0FF32BB6902FA03F3DA43BB681A40B9
:100F18007B699A404FF0FF317B6901FA03F3D943AB
:100F28007B680B40134318462437BD465DF8047BA5
:100F38007047000080B582B000AF78607B68013BE5
:100F4800B3F1807F01D301230FE00A4A7B68013B9C
:100F580053600F214FF0FF30FFF78EFF054B002243
:100F68009A60044B07221A60002318460837BD46CA
:100F780080BD00BF10E000E080B582B000AF7860AF
:100F88007868FFF72DFF00BF0837BD4680BD80B5E4
:100F980086B000AF0346B9607A60FB7300237B61BB
:100FA800FFF742FF78617A68B9687869FFF78EFFC2
:100FB800024697F90F3011461846FFF75DFF00BF4C
:100FC8001837BD4680BD80B582B000AF0346FB71BF
:100FD80097F907301846FFF735FF00BF0837BD46B9
:100FE80080BD80B582B000AF78607868FFF7A2FF57
:100FF800034618460837BD4680BD000080B586B058
:1010080000AF786000237B61FFF7DEFE38617B6804
:10101800002B01D1012399E07B68002283F834205A
:101028007B68022283F835207B681B681A687B6816
:101038001B6822F001021A600FE0FFF7C5FE0246A6
:101048003B69D31A052B08D97B6820225A657B682F
:10105800032283F83520032378E07B681B681B682C
:1010680003F00103002BE8D17B681B681B687B61D8
:101078007A69384B13407B617B685A687B689B6848
:101088001A437B68DB681A437B681B691A437B68D1
:101098005B691A437B689B691A437B68DB691A435F
:1010A8007B681B6A13437A6913437B617B685B6ABD
:1010B800042B07D17B68DA6A7B681B6B13437A6958
:1010C80013437B617B681B687A691A607B681B68BD
:1010D8005B697B617B6923F007037B617B685B6AE3
:1010E8007A6913437B617B685B6A042B17D17B6841
:1010F8009B6A7A6913437B617B68DB6A002B0ED09D
:10110800786800F0E9F90346002B08D07B68402294
:101118005A657B68012283F83520012316E07B6835
:101128001B687A695A61786800F0A0F90346FB6089
:101138007B68DB6D3F229A40FB689A607B680022DF
:101148005A657B68012283F8352000231846183732
:10115800BD4680BD3F8010F080B586B000AF786096
:101168000023BB60924B1B68924AA2FB03239B0A95
:101178007B617B689B6D3B613B691B68FB607B689F
:10118800DB6D08229A40FB681340002B1AD07B685D
:101198001B681B6803F00403002B13D07B681B68D3
:1011A8001A687B681B6822F004021A607B68DB6D92
:1011B80008229A403B699A607B685B6D43F00102A4
:1011C8007B685A657B68DB6D01229A40FB68134097
:1011D800002B12D07B681B685B6903F08003002B2F
:1011E8000BD07B68DB6D01229A403B699A607B6873
:1011F8005B6D43F002027B685A657B68DB6D0422F5
:101208009A40FB681340002B12D07B681B681B6850
:1012180003F00203002B0BD07B68DB6D04229A409D
:101228003B699A607B685B6D43F004027B685A6592
:101238007B68DB6D10229A40FB681340002B43D07B
:101248007B681B681B6803F00803002B3CD07B6895
:10125800DB6D10229A403B699A607B681B681B68AB
:1012680003F48023002B18D07B681B681B6803F4E9
:101278000023002B08D17B681B6C002B24D07B68D3
:101288001B6C786898471FE07B689B6C002B1BD011
:101298007B689B6C7868984716E07B681B681B68BE
:1012A80003F48073002B07D17B681B681A687B687E
:1012B8001B6822F008021A607B681B6C002B03D0A5
:1012C8007B681B6C786898477B68DB6D20229A40A6
:1012D800FB681340002B00F08E807B681B681B683E
:1012E80003F01003002B00F086807B68DB6D202262
:1012F8009A403B699A607B6893F83530DBB2052BDE
:1013080036D17B681B681A687B681B6822F0160256
:101318001A607B681B685A697B681B6822F0800228
:101328005A617B681B6C002B03D17B689B6C002B7C
:1013380007D07B681B681A687B681B6822F0080264
:101348001A607B68DB6D3F229A403B699A607B6834
:10135800002283F834207B68012283F835207B68DB
:101368001B6D002B7DD07B681B6D7868984778E0F3
:101378007B681B681B6803F48023002B1CD07B68E8
:101388001B681B6803F40023002B08D17B685B6C87
:10139800002B30D07B685B6C786898472BE07B68C3
:1013A800DB6B002B27D07B68DB6B7868984722E0E3
:1013B80008000020B5814E1B7B681B681B6803F47E
:1013C8008073002B0FD17B681B681A687B681B68C9
:1013D80022F010021A607B68002283F834207B68B0
:1013E800012283F835207B68DB6B002B03D07B68F8
:1013F800DB6B786898477B685B6D002B32D07B6825
:101408005B6D03F00103002B22D07B68052283F873
:1014180035207B681B681A687B681B6822F001020C
:101428001A60BB680133BB607A699A4207D37B684C
:101438001B681B6803F00103002BF2D100E000BF1A
:101448007B68002283F834207B68012283F83520EA
:101458007B68DB6C002B05D07B68DB6C7868984771
:1014680000E000BF1837BD4680BD00BF80B485B01E
:1014780000AF78607B681B68DBB2103B144AA2FBA4
:1014880003231B09FB60134AFB6813441B781A46A5
:101498007B68DA65FB68032B09D97B681B6823F432
:1014A8007F7323F003031A1D7B689A6507E07B6846
:1014B8001B6823F47F7323F003037A6893657B68C2
:1014C8009B6D18461437BD465DF8047B704700BF16
:1014D800ABAAAAAA1068000880B485B000AF7860EB
:1014E8000023FB737B689B6ABB607B689B69002B4E
:1014F8001FD1BB68032B55D801A252F823F000BFB7
:10150800191500082B15000819150008AD15000855
:101518007B68DB6A03F08073002B45D00123FB73E3
:1015280042E07B68DB6AB3F1C07F3FD10123FB73E4
:101538003CE07B689B69B3F5005F21D1BB68032B56
:1015480036D801A252F823F0611500086715000883
:1015580061150008791500080123FB732FE07B68EB
:10156800DB6A03F08073002B24D00123FB7321E096
:101578007B68DB6AB3F1C07F1ED10123FB731BE0DC
:10158800BB68022B02D9032B03D018E00123FB739D
:1015980015E07B68DB6A03F08073002B0ED0012313
:1015A800FB730BE000BF0AE000BF08E000BF06E0E5
:1015B80000BF04E000BF02E000BF00E000BFFB7B0B
:1015C80018461437BD465DF8047B704780B489B06F
:1015D80000AF7860396000237B6100233B61002302
:1015E800BB610023FB616BE10122FB6902FA03F393
:1015F8007B613B681B687A6913403B613A697B6988
:101608009A4240F05A813B685B68022B03D03B68E2
:101618005B68122B23D1FB69DA087B68083253F820
:101628002230BB61FB6903F007039B000F2202FA1B
:1016380003F3DB43BA691340BB613B681A69FB6972
:1016480003F007039B0002FA03F3BA691343BB6173
:10165800FB69DA087B680832B96943F822107B68AD
:101668001B68BB61FB695B00032202FA03F3DB43DF
:10167800BA691340BB613B685B6803F00302FB690E
:101688005B0002FA03F3BA691343BB617B68BA696A
:101698001A603B685B68012B0BD03B685B68022BC8
:1016A80007D03B685B68112B03D03B685B68122B43
:1016B80030D17B689B68BB61FB695B00032202FA3F
:1016C80003F3DB43BA691340BB613B68DA68FB6923
:1016D8005B0002FA03F3BA691343BB617B68BA691A
:1016E8009A607B685B68BB610122FB6902FA03F3BD
:1016F800DB43BA691340BB613B685B681B0903F0B5
:101708000102FB6902FA03F3BA691343BB617B6800
:10171800BA695A607B68DB68BB61FB695B000322BE
:1017280002FA03F3DB43BA691340BB613B689A686A
:10173800FB695B0002FA03F3BA691343BB617B6878
:10174800BA69DA603B685B6803F08053002B00F0ED
:10175800B4800023FB605F4B5B6C5E4A43F48043BC
:1017680053645C4B5B6C03F48043FB60FB685A4A30
:10177800FB699B08023352F82330BB61FB6903F015
:1017880003039B000F2202FA03F3DB43BA691340F9
:10179800BB617B68514A93422BD07B68504A934285
:1017A80025D07B684F4A93421FD07B684E4A9342AC
:1017B80019D07B684D4A934213D07B684C4A9342B8
:1017C8000DD07B684B4A934207D07B684A4A9342C4
:1017D80001D107230EE008230CE006230AE00523C5
:1017E80008E0042306E0032304E0022302E00123C7
:1017F80000E00023FA6902F0030292009340BA69FC
:101808001343BB613449FB699B080233BA6941F849
:1018180023203A4B1B68BB613B69DB43BA69134021
:10182800BB613B685B6803F48033002B03D0BA6963
:101838003B691343BB61314ABB6913602F4B5B683B
:10184800BB613B69DB43BA691340BB613B685B68BA
:1018580003F40033002B03D0BA693B691343BB611F
:10186800264ABB695360254B9B68BB613B69DB43D8
:10187800BA691340BB613B685B6803F48013002BB3
:1018880003D0BA693B691343BB611C4ABB699360C7
:101898001A4BDB68BB613B69DB43BA691340BB6128
:1018A8003B685B6803F40013002B03D0BA693B69FB
:1018B8001343BB61114ABB69D360FB690133FB6108
:1018C800FB690F2B7FF690AE00BF2437BD465DF84D
:1018D800047B704700380240003801400000024095
:1018E8000004024000080240000C024000100240C0
:1018F8000014024000180240001C0240003C014055
:1019080080B483B000AF78600B467B8013467B7051
:101918007B78002B03D07A887B689A6103E07B8808
:101928001A047B689A6100BF0C37BD465DF8047BDA
:101938007047000080B584B000AF78600023FB607A
:101948000023BB607B68002B01D10123C8E07B68C2
:1019580093F83D30DBB2002B06D17B68002283F878
:101968003C20786804F0CEFC7B68242283F83D2074
:101978007B681B681A687B681B6822F001021A6082
:1019880002F082F9B860BB68574AA2FB03239B0C9C
:10199800FB607B681B68FA685A607B685B68534A1F
:1019A800934202D8FB68013309E0FB684FF4967252
:1019B80002FB03F34E4AA2FB03239B0901337A6817
:1019C800126813627B685B68484A934212D87B6846
:1019D8005B685B00BA68B2FBF3F3C3F30B03032B3A
:1019E80006D97B685B685B00BA68B2FBF3F345E035
:1019F800042343E07B689B68002B0FD17B685A68FF
:101A080013465B001344BA68B2FBF3F3C3F30B034A
:101A1800002B0CBF01230023DBB210E07B685A685F
:101A280013469B0013449A001344BA68B2FBF3F3BD
:101A3800C3F30B03002B0CBF01230023DBB2002BE5
:101A480001D001231AE07B689B68002B0AD17B68D0
:101A58005A6813465B001344BA68B2FBF3F343F4C5
:101A680000430BE07B685A6813469B0013449A00B6
:101A78001344BA68B2FBF3F343F440437A6812683C
:101A8800D3617B68D9697B681A6A7B681B680A43DB
:101A98001A607B6819697B68DA687B681B680A4387
:101AA8009A607B6859697B689A697B681B680A43F6
:101AB800DA607B681B681A687B681B6842F0010261
:101AC8001A607B6800221A647B68202283F83D2014
:101AD8007B6800221A637B68002283F83E2000237B
:101AE80018461037BD4680BD83DE1B43A086010023
:101AF800D34D621080B588B002AFF8607A601A469C
:101B08000B467B8113463B8100237B61FFF75CF921
:101B18007861FB6893F83D30DBB2202B40F0EE8013
:101B28007B690093192301227749F86800F06CFC5F
:101B38000346002B01D00223E1E0FB6893F83C3018
:101B4800012B01D10223DAE0FB68012283F83C2053
:101B5800FB681B681B6803F00103012B07D0FB68B7
:101B68001B681A68FB681B6842F001021A60FB6870
:101B78001B681A68FB681B6822F400621A60FB681D
:101B8800212283F83D20FB68102283F83E20FB6861
:101B980000221A64FB687A685A62FB683A895A8597
:101BA800FB685A4ADA62FB685B8D9AB2FB681A8551
:101BB80079897B693A6AF86800F0DCFA0346002BF9
:101BC8000FD0FB681B6C042B05D1FB68002283F83F
:101BD8003C20012393E0FB68002283F83C20032388
:101BE8008DE000233B61FB681B685B693B61FB6818
:101BF8001B689B693B613B6966E07A69396AF868EA
:101C080000F0C1FC0346002B0FD0FB681B6C042BB3
:101C180009D1FB681B681A68FB681B6842F40072EC
:101C28001A6001236BE0032369E0FB685B6A591CB7
:101C3800FA6851621A78FB681B681A61FB685B8D49
:101C48009BB2013B9AB2FB685A85FB681B8D013B2E
:101C58009AB2FB681A85FB681B685B6903F004038A
:101C6800042B19D1FB681B8D002B15D0FB685B6A10
:101C7800591CFA6851621A78FB681B681A61FB687C
:101C88005B8D9BB2013B9AB2FB685A85FB681B8D42
:101C9800013B9AB2FB681A857A69396AF86800F0DC
:101CA800AFFC0346002B0FD0FB681B6C042B09D13B
:101CB800FB681B681A68FB681B6842F400721A60AC
:101CC80001231CE003231AE0FB681B8D002B94D131
:101CD800FB681B681A68FB681B6842F400721A608C
:101CE800FB68202283F83D20FB68002283F83E2011
:101CF800FB68002283F83C20002300E002231846FA
:101D08001837BD4680BD00BF020010000000FFFF6D
:101D180080B58CB002AFF8607A601A460B467B81BA
:101D280013463B8100237B62FFF74EF87862FB681D
:101D380093F83D30DBB2202B40F015827B6A00938C
:101D4800192301228549F86800F05EFB0346002B41
:101D580001D0022308E2FB6893F83C30012B01D143
:101D6800022301E2FB68012283F83C20FB681B6820
:101D78001B6803F00103012B07D0FB681B681A6876
:101D8800FB681B6842F001021A60FB681B681A684E
:101D9800FB681B6822F400621A60FB68222283F841
:101DA8003D20FB68102283F83E20FB6800221A645D
:101DB800FB687A685A62FB683A895A85FB68684A00
:101DC800DA62FB685B8D9AB2FB681A8579897B6A4F
:101DD8003A6BF86800F050FA0346002B0FD0FB6806
:101DE8001B6C042B05D1FB68002283F83C200123DF
:101DF800BAE1FB68002283F83C200323B4E1FB68C6
:101E08001B8D002B13D100233B62FB681B685B69A9
:101E18003B62FB681B689B693B623B6AFB681B680B
:101E28001A68FB681B6842F400721A6088E1FB6854
:101E38001B8D012B1BD1FB681B681A68FB681B688C
:101E480022F480621A600023FB61FB681B685B69EF
:101E5800FB61FB681B689B69FB61FB69FB681B688E
:101E68001A68FB681B6842F400721A6068E1FB6834
:101E78001B8D022B1BD1FB681B681A68FB681B684B
:101E880022F480621A60FB681B681A68FB681B688A
:101E980042F400621A600023BB61FB681B685B693F
:101EA800BB61FB681B689B69BB61BB6948E1FB6858
:101EB8001B681A68FB681B6842F480621A6000237A
:101EC8007B61FB681B685B697B61FB681B689B69BE
:101ED8007B617B6934E1FB681B8D032B00F2EB808F
:101EE800FB681B8D012B27D17A6A396BF86800F0E3
:101EF800C4FB0346002B07D0FB681B6C202B01D1C9
:101F0800032331E101232FE1FB681B681869FB6893
:101F18005B6A591CFA685162C2B21A70FB681B8D61
:101F2800013B9AB2FB681A85FB685B8D9BB2013B4B
:101F38009AB2FB685A8503E1FB681B8D022B4AD1D4
:101F48007B6A00933B6B00220649F86800F05CFA54
:101F58000346002B08D0032306E100BF020010004F
:101F68000000FFFF04000100FB681B681A68FB689B
:101F78001B6842F400721A60FB681B681869FB68EA
:101F88005B6A591CFA685162C2B21A70FB681B8DF1
:101F9800013B9AB2FB681A85FB685B8D9BB2013BDB
:101FA8009AB2FB685A85FB681B681869FB685B6A0C
:101FB800591CFA685162C2B21A70FB681B8D013B4A
:101FC8009AB2FB681A85FB685B8D9BB2013B9AB29B
:101FD800FB685A85B4E07B6A00933B6B0022644936
:101FE800F86800F011FA0346002B01D00323BBE088
:101FF800FB681B681A68FB681B6822F480621A6019
:10200800FB681B681869FB685B6A591CFA685162AF
:10201800C2B21A70FB681B8D013B9AB2FB681A8525
:10202800FB685B8D9BB2013B9AB2FB685A857B6A61
:1020380000933B6B00224E49F86800F0E5F903462F
:10204800002B01D003238FE0FB681B681A68FB682C
:102058001B6842F400721A60FB681B681869FB6809
:102068005B6A591CFA685162C2B21A70FB681B8D10
:10207800013B9AB2FB681A85FB685B8D9BB2013BFA
:102088009AB2FB685A85FB681B681869FB685B6A2B
:10209800591CFA685162C2B21A70FB681B8D013B69
:1020A8009AB2FB681A85FB685B8D9BB2013B9AB2BA
:1020B800FB685A8544E07A6A396BF86800F0DDFA03
:1020C8000346002B07D0FB681B6C202B01D1032390
:1020D8004AE0012348E0FB681B681869FB685B6AF3
:1020E800591CFA685162C2B21A70FB681B8D013B19
:1020F8009AB2FB681A85FB685B8D9BB2013B9AB26A
:10210800FB685A85FB681B685B6903F00403042BB2
:1021180016D1FB681B681869FB685B6A591CFA686A
:102128005162C2B21A70FB681B8D013B9AB2FB6800
:102138001A85FB685B8D9BB2013B9AB2FB685A8596
:10214800FB681B8D002B7FF4C6AEFB68202283F84A
:102158003D20FB68002283F83E20FB68002283F8BC
:102168003C20002300E0022318462837BD4680BDE6
:102178000400010080B588B002AFF8607A603B6067
:102188000B467B81FB68DB6A7B617B69042B06D08D
:102198007B69012B03D07B6913F5803F08D1FB686D
:1021A8001B681A68FB681B6842F480721A600BE0AF
:1021B800FB681B6B122B07D1FB681B681A68FB684E
:1021C8001B6842F480721A603B6800937B680022A7
:1021D8004FF00111F86800F017F90346002B01D001
:1021E800032341E0FB681B69B3F5804F08D17B8965
:1021F800DBB21A46FB681B6802F0FE021A6121E096
:102208007B89DB11DBB203F00603DBB263F00F035B
:10221800DAB2FB681B681A613B687A681449F86887
:1022280000F043F90346002B07D0FB681B6C042B16
:1022380001D1012318E0032316E07B89DAB2FB6899
:102248001B681A613B687A680A49F86800F02DF93A
:102258000346002B07D0FB681B6C042B01D101231C
:1022680002E0032300E0002318461837BD4680BD6E
:10227800080001000200010080B588B002AFF860D4
:102288007A603B600B467B81FB68DB6A7B61FB689D
:102298001B681A68FB681B6842F480621A607B69D5
:1022A800042B06D07B69012B03D07B6913F5803F93
:1022B80008D1FB681B681A68FB681B6842F48072C7
:1022C8001A600BE0FB681B6B112B07D1FB681B68BE
:1022D8001A68FB681B6842F480721A603B680093B6
:1022E8007B6800224FF00111F86800F08DF8034672
:1022F800002B01D003237FE0FB681B69B3F5804FF7
:1023080008D17B89DBB243F00103DAB2FB681B68B2
:102318001A615FE07B89DB11DBB203F00603DBB2F5
:1023280063F00F03DAB2FB681B681A613B687A68CE
:102338003349F86800F0B9F80346002B07D0FB686A
:102348001B6C042B01D1012356E0032354E07B8945
:10235800DAB2FB681B681A613B687A682949F86831
:1023680000F0A3F80346002B07D0FB681B6C042B76
:1023780001D1012340E003233EE000233B61FB68D9
:102388001B685B693B61FB681B689B693B613B6938
:10239800FB681B681A68FB681B6842F480721A6045
:1023A8003B6800937B6800224FF00111F86800F049
:1023B8002BF80346002B01D003231DE07B89DB119A
:1023C800DBB203F00603DBB263F00E03DAB2FB689C
:1023D8001B681A613B687A680A49F86800F065F872
:1023E8000346002B07D0FB681B6C042B01D101238B
:1023F80002E0032300E0002318461837BD4680BDDD
:10240800080001000200010080B584B000AFF86048
:10241800B9603B601346FB711FE03B68B3F1FF3FB7
:102428001BD03B68002B07D0FEF7CEFC0246BB69E9
:10243800D31A3A689A4210D2FB6800221A63FB68E2
:10244800202283F83D20FB68002283F83E20FB68A9
:10245800002283F83C20032323E0BB681B0CDBB27B
:10246800012B0DD1FB681B685B69DA43BB6813401D
:102478009BB2002B0CBF01230023DBB21A460CE0F1
:10248800FB681B689B69DA43BB6813409BB2002B4F
:102498000CBF01230023DBB21A46FB799A42BCD059
:1024A800002318461037BD4680BD80B584B000AF04
:1024B800F860B9607A603B6040E0FB681B685B6964
:1024C80003F48063B3F5806F1CD1FB681B681A683E
:1024D800FB681B6842F400721A60FB681B686FF4A3
:1024E80080625A61FB6804221A64FB6800221A633E
:1024F800FB68202283F83D20FB68002283F83C20FB
:1025080001233CE07B68B3F1FF3F17D07B68002BC9
:1025180007D0FEF759FC02463B68D31A7A689A42FC
:102528000CD2FB6800221A63FB68202283F83D2046
:10253800FB68002283F83C20032320E0BB681B0CC7
:10254800DBB2012B0CD1FB681B685B69DA43BB6803
:1025580013409BB2002B14BF01230023DBB20BE016
:10256800FB681B689B69DA43BB6813409BB2002B6E
:1025780014BF01230023DBB2002B9ED10023184691
:102588001037BD4680BD80B584B000AFF860B96033
:102598007A6029E0F86800F0BAF80346002B01D009
:1025A800012329E0BB68B3F1FF3F1DD0BB68002BB6
:1025B80007D0FEF709FC02467B68D31ABA689A422C
:1025C80012D2FB681B6C43F02002FB681A64FB689C
:1025D80000221A63FB68202283F83D20FB68002252
:1025E80083F83C20032307E0FB681B685B6903F062
:1025F8008003802BCED1002318461037BD4680BDFE
:1026080080B584B000AFF860B9607A6029E0F868F6
:1026180000F07DF80346002B01D0012329E0BB68B8
:10262800B3F1FF3F1DD0BB68002B07D0FEF7CCFBF2
:1026380002467B68D31ABA689A4212D2FB681B6CAE
:1026480043F02002FB681A64FB6800221A63FB68E7
:10265800202283F83D20FB68002283F83C200323D6
:1026680007E0FB681B685B6903F00403042BCED109
:10267800002318461037BD4680BD80B584B000AF32
:10268800F860B9607A6036E0FB681B685B6903F044
:102698001003102B14D1FB681B686FF010025A61ED
:1026A800FB6800221A64FB6800221A63FB68202278
:1026B80083F83D20FB68002283F83C20012322E0B8
:1026C800BB68002B07D0FEF77FFB02467B68D31A56
:1026D800BA689A420FD2FB681B6C43F02002FB6871
:1026E8001A64FB68202283F83D20FB68002283F8E7
:1026F8003C20032307E0FB681B685B6903F0400389
:10270800402BC1D1002318461037BD4680BD80B488
:1027180083B000AF78607B681B685B6903F48063F3
:10272800B3F5806F14D17B681B686FF480625A61BF
:102738007B6804221A647B6800221A637B68202263
:1027480083F83D207B68002283F83C20012300E0C9
:10275800002318460C37BD465DF8047B704700001F
:1027680080B588B000AF78600023FB600223FB616E
:102778000023BB6110237B6100233B610023BB6006
:102788007B68002B01D101232CE17B68022283F8AE
:1027980041207B68954A5A63786803F0FBFD7B68A3
:1027A8001B68DB697A68126823F47B6323F00F03E4
:1027B800D3617B681B6802221A627B681B68DB692D
:1027C800FB607B685B69022B61D07B68DB68002B50
:1027D80002D020237B6101E010237B617B689B682A
:1027E800202B02D87B695B007B61012001F042FB52
:1027F800B8607B681B69B3F5007F25D17B68DB680F
:10280800002B10D07B699B00BA68B2FBF3F2134629
:102818009B0013445B001A467B685B69B2FBF3F3C9
:1028280005333B611FE07B69DB00BA68B2FBF3F25A
:1028380013469B0013445B001A467B685B69B2FB36
:10284800F3F305333B610EE0BA687B69B2FBF3F240
:1028580013469B0013445B001A467B685B69B2FB16
:10286800F3F305333B613B69614AA2FB0323DB08B1
:102878003B613B699BB203F00103BB613A69BB69E9
:10288800D31A5B089BB2FB61BB691B02BB61FB6986
:10289800012B02D9FB69FF2B0ED90223FB61002310
:1028A800BB617B685B6C43F010027B685A64786894
:1028B80000F034FA012395E07B681A69BB6942EAA3
:1028C80003017B681B68FA690A431A627B685B68C4
:1028D8009AB27B689B6899B27B68DB6898B27B6820
:1028E8009B699BB203439BB20B439BB213439BB2BE
:1028F80043F400639BB21A46FB681343FB607B6892
:102908001B68FA68DA617B681B6A012B62D17B68F5
:10291800384A5A637B681B68374A934201D1374B60
:1029280001E04FF04023DB697A68126832498A4235
:1029380001D1324A01E04FF0402223F47B6323F0B7
:102948000F03D3617B681B682B4A934201D12B4B41
:1029580001E04FF0402302221A627B681B68264A76
:10296800934201D1254B01E04FF04023DB69FB6026
:102978007B685B68B3F5007F03D07B685B68002BDE
:1029880003D14FF480733B6101E000233B613B6955
:102998009AB27B689B6899B27B68DB6898B27B685F
:1029A8009B699BB203439BB20B439BB213439BB2FD
:1029B80043F400639BB21A46FB681343FB607B68D1
:1029C8001B680D4A934201D10C4B01E04FF04023A4
:1029D800FA68DA617B6800225A647B68012283F80E
:1029E8004120002318462037BD4680BDEF2D000842
:1029F800CDCCCCCC752F0008003800400034004006
:102A080080B586B000AFF860B9603B601346FB80C4
:102A180000237B61BB68002B02D0FB88002B01D10F
:102A280001239AE0FB6893F84130DBB2012B40F0B8
:102A38009380FB681B68DB6903F007037B617B6994
:102A4800032B02D07B69052B0AD1FB885B009AB265
:102A5800FB681A85FB885B009AB2FB685A8505E01B
:102A6800FB68FA881A85FB68FA885A85FB6893F828
:102A78004030DBB2012B01D102236EE0FB6801225A
:102A880083F84020FB6800225A64FB68032283F81D
:102A98004120FB681B68DB6903F48063B3F5806F32
:102AA8004BD0FB681B68DA69FB681B6842F48062DC
:102AB800DA6142E0BB689A1CBA601A88FB681B6836
:102AC800DA60FB685B8D9BB2013B9AB2FB685A8562
:102AD8003B6801220221F86800F011FA0346002B36
:102AE8000AD0FB685B6C43F00102FB685A64F86823
:102AF80000F014F9032330E0FB681B689B6803F0BF
:102B08000803082B19D100233B61FB681B689B68ED
:102B18003B613B69FB68012283F84120FB68002286
:102B280083F84020FB685B6C43F00402FB685A643E
:102B3800F86800F0F3F801230FE0FB685B8D9BB2A7
:102B4800002BB7D1FB68012283F84120FB680022E3
:102B580083F84020002300E0022318461837BD46BA
:102B680080BD80B588B000AFF860B9603B6013469F
:102B7800FB800023FB61BB68002B02D0FB88002B85
:102B880001D10123B2E0FB6893F84130DBB2012B9D
:102B980040F0AB80FB681B68DB6903F00703FB614F
:102BA800FB69032B02D0FB69052B0AD1FB885B006C
:102BB8009AB2FB681A86FB885B009AB2FB685A8651
:102BC80005E0FB68FA881A86FB68FA885A86FB686B
:102BD80093F84030DBB2012B01D1022386E0FB6879
:102BE800012283F84020FB6800225A64FB68042213
:102BF80083F84120FB681B68DB6903F48063B3F545
:102C0800806F07D0FB681B68DA69FB681B6842F4B1
:102C18008062DA61FB681B68DB6903F44073B3F513
:102C2800407F53D10023BB61FB681B68DB68BB6135
:102C3800FB681B689B68BB61BB6947E03B68012276
:102C48000121F86800F05BF90346002B0AD0FB6805
:102C58005B6C43F00102FB685A64F86800F05EF8A8
:102C6800032343E0FB681B689B6803F04003402B89
:102C78001DD100237B61FB681B68DB687B61FB68F7
:102C88001B689B687B617B69FB68012283F8412094
:102C9800FB68002283F84020FB685B6C43F002026B
:102CA800FB685A64F86800F039F801231EE0FB68F5
:102CB8001B68D968BB689A1CBA608AB21A80FB681C
:102CC8005B8E9BB2013B9AB2FB685A86FB685B8EAF
:102CD8009BB2002BB2D1FB68012283F84120FB682C
:102CE800002283F84020002300E002231846203702
:102CF800BD4680BD80B483B000AF786000BF0C379C
:102D0800BD465DF8047B704780B483B000AF78603F
:102D180000BF0C37BD465DF8047B704780B483B0B4
:102D280000AF786000BF0C37BD465DF8047B704784
:102D380080B582B000AF78607B685B6A991C7A685E
:102D480051621A887B681B68DA607B685B8D9BB26E
:102D5800013B9AB27B685A857B685B8D9BB2002BDE
:102D68000FD17B681B6859687B681A684FF65F73D8
:102D78000B4053607B68012283F841207868FFF795
:102D8800B9FF00BF0837BD4680BD80B582B000AF2F
:102D980078607B681B68D8687B68DB6A991C7A68EE
:102DA800D16282B21A807B685B8E9BB2013B9AB279
:102DB8007B685A867B685B8E9BB2002B0FD17B6841
:102DC8001B6859687B681A684FF69F730B405360FD
:102DD8007B68012283F841207868FFF795FF00BFE0
:102DE8000837BD4680BD80B586B000AF78607B6887
:102DF8001B689B687B617B6893F84130DBB2042BCE
:102E08003BD17B6903F00103012B09D17B681B6867
:102E18005B6803F04003402B02D17868FFF7B5FFE9
:102E28007B6903F04003402B27D17B681B685B68F4
:102E380003F02003202B20D17B681B6859687B682E
:102E48001A684FF69F730B40536000233B617B6801
:102E58001B68DB683B617B681B689B683B613B695F
:102E68007B68012283F841207B685B6C43F0020297
:102E78007B685A647868FFF751FF7B6893F84130A4
:102E8800DBB2032B37D17B6903F00203022B09D194
:102E98007B681B685B6803F08003802B02D178682D
:102EA800FFF746FF7B6903F00803082B23D17B68F3
:102EB8001B685B6803F02003202B1CD17B681B6810
:102EC80059687B681A684FF65F730B40536000239C
:102ED800FB607B681B689B68FB60FB687B68012262
:102EE80083F841207B685B6C43F004027B685A647A
:102EF8007868FFF713FF00BF1837BD4680BD80B55F
:102F080086B000AFF860B9607A603B60FDF75CFF9F
:102F1800786118E03B68B3F1FF3F14D03B68002BA1
:102F280007D0FDF751FF02467B69D31A3A689A42E7
:102F380009D2FB68012283F84120FB68002283F84C
:102F4800402003230EE0FB681B689A68BB681340A7
:102F5800BA689A4201D1012200E000227B689A42B5
:102F6800D8D1002318461837BD4680BD80B586B035
:102F780000AF78607B681B689B687B617B681B6817
:102F8800A24A934201D1A24B01E04FF040239B6833
:102F98003B617B681B68DB6903F44073B3F5007F12
:102FA80007D07B681B68DB6903F44073002B40F093
:102FB800B3807B6903F00203022B0AD17B681B688C
:102FC8005B6803F08003802B03D10021786800F050
:102FD8005BF93B6903F00103012B11D17B681B6886
:102FE8008A4A934201D18A4B01E04FF040235B6843
:102FF80003F04003402B03D10121786800F0C0F9A9
:103008003B6903F04003402B44D17B681B687F4A2F
:10301800934201D17E4B01E04FF040235B6803F0FF
:103028002003202B36D17B681B68784A934201D154
:10303800774B01E04FF040235A687B681B6873495F
:103048008B4201D1724B01E04FF0402322F0600225
:103058005A607B681B6859687B681A684FF65F730B
:103068000B4053600023FB607B681B68DB68FB60D8
:103078007B681B689B68FB60FB687B68012283F8A0
:1030880041207B685B6C43F002027B685A64786875
:10309800FFF744FE7B6903F00803082B40F0E0804B
:1030A8007B681B685B6803F02003202B40F0D88006
:1030B8007B681B6859687B681A684FF65F730B401A
:1030C80053607B681B68514A934201D1504B01E021
:1030D8004FF040235A687B681B684C498B4201D1EA
:1030E8004B4B01E04FF0402322F060025A6000236E
:1030F800BB607B681B689B68BB60BB687B68012200
:1031080083F841207B685B6C43F004027B685A6457
:103118007868FFF703FEA3E03B6903F00203022B84
:1031280011D17B681B68394A934201D1384B01E0C1
:103138004FF040235B6803F08003802B03D101210B
:10314800786800F0A1F87B6903F00103012B0AD12C
:103158007B681B685B6803F04003402B03D10021A8
:10316800786800F00DF97B6903F04003402B32D1F9
:103178007B681B685B6803F02003202B2BD17B68DE
:103188001B6859687B681A684FF69F730B40536039
:103198007B681B681D4A934201D11D4B01E04FF02B
:1031A80040235A687B681B6818498B4201D1184B29
:1031B80001E04FF0402322F0A0025A607B68012210
:1031C80083F841207B685B6C43F002027B685A6499
:1031D8007868FFF7A3FD3B6903F00803082B40D18B
:1031E8007B681B68094A934201D1094B01E04FF003
:1031F80040235B6803F02003202B32D17B681B68D7
:10320800024A934206D1024B06E000BF0038004054
:10321800003400404FF040235A687B681B6813490C
:103228008B4201D1124B01E04FF0402322F0A00263
:103238005A607B681B6859687B681A684FF69F73E9
:103248000B4053607B68012283F841207B685B6CEC
:1032580043F004027B685A647868FFF75FFD00E07A
:1032680000BF00BF1837BD4680BD00BF0038004012
:103278000034004080B483B000AF786000BF0C37E2
:10328800BD465DF8047B704780B582B000AF7860BA
:103298000B46FB70FB78002B2AD17B685B6A991C74
:1032A8007A6851621A887B681B68DA607B685B8D74
:1032B8009BB2013B9AB27B685A857B685B8D9BB257
:1032C800002B54D17B681B6859687B681A684FF6D5
:1032D8005F730B4053607B685B8E9BB2002B46D1BB
:1032E8007B68012283F841207868FFF7C3FF3EE03E
:1032F8007B685B6A991C7A68516219887B681B68CD
:103308001D4A934201D11D4B01E04FF040230A466C
:10331800DA607B685B8D9BB2013B9AB27B685A8509
:103328007B685B8D9BB2002B21D17B681B68124A9E
:10333800934201D1114B01E04FF040235A687B685A
:103348001B680D498B4201D10C4B01E04FF0402323
:1033580022F0A0025A607B685B8E9BB2002B06D1DC
:103368007B68012283F841207868FFF783FF00BF5C
:103378000837BD4680BD00BF00380040003400401B
:1033880080B582B000AF78600B46FB70FB78002BED
:103398002BD17B681B68D8687B68DB6A991C7A68C4
:1033A800D16282B21A807B685B8E9BB2013B9AB273
:1033B8007B685A867B685B8E9BB2002B54D17B68F6
:1033C8001B6859687B681A684FF69F730B405360F7
:1033D8007B685B8D9BB2002B46D17B68012283F80A
:1033E80041207868FFF746FF3EE07B681B68204A6B
:1033F800934201D11F4B01E04FF04023D8687B680E
:10340800DB6A991C7A68D16282B21A807B685B8E0B
:103418009BB2013B9AB27B685A867B685B8E9BB2F3
:10342800002B21D17B681B68114A934201D1114BB3
:1034380001E04FF040235A687B681B680C498B42B7
:1034480001D10C4B01E04FF0402322F060025A609A
:103458007B685B8D9BB2002B06D17B68012283F8C9
:1034680041207868FFF706FF00BF0837BD4680BDDA
:10347800003800400034004080B586B000AF786066
:103488007B68002B01D101232DE27B681B6803F0C8
:103498000103002B75D0A34B9B6803F00C03042B8E
:1034A8000CD0A04B9B6803F00C03082B12D19D4B4A
:1034B8005B6803F48003B3F5800F0BD1994B1B684D
:1034C80003F40033002B5BD07B685B68002B57D17B
:1034D800012308E27B685B68B3F5803F06D1914B16
:1034E8001B68904A43F4803313601DE07B685B6877
:1034F800B3F5A02F0CD18B4B1B688A4A43F4802369
:103508001360884B1B68874A43F4803313600BE0D1
:10351800844B1B68834A23F480331360814B1B68F8
:10352800804A23F4802313607B685B68002B13D0E8
:10353800FDF74AFC386108E0FDF746FC02463B69A6
:10354800D31A642B01D90323CDE1764B1B6803F40E
:103558000033002BF0D014E0FDF736FC386108E0AA
:10356800FDF732FC02463B69D31A642B01D90323C9
:10357800B9E16C4B1B6803F40033002BF0D100E079
:1035880000BF7B681B6803F00203002B63D0654B08
:103598009B6803F00C03002B0BD0624B9B6803F075
:1035A8000C03082B1CD15F4B5B6803F48003002BD2
:1035B80016D15C4B1B6803F00203002B05D07B6817
:1035C800DB68012B01D001238DE1564B1B6823F0EA
:1035D800F8027B681B69DB00524913430B603AE031
:1035E8007B68DB68002B20D04F4B01221A60FDF767
:1035F800EBFB386108E0FDF7E7FB02463B69D31AAD
:10360800022B01D903236EE1464B1B6803F002032A
:10361800002BF0D0434B1B6823F0F8027B681B6932
:10362800DB00404913430B6015E03F4B00221A6052
:10363800FDF7CAFB386108E0FDF7C6FB02463B69A7
:10364800D31A022B01D903234DE1364B1B6803F033
:103658000203002BF0D17B681B6803F00803002BE2
:1036680030D07B685B69002B16D0304B01221A6082
:10367800FDF7AAFB386108E0FDF7A6FB02463B69A7
:10368800D31A022B01D903232DE1264B5B6F03F0DC
:103698000203002BF0D015E0244B00221A60FDF73E
:1036A80093FB386108E0FDF78FFB02463B69D31AAC
:1036B800022B01D9032316E11A4B5B6F03F00203B7
:1036C800002BF0D17B681B6803F00403002B00F08B
:1036D800A0800023FB75134B1B6C03F08053002B59
:1036E8000FD10023FB600F4B1B6C0E4A43F0805335
:1036F80013640C4B1B6C03F08053FB60FB680123C5
:10370800FB750B4B1B6803F48073002B21D1084B0E
:103718001B68074A43F480731360FDF755FB386153
:1037280011E000BF0038024000004742800E4742C7
:1037380000700040FDF748FB02463B69D31A022B94
:1037480001D90323CFE06A4B1B6803F48073002B75
:10375800F0D07B689B68012B06D1664B1B6F654ACE
:1037680043F0010313671CE07B689B68052B0CD1B1
:10377800604B1B6F5F4A43F0040313675D4B1B6F7D
:103788005C4A43F0010313670BE05A4B1B6F594A1D
:1037980023F001031367574B1B6F564A23F00403AA
:1037A80013677B689B68002B15D0FDF70DFB38610C
:1037B8000AE0FDF709FB02463B69D31A41F2883259
:1037C800934201D903238EE04A4B1B6F03F0020397
:1037D800002BEED014E0FDF7F7FA38610AE0FDF7A8
:1037E800F3FA02463B69D31A41F28832934201D96F
:1037F800032378E03F4B1B6F03F00203002BEED14D
:10380800FB7D012B05D13B4B1B6C3A4A23F08053BF
:1038180013647B689B69002B64D0364B9B6803F06C
:103828000C03082B5CD07B689B69022B41D1324B7F
:1038380000221A60FDF7C8FA386108E0FDF7C4FAFB
:1038480002463B69D31A022B01D903234BE0294BCB
:103858001B6803F00073002BF0D17B68DA697B6882
:103868001B6A1A437B685B6A9B011A437B689B6AE5
:103878005B08013B1B041A437B68DB6A1B061D4976
:1038880013434B601C4B01221A60FDF79DFA386107
:1038980008E0FDF799FA02463B69D31A022B01D9D1
:1038A800032320E0134B1B6803F00073002BF0D0B8
:1038B80018E0114B00221A60FDF786FA386108E01B
:1038C800FDF782FA02463B69D31A022B01D903237A
:1038D80009E0084B1B6803F00073002BF0D101E0EE
:1038E800012300E0002318461837BD4680BD00BFFD
:1038F80000700040003802406000474280B584B044
:1039080000AF786039607B68002B01D10123CAE0E1
:10391800674B1B6803F00F033A689A420CD9644B53
:103928003A68D2B21A70624B1B6803F00F033A6808
:103938009A4201D00123B6E07B681B6803F00203BA
:10394800002B20D07B681B6803F00403002B05D0F4
:10395800584B9B68574A43F4E05393607B681B6855
:1039680003F00803002B05D0524B9B68514A43F4DF
:10397800604393604F4B9B6823F0F0027B689B6821
:103988004C4913438B607B681B6803F00103002BD1
:1039980044D07B685B68012B07D1464B1B6803F456
:1039A8000033002B19D101237DE07B685B68022B73
:1039B80003D07B685B68032B07D13E4B1B6803F081
:1039C8000073002B09D101236DE03A4B1B6803F00B
:1039D8000203002B01D1012365E0364B9B6823F0DD
:1039E80003027B685B68334913438B60FDF7ECF98E
:1039F800F8600AE0FDF7E8F90246FB68D31A41F2DD
:103A08008832934201D903234DE02A4B9B6803F087
:103A18000C027B685B689B009A42EBD1244B1B68C5
:103A280003F00F033A689A420CD2214B3A68D2B29B
:103A38001A701F4B1B6803F00F033A689A4201D0B3
:103A4800012330E07B681B6803F00403002B08D0D7
:103A5800184B9B6823F4E0527B68DB6815491343D5
:103A68008B607B681B6803F00803002B09D0114B9F
:103A78009B6823F460427B681B69DB000D49134394
:103A88008B6000F01DF801460A4B9B681B0903F088
:103A98000F03094AD35C21FA03F3084A1360002094
:103AA800FDF74EF9002318461037BD4680BD00BF0C
:103AB800003C024000380240988F000808000020AF
:103AC800F0B585B000AF00237B600023FB600023C6
:103AD8003B600023BB60634B9B6803F00C03042B23
:103AE80007D0082B08D0002B40F0B4805E4BBB6099
:103AF800B3E05E4BBB60B0E05A4B5B6803F03F033A
:103B08007B60584B5B6803F48003002B4AD0554B0D
:103B18005B689B094FF0000440F2FF114FF0000270
:103B280003EA010504EA0206294632464FF000037B
:103B38004FF00004540144EAD1644B01194622466F
:103B4800491B62EB06024FF000034FF0000494019A
:103B580044EA91648B015B1A64EB02044FF00001A4
:103B68004FF00002E20042EA5372D9000B461446B5
:103B78005B1944EB06044FF000014FF000026202AB
:103B880042EAD35259020B461446184621467B682E
:103B98004FF000041A462346FCF730FF03460C4654
:103BA800FB6049E02F4B5B689B094FF0000440F233
:103BB800FF114FF0000203EA010504EA0206294654
:103BC80032464FF000034FF00004540144EAD16438
:103BD8004B0119462246491B62EB06024FF00003CF
:103BE8004FF00004940144EA91648B015B1A64EB82
:103BF80002044FF000014FF00002E20042EA537263
:103C0800D9000B4614465B1944EB06044FF000013B
:103C18004FF00002A20242EA935299020B46144660
:103C2800184621467B684FF000041A462346FCF7E5
:103C3800E5FE03460C46FB600A4B5B681B0C03F071
:103C4800030301335B003B60FA683B68B2FBF3F3A4
:103C5800BB6002E0044BBB6000BFBB68184614376A
:103C6800BD46F0BD003802400024F40000127A007E
:103C780080B400AF034B1B681846BD465DF8047B53
:103C8800704700BF0800002080B500AFFFF7F0FFC5
:103C98000146054B9B689B0A03F00703034AD35C64
:103CA80021FA03F3184680BD00380240A88F0008A7
:103CB80080B586B000AF786000237B6100233B614C
:103CC8007B681B6803F00103002B05D17B681B6828
:103CD80003F00403002B35D0624B00221A60FDF775
:103CE80073F8786108E0FDF76FF802467B69D31A2C
:103CF800022B01D90323B0E05B4B1B6803F0006380
:103D0800002BF0D17B685B689A017B689B681B0776
:103D180055491343C1F88430524B01221A60FDF70C
:103D280053F8786108E0FDF74FF802467B69D31A2B
:103D3800022B01D9032390E04B4B1B6803F000636F
:103D4800002BF0D07B681B6803F00203002B00F007
:103D580083800023FB60444B1B6C434A43F0805331
:103D68001364414B1B6C03F08053FB60FB683F4BB3
:103D78001B683E4A43F480731360FDF725F87861A9
:103D880008E0FDF721F802467B69D31A022B01D916
:103D9800032362E0354B1B6803F48073002BF0D0DB
:103DA800314B1B6F03F440733B613B69002B2FD0F1
:103DB8007B68DB6803F440733A699A4228D02A4B3F
:103DC8001B6F23F440733B61294B01221A60284B77
:103DD80000221A60244A3B691367234B1B6F03F0C8
:103DE8000103002B14D0FCF7EFFF78610AE0FCF721
:103DF800EBFF02467B69D31A41F28832934201D91C
:103E080003232AE0184B1B6F03F00203002BEED0AC
:103E18007B68DB6803F44073B3F5407F0DD1124B28
:103E28009B6823F4F8127B68DB6823F0704323F463
:103E380040730D4913438B6005E00B4B9B680A4A9E
:103E480023F4F8139360084B1A6F7B68DB68C3F39D
:103E58000B03054913430B67002318461837BD4663
:103E680080BD00BF68004742003802400070004033
:103E7800400E474280B487B000AF786000237B6172
:103E880000233B610023FB600023BB607B68012BA0
:103E98003DD1224B9B6803F40003FB60FB68002BB9
:103EA80004D0012B2FD11E4B7B612FE01B4B5B688D
:103EB80003F48003B3F5800F08D1184B5B6803F057
:103EC8003F03184AB2FBF3F33B6107E0134B5B680F
:103ED80003F03F03144AB2FBF3F33B610F4BD3F8F3
:103EE80084309B09C3F308023B6902FB03F3BB6000
:103EF8000A4BD3F884301B0F03F00703BA68B2FBF0
:103F0800F3F37B6102E000237B6100BF00BF7B69A4
:103F180018461C37BD465DF8047B704700380240E0
:103F28000080BB0000127A000024F40080B485B041
:103F380000AF7860084611461A4603467B800B4658
:103F48007B7013463B700023FB737B687A881A806A
:103F58007B682D4A5A607B687A789A707B683A78D1
:103F6800DA707B681B88402B26D0402B02DC102B94
:103F780030D03DE0B3F5807F10D0B3F5806F37D1F6
:103F88007B6801229A817B680122DA817B681F4A5B
:103F98009A607B684FF06A521A612CE07B680422B1
:103FA8009A817B680422DA817B68194A9A607B6867
:103FB8004FF06E521A611EE07B6810229A817B686E
:103FC8001022DA817B68134A9A607B684FF072523C
:103FD8001A6110E07B6840229A817B684022DA816E
:103FE8007B680D4A9A607B684FF076521A6102E04E
:103FF800FF23FB7300BF97F90F3018461437BD46EF
:104008005DF8047B704700BF18680008188800082E
:104018001E880008368800089688000880B584B095
:1040280002AF03463960FB71094AFB7913703B689C
:104038001A78074B5A70642300930223044A942188
:104048000448FDF757FD00BF0837BD4680BD00BFD7
:10405800900000209400002080B584B002AF034691
:104068003960FB710B4AFB791370642300930123B9
:10407800084A94210848FDF73DFD64230093012375
:104088003A6894210448FDF743FE00BF0837BD464F
:1040980080BD00BF900000209400002084B080B54F
:1040A80000AF07F1080C8CE80F00814B002283F861
:1040B80040207F4B1B68DA697D4B1B6842F48062A5
:1040C800DA61012210217B48FDF71AFC7A4B184669
:1040D80007F1080154231A4602F076FB774B0122B8
:1040E8005A7076490220FFF799FF744B80225A7064
:1040F800724B5B7843F02003DAB2704B5A706F4B07
:104108005B7843F00C03DAB26C4B5A706B4B5B78FC
:1041180043F00303DAB2694B5A7069490420FFF788
:104128007DFF664B80225A7065490520FFF776FFB0
:1041380062490620FFF790FF604B5B7803F020038D
:10414800DAB25E4B5A705D4B5B7803F07F03DAB2EC
:104158005A4B5A70594B5B7823F04003DAB2574BED
:104168005A70564B5B7823F01003DAB2534B5A70EF
:10417800524B5B7823F00403DAB2504B5A704F4B22
:104188005B7843F00403DAB24C4B5A704B4B5B78C4
:1041980043F00303DAB2494B5A7049490620FFF746
:1041A8003DFF47490820FFF757FF444B5B7823F052
:1041B8000F03DAB2414B5A70404B5B7843F001036E
:1041C800DAB23E4B5A703E490820FFF727FF3C49B8
:1041D8000920FFF741FF394B5B7823F00F03DAB270
:1041E800364B5A70354B5B7843F00103DAB2334BE8
:1041F8005A7033490920FFF711FF31490E20FFF7A4
:104208002BFF97F85C30012B23D12C4B5B7863F0A4
:104218007F03DAB2294B5A70284B5B7843F040038E
:10422800DAB2264B5A70254B5B7823F02003DAB2BA
:10423800224B5A70214B5B7823F01003DAB21F4BE4
:104248005A701E4B5B7823F00803DAB21B4B5A7086
:1042580006E097F85C30002B02D1184B02225A7006
:1042680017490E20FFF7DAFE15490F20FFF7F4FE75
:10427800124B00225A7012490F20FFF7CFFE0F4B46
:1042880000225A700E491420FFF7C8FE0C49152069
:10429800FFF7C4FE0A491A20FFF7C0FE08491B2091
:1042A800FFF7BCFE00BFBD46BDE8804004B07047C4
:1042B80014020020000C024094000020900000200E
:1042C8009100002080B582B000AF0346FB71FB79F6
:1042D800032B37D801A252F823F000BFF54200089B
:1042E8000B4300082143000837430008214BC02234
:1042F8005A70204B5B7843F03003DAB21D4B5A708A
:1043080021E01C4B80225A701A4B5B7843F0300333
:10431800DAB2184B5A7016E0164BC0225A70154B79
:104328005B7843F02003DAB2124B5A700BE0114B62
:1043380080225A700F4B5B7843F02003DAB20D4BA2
:104348005A7000E000BF0B4B5B7843F00C03DAB205
:10435800084B5A70074B5B7843F00303DAB2054BFE
:104368005A7005490420FFF759FE00BF0837BD46BB
:1043780080BD00BF900000209100002080B584B06F
:1043880000AF0346FB71FB79323BDBB2FB73FB7B6F
:104398005B00DBB2FB73FB7BBB73164ABB7B5370C2
:1043A80015491420FFF73AFE13491520FFF736FE8A
:1043B800FB79642B0ED8FA7913465B0013441B0172
:1043C8000E4A82FB03125211DB17D31ADBB2183BD9
:1043D800DBB200E01823074A537007492020FFF793
:1043E8001DFE05492120FFF719FE00BF1037BD4605
:1043F80080BD00BF90000020910000201F85EB5178
:1044080080B500AF1D4B99225A701D490020FFF757
:1044180005FE1A4B80225A7019494720FFF7FEFD06
:1044280017493220FFF718FE144B5B7863F07F03BF
:10443800DAB2124B5A7012493220FFF7EFFD1049D9
:104448003220FFF709FE0D4B5B7803F07F03DAB2E9
:104458000A4B5A700A493220FFF7E0FD074B002249
:104468005A7007490020FFF7D9FD044B9E225A7065
:1044780003490220FFF7D2FD00BF80BD9000002055
:1044880091000020F0B583B000AF786039607B6898
:104498009B78012B17D17B681B881D467B685C685D
:1044A8007B689B891E467B681B691846FBF7ECFFF7
:1044B80002460B4643EC102B334622462946386801
:1044C80000F0A1FC09E07B681B8819467B685A68E4
:1044D8007B689B89386800F013F87B68DB78012BD0
:1044E8000AD17B681B8819467B68DB891A467B687A
:1044F8009B68386801F038F900BF0C37BD46F0BD3D
:1045080080B49DB000AFF8607A601A460B467B8194
:1045180013463B817B897B667B6EBB657B6E9B0804
:104528007B660023BB660023FB667B6E3B66BA6E28
:104538007B6E13447B657A6D7B6E13443B653A6DE5
:104548007B6E1344FB64BB6EDB00FA68134493ED87
:10455800007A3B6DDB00FA681344D3ED007A77EEFE
:10456800277AC7ED127ABB6EDB00FA68134493ED25
:10457800007A3B6DDB00FA681344D3ED007A77EEDE
:10458800677AC7ED117ABB6EDB000433FA6813440F
:1045980093ED007A3B6DDB000433FA681344D3EDE6
:1045A800007A77EE277AC7ED107ABB6EDB0004330A
:1045B800FA68134493ED007A3B6DDB000433FA6824
:1045C8001344D3ED007A77EE677AC7ED0F7A7B6DE7
:1045D800DB00FA68134493ED007AFB6CDB00FA68A1
:1045E8001344D3ED007A77EE277AC7ED0E7ABB6EC7
:1045F800DB00FA68134497ED127AD7ED0E7A77EE5E
:10460800277AC3ED007A97ED127AD7ED0E7A77EE16
:10461800677AC7ED127A7B6DDB000433FA681344BE
:1046280093ED007AFB6CDB000433FA681344D3ED96
:10463800007A77EE277AC7ED0D7ABB6EDB0004337C
:10464800FA68134497ED107AD7ED0D7A77EE277A4A
:10465800C3ED007A97ED107AD7ED0D7A77EE677A89
:10466800C7ED107A7B6DDB000433FA68134493EDD1
:10467800007AFB6CDB000433FA681344D3ED007A4C
:1046880077EE677AC7ED0E7A7B6DDB00FA68134424
:1046980093ED007AFB6CDB00FA681344D3ED007AE3
:1046A80077EE677AC7ED0D7AFB6E5B003B633B6B79
:1046B800DB007A6813441B68FB623B6BDB00043346
:1046C8007A6813441B68BB6297ED127AD7ED0B7AB0
:1046D80027EE277AD7ED106AD7ED0A7A66EEA77A21
:1046E8007B6DDB00FA68134477EE277AC3ED007A16
:1046F80097ED107AD7ED0B7A27EE277AD7ED126A65
:10470800D7ED0A7A66EEA77A7B6DDB000433FA6888
:10471800134477EE677AC3ED007A97ED117AD7EDF7
:104728000E7A77EE277AC7ED127A97ED117AD7EDE0
:104738000E7A77EE677AC7ED117A97ED0F7AD7ED93
:104748000D7A77EE677AC7ED107A97ED0F7AD7ED85
:104758000D7A77EE277AC7ED0F7AFB6EDB007A6861
:1047680013441B687B62FB6EDB0004337A681344D6
:104778001B683B6297ED127AD7ED097A27EE277A04
:10478800D7ED106AD7ED087A66EEA77A3B6DDB00A5
:10479800FA68134477EE277AC3ED007A97ED107A1A
:1047A800D7ED097A27EE277AD7ED126AD7ED087A7E
:1047B80066EEA77A3B6DDB000433FA68134477EEA4
:1047C800677AC3ED007A3A6BFB6E1344FB61FB69B1
:1047D800DB007A6813441B68BB61FB69DB000433A8
:1047E8007A6813441B687B6197ED117AD7ED067AD6
:1047F80027EE277AD7ED0F6AD7ED057A66EEA77A06
:10480800FB6CDB00FA68134477EE277AC3ED007A75
:1048180097ED0F7AD7ED067A27EE277AD7ED116A4A
:10482800D7ED057A66EEA77AFB6CDB000433FA68ED
:10483800134477EE677AC3ED007A3B89FA6E134426
:10484800FB66BB6E0133BB663B6E013B3B663B6E52
:10485800002B7FF46CAE3B899B003B817B899B08D6
:104868009BB2FB65AEE17B6EBB657B6E9B087B668E
:104878000023FB6600233B6698E1FB6E5B003B630D
:104888003A6BFB6E1344FB61FB6EDB007A681344E2
:104898001B687B62FB6EDB0004337A6813441B6879
:1048A8003B623B6BDB007A6813441B68FB623B6B23
:1048B800DB0004337A6813441B68BB62FB69DB00C6
:1048C8007A6813441B68BB61FB69DB0004337A68B0
:1048D80013441B687B613B89FA6E1344FB663B6E8D
:1048E800BB665BE1BA6E7B6E13447B657A6D7B6E4B
:1048F80013443B653A6D7B6E1344FB64BB6EDB006F
:10490800FA68134493ED007A3B6DDB00FA681344B0
:10491800D3ED007A77EE277AC7ED127ABB6EDB000B
:10492800FA68134493ED007A3B6DDB00FA68134490
:10493800D3ED007A77EE677AC7ED117ABB6EDB00AC
:104948000433FA68134493ED007A3B6DDB000433BB
:10495800FA681344D3ED007A77EE277AC7ED107A18
:10496800BB6EDB000433FA68134493ED007A3B6DA9
:10497800DB000433FA681344D3ED007A77EE677AE4
:10498800C7ED0F7A7B6DDB00FA68134493ED007A6C
:10499800FB6CDB00FA681344D3ED007A77EE277AD4
:1049A800C7ED0E7ABB6EDB00FA68134497ED127AF6
:1049B800D7ED0E7A77EE277AC3ED007A97ED127A63
:1049C800D7ED0E7A77EE677AC7ED127A7B6DDB004A
:1049D8000433FA68134493ED007AFB6CDB0004336C
:1049E800FA681344D3ED007A77EE277AC7ED0D7A8B
:1049F800BB6EDB000433FA68134497ED107AD7EDE9
:104A08000D7A77EE277AC3ED007A97ED107AD7ED15
:104A18000D7A77EE677AC7ED107A7B6DDB00043389
:104A2800FA68134493ED007AFB6CDB000433FA68F0
:104A38001344D3ED007A77EE677AC7ED0E7A7B6D73
:104A4800DB00FA68134493ED007AFB6CDB00FA682C
:104A58001344D3ED007A77EE677AC7ED0D7A97EDB8
:104A6800127AD7ED0B7A27EE277AD7ED106AD7EDB1
:104A78000A7A66EEA77A7B6DDB00FA68134477EE54
:104A8800277AC3ED007A97ED107AD7ED0B7A27EEE7
:104A9800277AD7ED126AD7ED0A7A66EEA77A7B6D88
:104AA800DB000433FA68134477EE677AC3ED007AC3
:104AB80097ED117AD7ED0E7A77EE277AC7ED127A4D
:104AC80097ED117AD7ED0E7A77EE677AC7ED117AFE
:104AD80097ED0F7AD7ED0D7A77EE677AC7ED107AF2
:104AE80097ED0F7AD7ED0D7A77EE277AC7ED0F7A23
:104AF80097ED127AD7ED097A27EE277AD7ED106A63
:104B0800D7ED087A66EEA77A3B6DDB00FA681344A6
:104B180077EE277AC3ED007A97ED107AD7ED097A08
:104B280027EE277AD7ED126AD7ED087A66EEA77ACC
:104B38003B6DDB000433FA68134477EE677AC3ED04
:104B4800007A97ED117AD7ED067A27EE277AD7ED16
:104B58000F6AD7ED057A66EEA77AFB6CDB00FA6878
:104B6800134477EE277AC3ED007A97ED0F7AD7EDE5
:104B7800067A27EE277AD7ED116AD7ED057A66EE21
:104B8800A77AFB6CDB000433FA68134477EE677A84
:104B9800C3ED007ABA6EBB6D1344BB667B89BA6EEF
:104BA8009A42FFF49FAE3B6E01333B667B6E013B3E
:104BB8003A6E9A427FF661AE3B899B003B81FB6D62
:104BC8009B08FB65FB6D042B3FF64DAE7B6EBB650A
:104BD8007B6E9B087B660023BB6607E1BA6E7B6E23
:104BE80013447B657A6D7B6E13443B653A6D7B6E2F
:104BF8001344FB64BB6EDB00FA68134493ED007A40
:104C08003B6DDB00FA681344D3ED007A77EE277A20
:104C1800C7ED127ABB6EDB00FA68134493ED007A95
:104C28003B6DDB00FA681344D3ED007A77EE677AC0
:104C3800C7ED117ABB6EDB000433FA68134493EDB9
:104C4800007A3B6DDB000433FA681344D3ED007A35
:104C580077EE277AC7ED107ABB6EDB000433FA686B
:104C6800134493ED007A3B6DDB000433FA68134478
:104C7800D3ED007A77EE677AC7ED0F7A7B6DDB00AC
:104C8800FA68134493ED007AFB6CDB00FA6813446E
:104C9800D3ED007A77EE277AC7ED0E7ABB6EDB008C
:104CA800FA68134497ED127AD7ED0E7A77EE277AE1
:104CB800C3ED007A97ED127AD7ED0E7A77EE677A20
:104CC800C7ED127A7B6DDB000433FA68134493ED69
:104CD800007AFB6CDB000433FA681344D3ED007AE6
:104CE80077EE277AC7ED0D7ABB6EDB000433FA68DE
:104CF800134497ED107AD7ED0D7A77EE277AC3ED46
:104D0800007A97ED107AD7ED0D7A77EE677AC7EDCE
:104D1800107A7B6DDB000433FA68134493ED007A54
:104D2800FB6CDB000433FA681344D3ED007A77EEAA
:104D3800677AC7ED0E7A7B6DDB00FA68134493ED52
:104D4800007AFB6CDB00FA681344D3ED007A77EE47
:104D5800677AC7ED0D7A7B6DDB00FA681344BA6C8D
:104D68001A607B6DDB000433FA6813443A6C1A60EE
:104D780097ED117AD7ED0E7A77EE277AC7ED127A8A
:104D880097ED117AD7ED0E7A77EE677AC7ED117A3B
:104D980097ED0F7AD7ED0D7A77EE677AC7ED107A2F
:104DA80097ED0F7AD7ED0D7A77EE277AC7ED0F7A60
:104DB8003B6DDB00FA681344BA6C1A603B6DDB008C
:104DC8000433FA6813443A6C1A60FB6CDB00FA6827
:104DD80013447A6C1A60FB6CDB000433FA681344E2
:104DE800FA6B1A60BA6EBB6D1344BB667A89BB6DE9
:104DF800D31ABA6E9A427FF6F1AE00BF7437BD4639
:104E08005DF8047B704780B49DB000AFF8607A60AD
:104E18001A4687ED000A0B467B8113463B817B8946
:104E28007B667B6EBB657B6E9B087B660023BB66DF
:104E38000023FB667B6E3B66BA6E7B6E13447B6514
:104E48007A6D7B6E13443B653A6D7B6E1344FB644D
:104E5800BB6EDB00FA68134493ED007A3B6DDB0010
:104E6800FA681344D3ED007A77EE277AC7ED127A01
:104E7800BB6EDB00FA68134493ED007A3B6DDB00F0
:104E8800FA681344D3ED007A77EE677AC7ED117AA2
:104E9800BB6EDB000433FA68134493ED007A3B6D74
:104EA800DB000433FA681344D3ED007A77EE277AEF
:104EB800C7ED107ABB6EDB000433FA68134493ED38
:104EC800007A3B6DDB000433FA681344D3ED007AB3
:104ED80077EE677AC7ED0F7A7B6DDB00FA681344CB
:104EE80093ED007AFB6CDB00FA681344D3ED007A8B
:104EF80077EE277AC7ED0E7ABB6EDB00FA681344AB
:104F080097ED127AD7ED0E7A77EE277AC3ED007A0D
:104F180097ED127AD7ED0E7A77EE677AC7ED127AA7
:104F28007B6DDB000433FA68134493ED007AFB6C65
:104F3800DB000433FA681344D3ED007A77EE277A5E
:104F4800C7ED0D7ABB6EDB000433FA68134497EDA6
:104F5800107AD7ED0D7A77EE277AC3ED007A97EDC0
:104F6800107AD7ED0D7A77EE677AC7ED107A7B6DF8
:104F7800DB000433FA68134493ED007AFB6CDB0022
:104F88000433FA681344D3ED007A77EE677AC7EDF5
:104F98000E7A7B6DDB00FA68134493ED007AFB6CA4
:104FA800DB00FA681344D3ED007A77EE677AC7ED31
:104FB8000D7AFB6E5B003B633B6BDB007A68134446
:104FC8001B68FB623B6BDB0004337A6813441B6885
:104FD800BB6297ED127AD7ED0B7A27EE277AD7EDD9
:104FE800106AD7ED0A7A66EEA77A7B6DDB00FA685D
:104FF800134477EE677AC3ED007A97ED107AD7ED10
:105008000B7A27EE277AD7ED126AD7ED0A7A66EE81
:10501800A77A7B6DDB000433FA68134477EE277AAE
:10502800C3ED007A97ED117AD7ED0E7A77EE677AAD
:10503800C7ED127A97ED117AD7ED0E7A77EE277AC7
:10504800C7ED117A97ED0F7AD7ED0D7A77EE277ABB
:10505800C7ED107A97ED0F7AD7ED0D7A77EE677A6C
:10506800C7ED0F7AFB6EDB007A6813441B687B621E
:10507800FB6EDB0004337A6813441B683B6297EDD0
:10508800127AD7ED097A27EE277AD7ED106AD7ED8D
:10509800087A66EEA77A3B6DDB00FA68134477EE70
:1050A800677AC3ED007A97ED107AD7ED097A27EE83
:1050B800277AD7ED126AD7ED087A66EEA77A3B6DA4
:1050C800DB000433FA68134477EE277AC3ED007ADD
:1050D8003A6BFB6E1344FB61FB69DB007A6813448F
:1050E8001B68BB61FB69DB0004337A6813441B68E7
:1050F8007B6197ED117AD7ED067A27EE277AD7EDFF
:105108000F6AD7ED057A66EEA77AFB6CDB00FA68C2
:10511800134477EE677AC3ED007A97ED0F7AD7EDEF
:10512800067A27EE277AD7ED116AD7ED057A66EE6B
:10513800A77AFB6CDB000433FA68134477EE277A0E
:10514800C3ED007A3B89FA6E1344FB66BB6E0133EC
:10515800BB663B6E013B3B663B6E002B7FF46CAE3F
:105168003B899B003B817B899B089BB2FB65AEE139
:105178007B6EBB657B6E9B087B660023FB6600230A
:105188003B6698E1FB6E5B003B633A6BFB6E134436
:10519800FB61FB6EDB007A6813441B687B62FB6E65
:1051A800DB0004337A6813441B683B623B6BDB000B
:1051B8007A6813441B68FB623B6BDB0004337A6834
:1051C80013441B68BB62FB69DB007A6813441B68E5
:1051D800BB61FB69DB0004337A6813441B687B619D
:1051E8003B89FA6E1344FB663B6EBB665BE1BA6EA5
:1051F8007B6E13447B657A6D7B6E13443B653A6D19
:105208007B6E1344FB64BB6EDB00FA68134493EDBA
:10521800007A3B6DDB00FA681344D3ED007A77EE31
:10522800277AC7ED127ABB6EDB00FA68134493ED58
:10523800007A3B6DDB00FA681344D3ED007A77EE11
:10524800677AC7ED117ABB6EDB000433FA68134442
:1052580093ED007A3B6DDB000433FA681344D3ED19
:10526800007A77EE277AC7ED107ABB6EDB0004333D
:10527800FA68134493ED007A3B6DDB000433FA6857
:105288001344D3ED007A77EE677AC7ED0F7A7B6D1A
:10529800DB00FA68134493ED007AFB6CDB00FA68D4
:1052A8001344D3ED007A77EE277AC7ED0E7ABB6EFA
:1052B800DB00FA68134497ED127AD7ED0E7A77EE91
:1052C800277AC3ED007A97ED127AD7ED0E7A77EE4A
:1052D800677AC7ED127A7B6DDB000433FA681344F2
:1052E80093ED007AFB6CDB000433FA681344D3EDCA
:1052F800007A77EE277AC7ED0D7ABB6EDB000433B0
:10530800FA68134497ED107AD7ED0D7A77EE277A7D
:10531800C3ED007A97ED107AD7ED0D7A77EE677ABC
:10532800C7ED107A7B6DDB000433FA68134493ED04
:10533800007AFB6CDB000433FA681344D3ED007A7F
:1053480077EE677AC7ED0E7A7B6DDB00FA68134457
:1053580093ED007AFB6CDB00FA681344D3ED007A16
:1053680077EE677AC7ED0D7A97ED127AD7ED0B7A5B
:1053780027EE277AD7ED106AD7ED0A7A66EEA77A74
:105388007B6DDB00FA68134477EE677AC3ED007A29
:1053980097ED107AD7ED0B7A27EE277AD7ED126AB8
:1053A800D7ED0A7A66EEA77A7B6DDB000433FA68DC
:1053B800134477EE277AC3ED007A97ED117AD7ED8B
:1053C8000E7A77EE677AC7ED127A97ED117AD7EDF4
:1053D8000E7A77EE277AC7ED117A97ED0F7AD7ED27
:1053E8000D7A77EE277AC7ED107A97ED0F7AD7ED19
:1053F8000D7A77EE677AC7ED0F7A97ED127AD7EDC7
:10540800097A27EE277AD7ED106AD7ED087A66EE83
:10541800A77A3B6DDB00FA68134477EE677AC3ED31
:10542800007A97ED107AD7ED097A27EE277AD7ED2B
:10543800126AD7ED087A66EEA77A3B6DDB00043373
:10544800FA68134477EE277AC3ED007A97ED117A5C
:10545800D7ED067A27EE277AD7ED0F6AD7ED057ACA
:1054680066EEA77AFB6CDB00FA68134477EE677A7E
:10547800C3ED007A97ED0F7AD7ED067A27EE277AF3
:10548800D7ED116AD7ED057A66EEA77AFB6CDB00DB
:105498000433FA68134477EE277AC3ED007ABA6EBC
:1054A800BB6D1344BB667B89BA6E9A42FFF49FAE0C
:1054B8003B6E01333B667B6E013B3A6E9A427FF648
:1054C80061AE3B899B003B81FB6D9B08FB65FB6DD7
:1054D800042B3FF64DAE7B6EBB657B6E9B087B66EF
:1054E8000023BB6633E1BA6E7B6E13447B657A6D2D
:1054F8007B6E13443B653A6D7B6E1344FB64BB6E55
:10550800DB00FA68134493ED007A3B6DDB00FA6820
:105518001344D3ED007A77EE277AC7ED127ABB6E83
:10552800DB00FA68134493ED007A3B6DDB00FA6800
:105538001344D3ED007A77EE677AC7ED117ABB6E24
:10554800DB000433FA68134493ED007A3B6DDB000B
:105558000433FA681344D3ED007A77EE277AC7ED5F
:10556800107ABB6EDB000433FA68134493ED007ABB
:105578003B6DDB000433FA681344D3ED007A77EE11
:10558800677AC7ED0F7A7B6DDB00FA68134493EDF9
:10559800007AFB6CDB00FA681344D3ED007A77EEEF
:1055A800277AC7ED0E7A97ED127AD7ED0E7A37EE95
:1055B800277ABB6EDB00FA681344D7ED007A67EEF2
:1055C800277AC3ED007A97ED127AD7ED0E7A77EE47
:1055D800677AC7ED127A7B6DDB000433FA681344EF
:1055E80093ED007AFB6CDB000433FA681344D3EDC7
:1055F800007A77EE277AC7ED0D7A97ED107AD7ED16
:105608000D7A37EE277ABB6EDB000433FA68134451
:10561800D7ED007A67EE277AC3ED007A97ED107A16
:10562800D7ED0D7A77EE677AC7ED107A7B6DDB00E0
:105638000433FA68134493ED007AFB6CDB000433FF
:10564800FA681344D3ED007A77EE677AC7ED0E7ADD
:105658007B6DDB00FA68134493ED007AFB6CDB008A
:10566800FA681344D3ED007A77EE677AC7ED0D7ABE
:105678007B6DDB00FA68134497ED127AD7ED007A58
:1056880067EE277AC3ED007A7B6DDB000433FA6896
:10569800134497ED107AD7ED007A67EE277AC3EDB9
:1056A800007A97ED117AD7ED0E7A77EE677AC7ED23
:1056B800127A97ED117AD7ED0E7A77EE277AC7ED41
:1056C800117A97ED0F7AD7ED0D7A77EE277AC7ED35
:1056D800107A97ED0F7AD7ED0D7A77EE677AC7EDE6
:1056E8000F7A3B6DDB00FA68134497ED127AD7ED19
:1056F800007A67EE277AC3ED007A3B6DDB0004334E
:10570800FA68134497ED107AD7ED007A67EE277A96
:10571800C3ED007AFB6CDB00FA68134497ED117A4D
:10572800D7ED007A67EE277AC3ED007AFB6CDB00D1
:105738000433FA68134497ED0F7AD7ED007A67EED1
:10574800277AC3ED007ABA6EBB6D1344BB667A89BB
:10575800BB6DD31ABA6E9A427FF6C5AE00BF7437D6
:10576800BD465DF8047B704780B489B000AFF8602F
:105778007B600B467B8113463B810023BB837B897F
:105788005B087B837B895B089BB201333B830023E7
:10579800FB83BAE0FA8BBB8B9A426FD2FB8BDB00A0
:1057A800FA6813441B687B61BB8BDB00FA681A44F8
:1057B800FB8BDB00F9680B4412681A60BB8BDB00BB
:1057C800FA6813447A691A60FB8BDB000433FA68C1
:1057D80013441B687B61BB8BDB000433FA681A44F3
:1057E800FB8BDB000433F9680B4412681A60BB8B2F
:1057F800DB000433FA6813447A691A60FA8B3B8B2E
:105808001344DB00FA6813441B687B61BA8B3B8B3B
:105818001344DB00FA681A44F98B3B8B0B44DB001A
:10582800F9680B4412681A60BA8B3B8B1344DB008F
:10583800FA6813447A691A60FA8B3B8B1344DB00CD
:105848000433FA6813441B687B61BA8B3B8B13449F
:10585800DB000433FA681A44F98B3B8B0B44DB00FA
:105868000433F9680B4412681A60BA8B3B8B1344F3
:10587800DB000433FA6813447A691A60FB8B01333E
:10588800DB00FA6813441B687B61BA8B7B8B13447B
:10589800DB00FA681A44FB8B0133DB00F9680B4420
:1058A80012681A60BA8B7B8B1344DB00FA681344C6
:1058B8007A691A60FB8B0133DB000433FA681344FE
:1058C8001B687B61BA8B7B8B1344DB000433FA685B
:1058D8001A44FB8B0133DB000433F9680B4412686C
:1058E8001A60BA8B7B8B1344DB000433FA681344C9
:1058F8007A691A607B681B88BB833B895B007A687E
:1059080013447B60FB8B0233FB83FA8B7B8B023B5C
:105918009A427FF63FAF00BF2437BD465DF8047B4F
:10592800704780B582B000AF87ED010A3860D7EDC7
:10593800017AF5EEC07AF1EE10FA0ADB97ED010A6A
:1059480000F0BCFEF0EE407A3B68C3ED007A00231D
:1059580005E03B684FF000021A604FF0FF3318462D
:105968000837BD4680BD80B588B000AFF860B96023
:105978007A607B689B08FB6182E0FB681A1DFA600D
:105988001B68BB61FB681A1DFA601B687B6197ED99
:10599800067AD7ED067A27EE277AD7ED056AD7ED8E
:1059A800057A66EEA77A77EE277ABB681A1DBA6081
:1059B8001846B0EE670AFFF7B4FFFB681A1DFA60D5
:1059C8001B68BB61FB681A1DFA601B687B6197ED59
:1059D800067AD7ED067A27EE277AD7ED056AD7ED4E
:1059E800057A66EEA77A77EE277ABB681A1DBA6041
:1059F8001846B0EE670AFFF794FFFB681A1DFA60B5
:105A08001B68BB61FB681A1DFA601B687B6197ED18
:105A1800067AD7ED067A27EE277AD7ED056AD7ED0D
:105A2800057A66EEA77A77EE277ABB681A1DBA6000
:105A38001846B0EE670AFFF774FFFB681A1DFA6094
:105A48001B68BB61FB681A1DFA601B687B6197EDD8
:105A5800067AD7ED067A27EE277AD7ED056AD7EDCD
:105A6800057A66EEA77A77EE277ABB681A1DBA60C0
:105A78001846B0EE670AFFF754FFFB69013BFB616C
:105A8800FB69002B7FF479AF7B6803F00303FB61AC
:105A980022E0FB681A1DFA601B68BB61FB681A1DCF
:105AA800FA601B687B6197ED067AD7ED067A27EED8
:105AB800277AD7ED056AD7ED057A66EEA77A77EEED
:105AC800277ABB681A1DBA601846B0EE670AFFF756
