:020000040800F2
:1000000000000220992B0008252B0008272B000850
:10001000292B00082B2B00082D2B000800000000C6
:100020000000000000000000000000002F2B00086E
:10003000312B000800000000332B0008352B00088E
:10004000E92B0008E92B0008E92B0008E92B000840
:10005000E92B0008E92B0008E92B0008E92B000830
:10006000E92B0008E92B0008E92B0008E92B000820
:10007000E92B0008E92B0008E92B0008E92B000810
:100080003D2B0008E92B0008E92B0008E92B0008AC
:10009000E92B0008E92B0008E92B0008E92B0008F0
:1000A000E92B0008E92B0008E92B0008E92B0008E0
:1000B000E92B0008E92B0008E92B0008E92B0008D0
:1000C000E92B0008E92B0008E92B0008E92B0008C0
:1000D000E92B0008E92B0008E92B0008E92B0008B0
:1000E000E92B0008E92B0008E92B0008E92B0008A0
:1000F000E92B0008E92B0008E92B0008E92B000890
:10010000E92B0008E92B0008E92B0008E92B00087F
:10011000E92B0008E92B0008E92B0008E92B00086F
:10012000E92B0008E92B0008E92B0008E92B00085F
:10013000E92B0008E92B0008E92B0008E92B00084F
:10014000E92B0008E92B0008E92B0008E92B00083F
:10015000E92B0008E92B0008E92B0008E92B00082F
:10016000E92B0008E92B0008E92B0008E92B00081F
:10017000E92B0008E92B0008E92B0008000000002B
:08018000E92B0008E92B00083F
:1001880010B5054C237833B9044B13B10448AFF3C9
:1001980000800123237010BDB8D5002000000000A6
:1001A8005C2C000808B5034B1BB103490348AFF3A7
:1001B800008008BD00000000BCD500205C2C0008B1
:1001C80053B94AB9002908BF00281CBF4FF0FF31B6
:1001D8004FF0FF3000F072B9ADF1080C6DE904CEB4
:1001E80000F006F8DDF804E0DDE9022304B070470A
:1001F8002DE9F047089E04468846002B4BD18A42D9
:10020800154667D9B2FA82F24AB1C2F1200701FA5B
:1002180002F320FA07F7954047EA030894404FEAAB
:10022800154E230CB8FBFEF71FFA85FC0EFB17884A
:1002380043EA084307FB0CF1994209D9EB1807F187
:10024800FF3080F01B81994240F21881023F2B4415
:100258005B1AA4B2B3FBFEF00EFB103344EA03446E
:1002680000FB0CFCA44509D92C1900F1FF3380F0E0
:100278000781A44540F2048102382C4440EA074033
:10028800A4EB0C0400271EB1D4400023C6E90043A8
:100298003946BDE8F0878B4209D9002E00F0EB8083
:1002A8000027C6E9000138463946BDE8F087B3FAA9
:1002B80083F7002F47D18B4202D3824200F2FA80A3
:1002C800841A61EB030301209846002EE0D0C6E9AA
:1002D8000048DDE702B9FFDEB2FA82F2002A40F0F8
:1002E8008F80491B4FEA154E1FFA85F80127B1FB8D
:1002F800FEFC230C0EFB1C1143EA014308FB0CF126
:10030800994207D9EB180CF1FF3002D2994200F25A
:10031800CD808446591AA3B2B1FBFEF00EFB10142F
:1003280043EA044408FB00F8A04507D92C1900F15A
:10033800FF3302D2A04500F2B6801846A4EB0804A9
:1003480040EA0C409FE7C7F1200CBB4022FA0CFEA4
:100358004EEA030E01FA07F420FA0CF521FA0CF321
:100368004FEA1E482543B3FBF8F92C0C08FB193358
:100378001FFA8EFA44EA034309FB0AF49C4202FA84
:1003880007F200FA07F10BD91EEB030309F1FF305E
:1003980080F087809C4240F28480A9F1020973446E
:1003A8001B1BADB2B3FBF8F008FB103345EA03445E
:1003B80000FB0AFAA24508D91EEB040400F1FF333A
:1003C8006BD2A24569D90238744440EA0940A0FBBF
:1003D8000289A4EB0A044C45C2464B4654D351D07B
:1003E800002E69D0B1EB0A0564EB030404FA0CFC97
:1003F800FD40FC404CEA0505C6E90054002747E7E4
:10040800C2F1200320FA03F7954001FA02F021FA1D
:1004180003F34FEA154E3843010CB3FBFEF71FFAFE
:1004280085F80EFB173341EA034107FB08F38B42BB
:1004380004FA02F407D9691807F1FF3C2FD28B425E
:100448002DD9023F2944CB1A81B2B3FBFEF00EFB33
:10045800103341EA034100FB08F38B4207D96918BE
:1004680000F1FF3C17D28B4215D902382944C91A2A
:1004780040EA07473BE73746304609E70746E7E6DD
:100488001846FBE64145ABD2B8EB020A69EB0E020F
:1004980001381346A4E76046E9E7184695E767463A
:1004A800D1E781467CE702382C4447E7ACF1020CDF
:1004B8002B442FE7384608E73746E9E6704700BF80
:1004C80010B504460E4B18784FF47A73B3FBF0F36B
:1004D8000C4A1068B0FBF3F000F094F868B90F2CE0
:1004E80001D901200AE0002221464FF0FF3000F038
:1004F80049F8034B5C60002000E0012010BD00BFFC
:1005080000000020B4D5002008B50B4B1A6842F44F
:1005180000721A601A6842F480621A601A6842F41B
:1005280080721A60032000F01BF80020FFF7C8FF54
:1005380002F026FA002008BD003C0240034A116878
:10054800034B1B780B441360704700BF2CD6002068
:1005580000000020014B1868704700BF2CD600200F
:10056800074AD36823F4E0631B041B0C000200F461
:10057800E060184340F0BF6040F40030D06070473E
:1005880000ED00E030B4174BDB68C3F30223C3F17E
:100598000704042C28BF04241D1D062D18D9033B6D
:1005A8004FF0FF3505FA04F421EA0401994005FAF1
:1005B80003F322EA0303194300280BDB0901C9B23C
:1005C80000F1604000F5614080F8001330BC7047CE
:1005D8000023E5E700F00F000901C9B2024B1954E6
:1005E800F4E700BF00ED00E014ED00E000F01F02AA
:1005F800400901239340024A42F82030704700BF67
:1006080000E100E00138B0F1807F0AD2064B586063
:10061800064AF02182F823100020986007221A6009
:1006280070470120704700BF10E000E000ED00E0D7
:1006380030B405682C6824F480242C600468636056
:100648008368402B05D0036899600368DA6030BC82
:10065800704703689A600368D960F8E70268D3B204
:10066800103B0B49A1FB03131B090A49C95CC1656F
:10067800032B06D822F47F7222F003028265806D74
:10068800704722F47F7222F0030204328265F6E793
:10069800ABAAAAAA742C0008836A826992B9012BB2
:1006A8000AD01BB1022B01D000207047C36A13F097
:1006B800807F2CD100207047C36AB3F1C07F28D057
:1006C80000207047B2F5005F05D0022B29D9032B13
:1006D80015D000207047032B03D8DFE803F01C0473
:1006E8001C0A00207047C36A13F0807F15D10020D0
:1006F8007047C36AB3F1C07F11D000207047C36A46
:1007080013F0807F01D0012070470020704701203E
:100718007047012070470120704701207047012071
:10072800704701207047000070B50446FFF712FFBC
:10073800002C5BD00546002384F83430022384F86B
:1007480035302268136823F00103136023681A68A0
:1007580012F0010F0AD0FFF7FDFE401B0528F5D95E
:1007680020236365032084F8350070BD1A6820488B
:1007780010406168A2680A43E1680A4321690A4394
:1007880061690A43A1690A43E1690A43216A0A4384
:100798000243616A04291ED01A602668756925F02B
:1007A8000705636A1D43042B07D1A36A1D43E36A47
:1007B8001BB12046FFF770FF90B975612046FFF71F
:1007C8004DFFE26D3F239340836000206065012365
:1007D80084F83530C9E7E16A206B01430A43DBE757
:1007E80040236365012084F83500BEE70120BCE79B
:1007F8003F8010F038B5856D90F83440012C31D029
:10080800012480F8344090F83540E4B2012C04D03B
:10081800002380F83430022038BD0446022084F8D2
:100828003500002060652046FFF702FFE26D3F2398
:100838009340AB602268136843F016031360226884
:10084800536943F080035361236C23B12268136812
:1008580043F0080313602268136843F00103136030
:100868000020D9E70220D7E7F0B583B0044600237B
:100878000193724B1D68724BA3FB0535AD0A876D5A
:100888003E68C26D08239340334210D003681A684B
:1008980012F0040F0BD01A6822F004021A60C26D1D
:1008A80008239340BB60436D43F001034365E26D49
:1008B80001239340334209D02268526912F0800F15
:1008C80004D0BB60636D43F002036365E26D0423EB
:1008D8009340334209D02268126812F0020F04D004
:1008E800BB60636D43F004036365E26D10239340BE
:1008F800334224D02268126812F0080F1FD0BB6060
:1009080023681A6812F4802F0DD01B6813F4002F87
:1009180004D1236C9BB12046984710E0A36C73B1B7
:10092800204698470BE01A6812F4807F03D11A68B2
:1009380022F008021A60236C0BB120469847E26D3A
:1009480020239340334255D02268126812F0100FCA
:1009580050D0BB6094F83530DBB2052B0ED023683D
:100968001A6812F4802F33D01B6813F4002F2AD191
:10097800636C002B3ED0204698473BE02268136802
:1009880023F0160313602268536923F08003536130
:10099800236CA3B12268136823F008031360E26D87
:1009A8003F239340BB60002384F83430012384F84C
:1009B8003530236D002B3FD0204698473CE0A36C90
:1009C800002BE7D1EBE7E36BA3B12046984711E092
:1009D8001A6812F4807F09D11A6822F010021A608E
:1009E800002384F83430012384F83530E36B0BB1ED
:1009F80020469847636DFBB1636D13F0010F17D064
:100A0800052384F835302268136823F00103136046
:100A1800019B01330193AB4204D823681B6813F090
:100A2800010FF5D1002384F83430012384F83530E0
:100A3800E36C0BB12046984703B0F0BDB4D5002055
:100A4800B5814E1B00230F2B00F2D780F0B482B083
:100A580039E0072200E00022B2403A430234674EF0
:100A680046F82420664A1468EA4302EA04064F68F6
:100A780017F4803F01D045EA0406614C266064689B
:100A880002EA04064F6817F4003F01D045EA04065D
:100A98005B4C6660A46802EA04064F6817F4801F7E
:100AA80001D045EA0406564CA660E46822404E6828
:100AB80016F4001F01D045EA0402514CE2600133EC
:100AC8000F2B00F2978001229A400C6804EA020575
:100AD800AA42F4D14C68022C01D0122C10D1DE08A5
:100AE800083650F826C003F00704A7000F24BC40BE
:100AF8002CEA040C0C69BC4044EA0C0440F826407B
:100B080004685F000326BE40F64306EA040C4C68FE
:100B180004F00304BC4044EA0C0404604C6804F18B
:100B2800FF3CBCF1010F03D9112C01D0122C10D1BC
:100B3800846806EA040CCC68BC4044EA0C0484606F
:100B4800446824EA02024C68C4F300149C4014432D
:100B58004460C26816408A68BA403243C2604A6834
:100B680012F0805FABD000220192264A546C44F404
:100B780080445464526C02F480420192019A9C08A9
:100B8800A61C1E4A52F8267003F0030296000F2294
:100B9800B24027EA02071C4A90423FF45CAF02F5D4
:100BA800806290421AD002F58062904218D002F515
:100BB8008062904216D002F58062904214D002F50D
:100BC8008062904212D002F58062904210D002F505
:100BD800806290423FF43DAF08223DE701223BE7A7
:100BE800022239E7032237E7042235E7052233E7F3
:100BF800062231E702B0F0BC704770470038014068
:100C0800003C0140003802400000024012B90904CB
:100C1800816170478161704703685A6912F4806F77
:100C28000DD06FF480625A610423036400230363C8
:100C3800202280F83D2080F83C30012070470020B9
:100C48007047F8B506460C4617461D461EE02DB1FE
:100C5800FFF780FC069BC01AA84217D9002333630C
:100C6800202286F83D2086F83E3086F83C30032066
:100C78001AE033685B6924EA03039BB2B3FA83F38F
:100C88005B099F420FD1B5F1FF3FE0D1C4F30743A1
:100C9800012BEED033689B6924EA03039BB2B3FAB5
:100CA80083F35B09EDE70020F8BDF8B504460D466F
:100CB80016461F4632E01A6842F400721A6023682A
:100CC8006FF480625A610423236400232363202283
:100CD80084F83D2084F83C3001202DE026B1FFF750
:100CE80039FCC01BB04219D900232363202284F8A1
:100CF8003D2084F83C3003201EE023685B6925EA28
:100D080003039BB2003318BF0123A3B123685A69B8
:100D180012F4806FCFD1B6F1FF3FDFD1C5F307439F
:100D2800012BEAD023689B6925EA03039BB20033B1
:100D380018BF0123E9E70020F8BD0000F0B583B033
:100D480004460D4616461F46C36A042B0DD0012BD8
:100D58000BD013F5803F08D0036B122B0AD1026821
:100D6800136843F48073136004E02268136843F443
:100D7800807313600097334600224FF0011120461C
:100D8800FFF75FFF58BB2369B3F5804F10D1236885
:100D980005F0FE051D613B46324615492046FFF722
:100DA80084FF0346E0B1236C042B1ED1012317E016
:100DB800EB11226803F0060343F0F00313613B468E
:100DC80032460C492046FFF770FF20B1236C042BF4
:100DD80009D1012304E02368EDB21D61DBE7032399
:100DE800184603B0F0BD0323FAE70323F8E700BF72
:100DF80002000100080001002DE9F04184B004461A
:100E08000D4616461F46C26A01680B6843F48063A4
:100E18000B60042A0DD0012A0BD012F5803F08D0B0
:100E2800036B112B0AD10268136843F480731360B3
:100E380004E02268136843F4807313600097334614
:100E480000224FF001112046FFF7FBFE002852D187
:100E58002369B3F5804F12D1236845F00105EDB23F
:100E68001D613B4632462A492046FFF71EFF0346CE
:100E7800002841D0236C042B48D101233CE04FEAE1
:100E8800E51808F00608236848F0F0021A613B46A6
:100E9800324620492046FFF708FF20B1236C042B77
:100EA8002ED1012328E02368EDB21D613B4632466E
:100EB80017492046FFF7F9FE20B1236C042B21D1F6
:100EC800012319E000220392236859690391996963
:100ED80003910399196841F48071196000973346AA
:100EE8004FF001112046FFF7ACFE68B9226848F0C0
:100EF800F1031361B5E70323184604B0BDE8F08198
:100F08000323F9E70323F7E70323F5E70323F3E7CD
:100F1800020001000800010070B504460D4616469F
:100F280023685B6913F0800F19D12046FFF774FE20
:100F3800B8B9B5F1FF3FF3D025B1FFF70BFB801B24
:100F4800A842EDD9236C43F02003236400232363D4
:100F5800202284F83D2084F83C30032000E0002063
:100F680070BD0120FCE770B504460D46164623689F
:100F78005B6913F0040F19D12046FFF74DFEB8B98D
:100F8800B5F1FF3FF3D025B1FFF7E4FA801BA84283
:100F9800EDD9236C43F0200323640023236320222C
:100FA80084F83D2084F83C30032000E0002070BD28
:100FB8000120FCE770B505460C4616462B685A69B1
:100FC80012F0400F22D15A6912F0100F11D124B13A
:100FD800FFF7C0FA801BA042F0D92B6C43F0200326
:100FE8002B64202385F83D30002385F83C3003200E
:100FF80070BD6FF010025A6100232B642B6320220E
:1010080085F83D2085F83C300120F1E70020EFE726
:10101800002800F0828010B5044690F83D30002B7F
:1010280041D0242384F83D302268136823F001035B
:10103800136001F03FF93A4BA3FB00239B0C226895
:1010480053606168374A914232D80133226813628B
:101058006368344A934235D85B00B0FBF3F0C0F3C1
:101068000B03032B00D804202368D861E369216AA5
:1010780022680B4313602369E16822680B4393607D
:101088006369A16922680B43D3602268136843F03F
:101098000103136000202064202384F83D3020637E
:1010A80084F83E0010BD80F83C3001F089FCB8E7B8
:1010B8004FF4967202FB03F31B4AA2FB03239B091E
:1010C8000133C3E7A16889B903EB4302B0FBF2F22D
:1010D800C2F30B02B2FA82F25209E2B991B903EBF8
:1010E8004303B0FBF3F040F40040BDE703EB830299
:1010F80002EB8202B0FBF2F2C2F30B02B2FA82F206
:101108005209EAE703EB830303EB8303B0FBF3F035
:1011180040F44040A8E70120A6E70120704700BF3F
:1011280083DE1B43A0860100D34D62102DE9F041F8
:1011380084B004460E4690461F46FFF70BFA94F813
:101148003D30DBB2202B04D00226304604B0BDE887
:10115800F081054600901923012254492046FFF7E3
:1011680070FD002840F0998094F83C30012B00F085
:101178009680012384F83C3023681A6812F0010F26
:1011880003D11A6842F001021A602268136823F436
:1011980000631360212384F83D30102384F83E3027
:1011A80000232364C4F824806785A3F58033E362B1
:1011B800638D23852B460A9A31462046FFF7BEFDEC
:1011C800064660B1236C042B04D1002384F83C301C
:1011D8000126BAE7002384F83C300326B5E700234C
:1011E800039323685A6903929B690393039B10E056
:1011F800236C042B55D12268136843F400731360E1
:101208000126A2E72A460A992046FFF7ACFE0028E5
:101218002BD1238D002B32D02A460A992046FFF77E
:101228007BFE0028E4D1636A5A1C626222681B783C
:101238001361638D013B9BB26385238D013B9BB298
:1012480023852268516911F0040FDBD0002BD9D017
:10125800636A591C61621B781361638D013B9BB201
:101268006385238D013B2385CCE7236C042B1AD19E
:101278002268136843F400731360012665E7226847
:10128800136843F400731360202384F83D3000236F
:1012980084F83E3084F83C3057E7022655E70226AA
:1012A80053E7032651E703264FE700BF020010006B
:1012B8002DE9F04186B004460E4690461F46FFF7DA
:1012C80049F994F83D30DBB2202B04D00226304691
:1012D80006B0BDE8F08105460090192301228C492B
:1012E8002046FFF7AEFC002840F04B8194F83C30D4
:1012F800012B00F04881012384F83C3023681A68E8
:1013080012F0010F03D11A6842F001021A60226834
:10131800136823F400631360222384F83D301023FC
:1013280084F83E3000232364C4F824806785A3F53D
:101338008033E362638D23852B460C9A3146204621
:10134800FFF75AFD064660B1236C042B04D1002335
:1013580084F83C300126BAE7002384F83C300326A1
:10136800B5E7238D5BB9029323685A6902929A699B
:101378000292029A1A6842F400721A607AE0012B0B
:101388000FD0022B1FD02268136843F480631360C8
:101398000023059323685A6905929B690593059B69
:1013A80068E02268136823F48063136000230393C2
:1013B80023685A6903929A690392039A1A6842F455
:1013C80000721A6056E02268136823F48063136081
:1013D8002268136843F400631360002304932368AE
:1013E8005A6904929B690493049B43E02A460C992A
:1013F8002046FFF7DFFD68B923681A69636A591C3C
:1014080061621A70238D013B2385638D013B9BB27A
:1014180063852FE0236C202B01D0012657E7032694
:1014280055E700950C9B00223A492046FFF709FC36
:10143800002840F0AA802268136843F40073136000
:1014480023681A69636A591C61621A70238D013B0B
:101458002385638D013B9BB2638523681A69636AA0
:10146800591C61621A70238D013B2385638D013BF2
:101478009BB26385238D002B7AD0032B4CD8012B8C
:10148800B4D0022BCDD000950C9B002221492046D8
:10149800FFF7D7FB00287AD12268136823F480630A
:1014A800136023681A69636A591C61621A70238D74
:1014B800013B2385638D013B9BB2638500950C9BA3
:1014C800002214492046FFF7BCFB002861D122689E
:1014D800136843F40073136023681A69636A591C1C
:1014E80061621A70238D013B2385638D013B9BB29A
:1014F800638523681A69636A591C61621A70238DAF
:10150800013B2385638D013B9BB26385B2E700BF36
:1015180002001000040001002A460C992046FFF73B
:1015280049FDF0B923681A69636A591C61621A7027
:10153800238D013B2385638D013B9BB26385236823
:101548005A6912F0040F95D01A69636A591C6162CE
:101558001A70238D013B2385638D013B9BB2638504
:1015680088E7236C202B01D00126B0E60326AEE6DF
:10157800202384F83D30002384F83E3084F83C3042
:10158800A5E60226A3E60226A1E603269FE6032691
:101598009DE603269BE600BF00294CD010B50C46FB
:1015A800002A4AD090F84130DBB2012B47D1416282
:1015B8000368DB6903F00703032B04D0052B02D073
:1015C8000285428503E0520092B20285428590F876
:1015D8004030DBB2012B34D021460446012380F889
:1015E800403000234364032380F84130836B164A5C
:1015F8001A64836B154ADA63836B154ADA640268E6
:10160800038D0C32806BFFF7F5F82368DA6912F462
:10161800806F03D1DA6942F48062DA6123685A681C
:1016280012F0020F03D15A6842F002025A600020F9
:1016380084F8400002E001207047012010BD02201C
:10164800FCE70220FAE700BF5F160008A3160008AF
:1016580075190008704708B5806BFFF7FBFF08BDD8
:10166800704708B5436A9A1C426202681B88D360B7
:10167800438D013B9BB24385438D9BB203B108BDAB
:101688000268536823F0A0031B041B0C536001235A
:1016980080F84130FFF7E4FFF1E708B5836B026893
:1016A800126812F4807F09D119684A6822F0020290
:1016B8004A6000225A85012283F841201846FFF724
:1016C800CFFF08BD704708B50368DA68C36A991C7C
:1016D800C1621A80438E013B9BB24386438E9BB204
:1016E80003B108BD0268536823F060031B041B0C98
:1016F8005360012380F84130FFF7E4FFF1E77047BA
:10170800002800F0BB8070B50446022580F84150DF
:101718005B4B436301F08EF92268D36923F47B6342
:1017280023F00F03D36123681D622368DD696369B1
:10173800022B5BD0E368002B3ED02026A368202B29
:1017480000D87600012000F06FFE2369B3F5007F12
:1017580034D0B0FBF6F000EB800043006269B3FBC5
:10176800F2F30533474AA2FB0323DB0803F0010227
:101778009B1AC3F34F0311029A1EFD2A38D8226917
:101788000A43216813430B626268A168E068238BEF
:1017980003439BB20B439BB213439BB243F40063D6
:1017A8001D432368DD61236A012B2AD00020606471
:1017B800012384F8413070BD1026BFE7E36853B1B8
:1017C800B600B0FBF6F000EB800043006269B3FBA3
:1017D800F2F30533C6E7F600B0FBF6F000EB800045
:1017E80043006269B3FBF2F30533BBE70021C3E7AB
:1017F800636C43F0100363642046FFF780FF012009
:10180800D9E7214B63632268204B9A421ED04FF0E0
:101818004022D36923F47B6323F00F03D36122684A
:101828001A4B9A4214D04FF0402302221A622268BF
:10183800164B9A420FD04FF04022D0696168B1F53B
:10184800007F0AD0C1B94FF4807608E0104AE0E77B
:10185800A3F58063E9E70E4AEFE74FF48076A168C5
:10186800E568238B2B439BB20B439BB2334343F472
:1018780000630343D36199E70026F0E7012070472E
:101888009D180008CDCCCCCCE11A000800380040E7
:101898000034004010B584B004460268936803938E
:1018A80090F84130DBB2042B06D094F84130DBB21B
:1018B800032B2ED004B010BD039B13F0010F03D0EF
:1018C800536813F0400F21D1039B13F0400FECD065
:1018D80023685A6812F0200FE7D05A6822F0600295
:1018E8001204120C5A60002301932368DA680192EB
:1018F8009B680193019B012384F84130636C43F09A
:10190800020363642046FFF7FAFECEE7FFF7DBFE2B
:10191800DAE7039B13F0020F04D023685B6813F027
:10192800800F1FD1039B13F0080FC3D023685A6898
:1019380012F0200FBED05A6822F0A0021204120C36
:101948005A600023029323689B680293029B012339
:1019580084F84130636C43F0040363642046FFF766
:10196800CEFEA7E72046FFF77CFEDBE708B5806BD5
:101978000268536823F003035360002343854386BA
:10198800012380F84130436C43F008034364FFF7B8
:10199800B6FE08BD7047000008B5E9B9436A9A1C4D
:1019A800426202681B88D360438D013B9BB243852A
:1019B800438D9BB24BB90268536823F0A0031B0404
:1019C8001B0C5360438E9BB203B108BD012380F802
:1019D8004130FFF7DFFFF8E7436A9A1C42621A8832
:1019E8000168134B99421ED04FF04023DA60438DB3
:1019F800013B9BB24385438D9BB2002BE5D1026826
:101A08000B4B9A4212D04FF04022536823F0A003A8
:101A18005360438E9BB2002BD7D1012380F841300D
:101A2800FFF7B8FFD1E7A3F58063DFE7014AECE7EA
:101A3800003800400034004008B5E9B90368DA68A6
:101A4800C36A991CC1621A80438E013B9BB24386CC
:101A5800438E9BB24BB90268536823F060031B04A2
:101A68001B0C5360438D9BB203B108BD012380F862
:101A78004130FFF78FFFF8E70268154B9A4222D0F2
:101A88004FF04023DA68C36A991CC1621A80438EFA
:101A9800013B9BB24386438E9BB2002BE5D1026883
:101AA8000B4B9A4212D04FF04022536823F0600348
:101AB8005360438D9BB2002BD7D1012380F841306E
:101AC800FFF768FFD1E7A3F58063DBE7014AECE79E
:101AD800003800400034004010B584B00446036864
:101AE8009A6803927C4A93425DD04FF040218A68FD
:101AF8000292DA6902F44072B2F5007F04D0DA6922
:101B080012F4407F40F08180039A12F0020F03D054
:101B18005B6813F0800F48D1029B13F0010F09D0C6
:101B280022686D4B9A4245D04FF040235B6813F012
:101B3800400F42D1029B13F0400F09D02268664B38
:101B48009A423FD04FF040235A6812F0200F3CD100
:101B5800039B13F0080F24D023685A6812F0200F53
:101B68001FD05A6822F0A0021204120C5A60226890
:101B7800594B9A4247D04FF04022536823F06003F4
:101B880053600023019323689B680193019B012301
:101B980084F84130636C43F0040363642046FFF724
:101BA800AEFD04B010BD4D49A1E700212046FFF766
:101BB800F3FEB1E7A3F58063B8E701212046FFF7FC
:101BC8003BFFB7E7A3F58063BEE75A6822F06002DF
:101BD8005A602268536823F0A0031B041B0C53604F
:101BE800002300932368DA6800929B680093009BA7
:101BF800012384F84130636C43F002036364204698
:101C0800FFF77DFDA4E7354AB7E7029B13F0020F03
:101C180003D04B6813F0800F4FD1039B13F0010FD3
:101C280004D023685B6813F0400F4BD1039B13F07B
:101C3800400F1ED023685A6812F0200F19D05A6836
:101C480022F060021204120C5A602268224B9A4257
:101C58003DD04FF04022536823F0A0035360012386
:101C680084F84130636C43F0020363642046FFF755
:101C780046FD029B13F0080F93D02268164B9A4238
:101C880027D04FF040235A6812F0200F89D05A68A5
:101C980022F0A0025A602268536823F060031B04F4
:101CA8001B0C5360012384F84130636C43F0040338
:101CB80063642046FFF723FD73E701212046FFF701
:101CC8006BFEAAE700212046FFF7B6FEAEE7034AFF
:101CD800C1E7A3F58063D6E7003800400034004030
:101CE800002800F0BB8170B582B00446036813F089
:101CF800010F3BD0A74B9B6803F00C03042B2CD09F
:101D0800A44B9B6803F00C03082B21D06368B3F540
:101D1800803F4FD0B3F5A02F52D09E4B1A6822F4C3
:101D280080321A601A6822F480221A606368002BD5
:101D380050D0FEF70FFC0546964B1B6813F4003F86
:101D480014D1FEF707FC401B6428F5D903208AE16B
:101D5800904B5B6813F4800FD8D08E4B1B6813F43C
:101D6800003F03D06368002B00F07A81236813F0EA
:101D7800020F55D0874B9B6813F00C0F3ED0854B54
:101D88009B6803F00C03082B33D0E368002B68D062
:101D9800814B01221A60FEF7DDFB05467D4B1B686F
:101DA80013F0020F54D1FEF7D5FB401B0228F5D9DA
:101DB800032058E1774A136843F480331360B5E78A
:101DC800744B1A6842F480221A601A6842F480320E
:101DD8001A60ABE7FEF7BEFB05466E4B1B6813F4B3
:101DE800003FC3D0FEF7B6FB401B6428F5D903209B
:101DF80039E1684B5B6813F4800FC6D1654B1B68EB
:101E080013F0020F04D0E368012B01D001202AE16E
:101E1800604A136823F0F803216943EAC103136099
:101E2800236813F0080F40D0636963B35B4B01224A
:101E38001A60FEF78FFB0546564B5B6F13F0020FD7
:101E480033D1FEF787FB401B0228F5D903200AE1AE
:101E5800504A136823F0F803216943EAC103136069
:101E6800DEE74D4B00221A60FEF774FB0546494B2E
:101E78001B6813F0020FD3D0FEF76CFB401B02283F
:101E8800F5D90320EFE0454B00221A60FEF762FB0C
:101E98000546404B5B6F13F0020F06D0FEF75AFB66
:101EA800401B0228F5D90320DDE0236813F0040F56
:101EB80079D0384B1B6C13F0805F33D1002301932A
:101EC800344B1A6C42F080521A641B6C03F0805336
:101ED8000193019B0125324B1B6813F4807F23D0AB
:101EE800A368012B34D0052B38D02A4B1A6F22F067
:101EF80001021A671A6F22F004021A67A368002BFE
:101F080036D0FEF727FB0646224B1B6F13F0020F55
:101F180048D1FEF71FFB801B41F288339842F3D962
:101F28000320A0E00025D6E71D4A136843F4807318
:101F38001360FEF70FFB0646194B1B6813F4807FEE
:101F4800CED1FEF707FB801B0228F5D903208AE0D3
:101F5800104A136F43F001031367CFE70D4B1A6F55
:101F680042F004021A671A6F42F001021A67C5E7C5
:101F7800FEF7F0FA0646074B1B6F13F0020F11D05D
:101F8800FEF7E8FA801B41F288339842F3D9032020
:101F980069E000BF0038024000004742800E474217
:101FA80000700040E5B9A369002B5BD0304A926805
:101FB80002F00C02082A58D0022B17D02D4B002211
:101FC8001A60FEF7C7FA0446294B1B6813F0007F16
:101FD80042D0FEF7BFFA001B0228F5D9032042E0E1
:101FE800234A136C23F080531364DCE7214B00224F
:101FF8001A60FEF7AFFA05461D4B1B6813F0007F09
:1020080006D0FEF7A7FA401B0228F5D903202AE0DC
:10201800E369226A1343626A43EA8213A26A520896
:10202800013A43EA0243E26A43EA0263104A536010
:10203800104B01221A60FEF78DFA04460C4B1B6800
:1020480013F0007F06D1FEF785FA001B0228F5D9A8
:10205800032008E0002006E0002004E0012070478B
:10206800012000E0002002B070BD0120FBE700BFA6
:102078000038024060004742324B9B6803F00C0373
:10208800042B5CD0082B01D02F4870472DE9F04B6A
:102098002C4B5A6802F03F025B6813F4800F2BD078
:1020A800284B5B68C3F388131E4600275C01002594
:1020B800E41A65EB0705A90141EA9461A001001B38
:1020C80061EB0501CB0043EA5073C400A01943EB50
:1020D80007014B0243EAD053440220461946002325
:1020E800FEF76EF8174B5B68C3F3014301335B00DF
:1020F800B0FBF3F0BDE8F08B124B5B68C3F38813B9
:102108001E4600275C010025E41A65EB0705A901B6
:1021180041EA9461A001001B61EB0501CB0043EA91
:102128005073C400A01943EB07018B0243EA905394
:102138008402204619460023FEF742F8D2E70348F6
:10214800704700BF003802400024F40000127A00F3
:10215800002800F09D8070B504464F4B1B6803F0C3
:102168000F038B4209D2CBB24B4A1370136803F0AA
:102178000F038B4201D0012070BD236813F0020FBA
:1021880017D013F0040F04D0444A936843F4E05383
:102198009360236813F0080F04D0404A936843F40F
:1021A800604393603D4A936823F0F003A0680343BB
:1021B80093600D46236813F0010F32D06368012B3A
:1021C80021D09A1E012A25D9344A126812F0020F2A
:1021D80060D032498A6822F0030213438B60FEF70D
:1021E800B9F906462D4B9B6803F00C036268B3EB04
:1021F800820F16D0FEF7AEF9801B41F28833984261
:10220800F0D90320B8E7254A126812F4003FE0D15C
:102218000120B1E7214A126812F0007FD9D10120CC
:10222800AAE71D4B1B6803F00F03AB4209D9EAB2BA
:10223800194B1A701B6803F00F03AB4201D0012041
:102248009AE7236813F0040F06D0144A936823F41E
:10225800E053E1680B439360236813F0080F07D03D
:102268000E4A936823F46043216943EAC1039360EB
:10227800FFF702FF094B9B68C3F30313084AD35CBB
:10228800D840084B18600020FEF71AF9002073E7C1
:102298000120704701206FE7003C024000380240EF
:1022A8007C2C0008B4D50020014B1868704700BF8B
:1022B800B4D5002008B5FFF7F7FF044B9B68C3F3BC
:1022C8008223034AD35CD84008BD00BF00380240CF
:1022D8008C2C000830B583B00446036813F0050F52
:1022E80006D1236813F0020F2ED1002003B030BDB1
:1022F800494B00221A60FEF72DF90546474B1B682B
:1023080013F0006F06D0FEF725F9401B0228F5D917
:102318000320EBE76268A3681B0743EA82133F4A7E
:10232800C2F884303C4B01221A60FEF713F90546C7
:102338003A4B1B6813F0006FD3D1FEF70BF9401B23
:102348000228F5D90320D1E700230193334B1A6CF7
:1023580042F080521A641B6C03F080530193019B76
:102368002F4A136843F480731360FEF7F3F80546A9
:102378002B4B1B6813F4807F06D1FEF7EBF8401B4C
:102388000228F5D90320B1E7244B1B6F13F44073DF
:1023980012D0E26802F440729A420DD01F4B1A6FB5
:1023A80022F440721F4901200860002008601A6763
:1023B8001B6F13F0010F13D1E36803F44072B2F5F9
:1023C800407F1ED0154A936823F4F813936013498D
:1023D8000B6FE268C2F30B0213430B67002085E71B
:1023E800FEF7B8F805460D4B1B6F13F0020FE3D14B
:1023F800FEF7B0F8401B41F288339842F3D9032026
:1024080074E706498A6822F4F81223F0704323F42B
:10241800407313438B60DAE7680047420038024094
:1024280000700040400E474201282AD1174B9B6894
:1024380013F4000303D0012B25D115487047134B23
:102448005B6813F4800F14D0104B5B6803F03F03F4
:102458001048B0FBF3F00D4AD2F88430C3F3881368
:1024680000FB03F0D2F88430C3F30273B0FBF3F03F
:102478007047064B5B6803F03F030748B0FBF3F077
:10248800E9E7002070470020704700BF003802408D
:102498000080BB0000127A000024F40010B582B05E
:1024A800064C20700B786370642300930223224645
:1024B8009421201DFEF73AFE02B010BDD4D50020AD
:1024C80070B582B00E460A4A144604F8040B642517
:1024D8000095012394212046FEF728FE009501234C
:1024E800324694212046FEF7E3FE02B070BD00BFDD
:1024F800D4D5002084B070B504AC84E80F009DF8F2
:102508006460444B002283F840201A68D36943F47E
:102518008063D361012210213F48FEF777FB3F4CCF
:10252800542204A9201D00F081FB01236370214679
:102538000220FFF7B3FF2546AF2305F8013F2946E0
:102548000420FFF7ABFF8023637029460520FFF7BF
:10255800A5FF21460620FFF7B3FF637803F02003A9
:1025680043F00703637029460620FFF797FF2946C3
:102578000820FFF7A5FF637803F0F00343F0010399
:10258800637029460820FFF789FF29460920FFF7CD
:1025980097FF637803F0F00343F001036370294663
:1025A8000920FFF77BFF29460E20FFF789FF012E40
:1025B80028D016B9194B02225A70184D6C1C2146A6
:1025C8000E20FFF76BFF21460F20FFF779FF00264B
:1025D8006E7021460F20FFF761FF6E7021461420B0
:1025E800FFF75CFF21461520FFF758FF21461A2008
:1025F800FFF754FF21461B20FFF750FFBDE870404E
:1026080004B07047637843F0C00303F0C7036370F6
:10261800D3E700BFE4D60020000C0240D4D5002048
:1026280008B5032806D8DFE800F0020F13170C4B93
:10263800F0225A700A494B7843F00F0301F8013F22
:102648000420FFF72BFF08BD054BB0225A70F1E7B5
:10265800034BE0225A70EDE7014BA0225A70E9E7DC
:10266800D4D5002038B50446A0F13203DBB25B00B4
:10267800114D05F8013F29461420FFF70FFF2946A1
:102688001520FFF70BFF642C14D804EB4404230136
:102698000A4A82FB03235B09183BDBB2064C04F8A9
:1026A800013F21462020FFF7F9FE21462120FFF7B0
:1026B800F5FE38BD1823F1E7D4D500201F85EB516E
:1026C80038B5194D2C46992304F8013F21460020BE
:1026D800FFF7E4FE80236B7021464720FFF7DEFEFC
:1026E80021463220FFF7ECFE6B7863F07F036B70B6
:1026F80021463220FFF7D2FE21463220FFF7E0FEC6
:102708006B7803F07F036B7021463220FFF7C6FE1B
:10271800002068702146FFF7C1FE9E236B7021469A
:102728000220FFF7BBFE38BDD4D5002030B58BB0F2
:102738000024059406940794089409940094234B64
:102748001A6B42F080021A631A6B02F08002009240
:10275800009A01941A6B42F001021A631A6B02F094
:1027680001020192019A02941A6B42F008021A635C
:102778001A6B02F008020292029A03941A6B42F052
:1027880004021A631A6B02F004020392039A049477
:102798001A6B42F002021A631B6B03F002030493E4
:1027A800049B0B4D22464FF210012846FEF72EFAE5
:1027B8004FF210030593012306930794089405A983
:1027C8002846FEF73FF90BB030BD00BF0038024085
:1027D800000C024000B583B000210191094B1A6B2F
:1027E80042F400121A631B6B03F400130193019B5C
:1027F8000A461020FDF7C6FE1020FDF7F7FE03B0CD
:102808005DF804FB0038024008B50948094B03602D
:10281800094B436000238360C3604FF48042026128
:1028280043618361C3610362FEF7F2FB08BD00BF29
:1028380030D6002000540040A086010008B50948A1
:10284800094B03604FF40072426000238360C36049
:1028580002614FF47A5242618361C3610362FEF7F9
:102868004FFF08BDE4D60020003C004070B598B08A
:10287800302200210DEB020000F0E3F90024079458
:10288800089409940A940B94039404940594069468
:102898000194204B1A6C42F080521A641B6C03F0AE
:1028A80080530193019B02941B4B1A6842F48042A7
:1028B8001A601B6803F480430293029B01260C965E
:1028C8004FF480330D93022512954FF48003139330
:1028D80004231493A82315931695072317930CA87C
:1028E800FFF7FEF90F230793089509944FF4A053B7
:1028F8000A934FF480530B93052107A8FFF728FC90
:10290800039632230493059503A8FFF7E3FC18B058
:1029180070BD00BF003802400070004000B593B0A1
:10292800FDF7F2FDFFF7A2FFFFF700FFFFF752FFE9
:10293800FFF76AFFFFF782FF0D4C00231193442233
:1029480004F11001684600F071F994E80F00FFF7F0
:10295800D1FD0120FFF786FE0120FFF761FEFFF79A
:10296800AFFE46F6792203490348FEF715FEFEE757
:1029780030D6002008000020E4D600207047000070
:1029880000B583B0002100910C4B5A6C42F4804290
:102998005A645A6C02F480420092009A01911A6CAF
:1029A80042F080521A641B6C03F080530193019B20
:1029B8000720FDF7D5FD03B05DF804FB00380240A1
:1029C80030B589B0002303930493059306930793C6
:1029D8000268154B9A4201D009B030BD0025019517
:1029E800124C236B43F002032363236B03F00203AF
:1029F8000193019B4FF41073039312230493012353
:102A08000593032306930423079303A90848FEF7B5
:102A180019F80295236C43F400132364236C03F420
:102A280000130293029BD7E700540040003802408D
:102A380000040240F0B589B0002303930493059382
:102A4800069307930268304B9A4201D009B0F0BD53
:102A580004460025009503F5FE331A6C42F4004243
:102A68001A641A6C02F400420092009A01951A6BDB
:102A780042F001021A631A6B02F001020192019AF4
:102A880002951A6B42F004021A631B6B03F00403ED
:102A98000293029B102303930227049706260796A6
:102AA80003A91A48FDF7CEFF4FF4A45303930497E4
:102AB80005950695079603A91548FDF7C3FF154820
:102AC800154B0360456040238360C5604FF4806305
:102AD80003614FF4006343614FF4005383614FF483
:102AE8008073C36105620423436203238362C56262
:102AF8000563FDF719FE18B9064BA3639C63A5E7A8
:102B0800FFF73CFFF8E700BF003C00400000024030
:102B18000008024084D60020886002407047FEE723
:102B2800FEE7FEE7FEE770477047704708B5FDF718
:102B380005FD08BD08B50248FDF796FE08BD00BFB3
:102B480084D600200F49D1F8883043F47003C1F8C7
:102B580088300D4B1A6842F001021A600020986014
:102B68001A6822F0847222F480321A60074A5A6086
:102B78001A6822F480221A60D8604FF000638B60D4
:102B8800704700BF00ED00E000380240103000241C
:102B9800DFF834D0002103E00C4B5B58435004317C
:102BA8000B480C4B42189A42F6D30B4A02E000231A
:102BB80042F8043B094B9A42F9D3FFF7C3FF00F0F0
:102BC80011F8FFF7ABFE704700000220A42C0008A4
:102BD80000000020B8D50020B8D500202CD7002050
:102BE800FEE7000070B50D4E0D4CA41BA410002587
:102BF800A54209D10B4E0C4C00F02CF8A41BA410D4
:102C08000025A54205D170BD56F8253098470135F5
:102C1800EEE756F8253098470135F2E79C2C000876
:102C28009C2C00089C2C0008A02C000810B5431E02
:102C38000A44914200D110BD11F8014B03F8014F2D
:102C4800F7E702440346934200D1704703F8011B9B
:102C5800F9E70000F8B500BFF8BC08BC9E4670470D
:0C2C6800F8B500BFF8BC08BC9E467047E1
:102C740000061016000610160000000000000000F8
:102C8400010203040607080900000000010203040E
:082C940064D5FF7F0100000080
:042C9C00AD0100087E
:042CA000890100089E
:102CA4000100000010000000B1FCD5FBE3FB5EFB5B
:102CB4005CFB6BFB96FBAFFBDFFBD8FBE7FBCFFBBF
:102CC400C0FBA2FB74FB64FB83FB8FFB9FFBC7FB76
:102CD400A9FB99FBB1FBB1FBC4FBE7FBFBFB1AFCB3
:102CE4003FFC3CFC2DFC2EFC54FC4BFC89FCB9FC49
:102CF400F8FC0CFD17FD24FD2CFD29FD35FD48FDD8
:102D040092FDA9FDE7FD2EFE32FE38FE3BFE16FEC7
:102D14002CFE54FE76FEAEFEF8FE1EFF4EFF4AFF6A
:102D240035FF38FF68FF86FFACFFCFFFDCFFF9FFFC
:102D34000300F7FF06000D00280045009000C400C2
:102D4400E700F600E200DA00D300B900D100F10098
:102D5400F6001801760185017F01910171016D0171
:102D64009301A001A001A501A0019901D101AF0126
:102D7400B401CC01C90105021802330243020A025C
:102D8400FE01F901F601F201F8012B0246027A0272
:102D9400AF02A20281024E02490242024C028702A1
:102DA400A702AC02E802E502CA02FF02E6029E02A2
:102DB400E602F902C402F40239030C031B037C0388
:102DC40059034F03710377039F039F03EA031D0411
:102DD400370436044B049604F90319049804750463
:102DE4009F04A804AE04CB047804EF04E304A7040E
:102DF400CA0493049604090547054C0439040605DE
:102E040096044204DC04A80442047E0451045104E0
:102E140091030603000362021202EC01C8011202CC
:102E2400FF011C023402DD015C01A00095FFD6FE07
:102E34000EFE7CFDA1FD16FE08FE08FEBFFE6DFE23
:102E44006BFDC8FCF2FB4DFBBEFA6EFA46FA24FA9F
:102E540010FA77FA5BFAECF9ABF9B1F970F955F9B4
:102E64004FF9F6F8BEF88CF810F8EFF7EFF7E0F743
:102E74000AF884F8FFF847F96AF933F91AF9F1F80E
:102E8400A6F890F8DAF818F92FF980F9B5F9E9F904
:102E94002AFA60FA96FADAFA27FB8EFBCFFBD5FB07
:102EA400B8FBB1FBB2FBABFBF9FB57FCF2FC91FDA9
:102EB40048FECCFEE6FEF4FEEEFEE5FED6FEB1FED6
:102EC400C5FE4EFFBEFFF9FF4B00C200050117010E
:102ED4005001C101D401D701E901DA01A60197012A
:102EE400C001C901DE013402A50211034D034303ED
:102EF40049031403D602B3029802A702A402B9023A
:102F0400EB02FD02F402C502C202CA029B029B024A
:102F14009B028002690228020702B701680164016A
:102F240044011201E200ED00D100A1005A001B008F
:102F3400FCFF88FF4BFF1CFFC3FE84FE3BFEF8FD35
:102F4400CAFD9BFD8EFD6AFD65FD39FDF8FCD6FCCE
:102F540093FC46FCECFBD9FBCCFB92FBA6FBB8FB39
:102F6400B2FBB1FB92FB85FB6AFB3FFB21FB2DFB14
:102F740024FB3CFB52FB5CFB79FBB4FBE4FB39FC1C
:102F84004FFC75FCB6FCA1FCC2FCF5FC01FD6DFD1B
:102F9400B7FD0EFE78FE10FF89FFD2FF4600A300A6
:102FA400BF001A015B0167018E01BA01FF017202C1
:102FB400DC0224036103BA03FF03080417041A04A0
:102FC400E0030D045A04C104CD04E504300585056D
:102FD400D205FC0558062E060B06EA05040614065F
:102FE4002506490689068D06BF065C079F068A06E4
:102FF4005107C8069306C007500731066207E80761
:103004003406D307560924075C07EB079006E70745
:103014007E088F069B075A083B07F307D2076D0605
:10302400A406C8065706E006E3067905B105B80507
:10303400D3044B04DD03CF0318034F03A20453034B
:103044000E03FF0307023E0103012CFF53FFAAFFF7
:1030540057FE09FFF9FFCCFED4FE6CFE04FDE8FC2C
:1030640092FC30FBC4FA77FA80F9A0F930FA44F9FB
:1030740086F808F9E8F893F8F3F884F89AF74DF726
:1030840000F76FF640F6C9F584F534F651F668F6A4
:1030940026F71EF7CBF606F769F606F68DF668F600
:1030A400F9F598F600F7EAF66AF7FEF7C0F72AF89A
:1030B40095F8D7F835F94CF9FDF832F96AF962F95F
:1030C40099F98EF9F9F9ECFA9DFBF5FB6CFC83FC9C
:1030D40099FC0CFD09FDD4FCE6FC23FD70FDB8FD54
:1030E4000BFE8CFEEEFED7FE27FFADFF0000460070
:1030F4005C005A0051001F003C005A004600690061
:10310400DF005801DB013602270237021902E10110
:10311400FE013402C901EF0152026B0265027D0215
:103124008402950296028702CB02BC02A402930297
:103134003D02E101A0013B0146014D013D01610158
:1031440099017B012C01DF007700F4FF70FF4DFF34
:1031540021FFE8FE09FF12FFD9FEC0FE70FE58FEF3
:103164003FFEFEFDA8FD61FD0CFDD7FC76FC3AFC9C
:103174001FFCF0FBE1FB0AFC0DFC16FCDCFBC1FBB5
:10318400A5FB38FBFDFAFAFAE0FAF5FA5CFB7CFBE6
:10319400B4FB08FC37FC63FC67FC3CFC99FCC0FCFA
:1031A400E0FC26FD30FD5EFDCAFD0EFE7EFEFEFE49
:1031B40082FF07008900B900F100EB00D00006018E
:1031C4000E012101B10104026C02020340036B03EE
:1031D400F303DA03B5030A041F044E048F046404E2
:1031E400D404B604B9047F05A505B80534067006F1
:1031F4009306D306FE068D06570655064506540665
:103204005106B906B107DF0742087E08FB071A0812
:10321400C9077D074807BA079B089B08DF086909A7
:10322400A6093809900826087C08FD08FF07BD0791
:10323400F808760838085A092609D9076B072007C1
:1032440021075A070A060005990455043C052D0573
:103254000F05C7050E054F0550055F03B5010C00AA
:10326400ADFEA8FE3AFEC2FE2800660006004E002F
:103274008FFF74FD14FCCBFA5FF9E5F8E9F8D7F891
:10328400E5F89EF82EF81FF81BF8C0F7CDF678F68F
:1032940077F613F682F550F4DCF266F260F211F37D
:1032A40025F43BF453F426F55BF503F571F425F3AB
:1032B40042F250F271F2DBF2C2F339F41FF494F4E7
:1032C4000CF50FF566F5ACF510F64BF68AF60BF730
:1032D4007BF7D9F65AF6C5F66EF713F814F9E3F945
:1032E40075FA4AFBFCFBE1FB77FB2CFB12FB80FB32
:1032F4002BFC98FCD0FC50FD1CFE9CFEEFFE59FFFD
:10330400BAFFDFFF7E005201A50155010F01E20063
:10331400C800D90073013F02D10255032104DC0423
:10332400FD04A404FC03A80382037903BD032B0456
:1033340036048104E00439052405FA04F104EE049A
:103344002105DD048F041604AC03460312030303B2
:103354003B037403E603570464040B045603870217
:10336400B101F900B600AF0063006300D000B00003
:1033740097004D00DFFF3CFFA4FE5BFE29FEB4FD79
:1033840051FD2DFDF5FCBDFCE2FC9CFCA4FCAEFC57
:10339400CEFCCEFC87FC13FCECFB7CFB50FB82FBDD
:1033A40053FB5EFB02FC4BFC63FCBFFCCDFCC0FC8E
:1033B400CBFCCEFCFAFC35FD76FDF9FD1FFE3AFE92
:1033C4008FFEB9FE23FFC9FF4600B90023014A015D
:1033D4007B01740124016A01850185011F02B60283
:1033E40099023C030E0443049904AD044204EA0325
:1033F400EC03F2030504DD049D057D05A5054B06DC
:103404008706D6064D071E07CA06EF06AD06360622
:10341400E6064807510740088E0938093408CB08E6
:10342400AA091009C808ED0933091C09930AE60A18
:10343400F70A7C0A350A320A450BC40B9D097C093C
:103444007808DB07630BA709AB078A0ABE0996084D
:10345400280A700A3B07A1066F06E60402062A053D
:103464000A0657071C06EC069D05EA031F046201C1
:1034740045009D0004002D008400A1FF63FFB2FFFE
:10348400F2FDEBFDE2FC4FFAE5FA51FCDFFA73F9C9
:1034940080F868F7AFF624F7A3F7FDF615F79DF764
:1034A4002EF7CEF64EF6A7F37FF2B6F2DFF124F252
:1034B400E9F3E0F35DF4ACF4CBF334F409F4C1F2D2
:1034C400DCF231F34BF231F3AAF4B1F30BF33FF432
:1034D40025F466F47FF5BAF500F66DF7DEF747F7E5
:1034E400D7F633F639F61AF7B2F7C1F8A6F9F8F9B0
:1034F400CDFA55FC52FC94FBEFFBF6FBC9FB8AFCAE
:10350400C7FD45FE52FEBAFEFEFE0FFF79FF2B00FB
:10351400AA00D40082016202A7029F025102B801EC
:10352400B7016902E202260390033704A104A1044F
:103534008D04AB0411040204050561051805390561
:103544005805FD049C048604490445041A047E04B9
:10355400580559050B05BF0402043E03CE02D402EC
:10356400B00284023F0207020E02F3019A01000135
:10357400C200BB007B009A00A000030079FFFAFEA2
:103584003FFEA1FD0AFDD3FC36FD7CFD73FDBDFDB0
:1035940097FDFDFCCDFC76FC0DFC80FB0CFB61FB78
:1035A400D3FBBDFBDEFB0EFC2BFC30FC96FC39FD93
:1035B40068FD51FD77FD8EFD65FD92FDACFD67FD57
:1035C400D2FDA7FEBEFF8C003B01A5018D019C012D
:1035D400EA01E401A801BB011202B2025F03110473
:1035E4008604A204D904F60523066D054E06460694
:1035F400D2058C06CD0655067B06F406BB073D08AE
:103604001F083208EC083909D408B608F208CB08B8
:103614009B08EB09D2094F08F208D5096B094F0A38
:10362400A80A030A0D0BAC0B000B4C0CC30CA40A28
:10363400FB0AF80CC90C060B660BD00B320A9F0A66
:10364400180B22095609350B340A720AFF0B470975
:1036540033093F0BE807880599065206D005530540
:103664007C05FE050706A706A106B8047B02DC005C
:103674006C00F300A7FE68FD4DFF8EFFA5FEE0FE83
:103684009EFDD4FC20FD74FB90F9A5F941F91CF8CA
:10369400CCF737F7D7F534F568F61EF6E4F40CF5F5
:1036A400B0F537F5D8F45BF306F23CF27FF1DCF0C9
:1036B400DCF16AF107F1EBF29CF398F24EF2F5F1CA
:1036C40092F194F282F287F107F203F3DFF2DCF273
:1036D40084F3BAF32EF406F508F5DAF506F71EF7C7
:1036E400B5F7DEF7FCF6E7F61EF884F8C4F8CFF970
:1036F400D6FAA9FB43FC86FCCAFC1EFD45FD5FFD12
:10370400EDFD43FE3FFEFEFE01004900FAFF0A0004
:10371400C4006A01AF013902B802060311030203AF
:103724000603300324030B036403AF03A303FB0367
:10373400400439040B04ED0325048A0496045D0453
:10374400B10454045203FF02B902C1012E017C01E9
:10375400CF01FE0136027A029B022D025901A30019
:10376400EDFF1BFF7FFE38FECAFD8FFD97FDD0FDE8
:10377400FFFDF5FDBEFDDCFDE2FD35FD8FFCD3FB59
:10378400DCFAB4F92CF9FCF8DCF820F9B8F9BFFA42
:1037940053FB62FB7CFB50FBDAFAD7F9D9F88CF8BF
:1037A400A1F8C8F81AF9D1F9BBFAA0FBCEFCEAFDDE
:1037B40022FEE2FD34FE8AFE46FEC4FDC9FDF0FD94
:1037C40061FE30FF8C00F8010003390448058B05C5
:1037D40097057405C8049504C404E3046D052C0618
:1037E40086063C07CF08F7094A0AC90AD20A870A9B
:1037F4009C0AAA0A3B0AB60951096E09250A120B4A
:10380400160B510BBA0CB60C340C060D720D090DC7
:10381400630D1B0DA10BB00BD00DAA0DDF0BCB0C50
:10382400D30D6B0BE60CE40E020E801005112B0D6C
:10383400BF0FC70FEB08290AB20BBA05ED07040D39
:103844001B071B076D0EB80DBD07D7088B0AE906C9
:103854009904D805DF046D012A01B8010003E601CB
:1038640072007100BC005A00120051FFD3FD73FDB9
:103874004EFCC4F870F76EF849F7FEF55FF526F7CD
:1038840067F544F551F83FF62AF223F3D7F3FFF036
:10389400D6EFCAEFC8EF7AF0E1EE83EDBFEFDEEECC
:1038A40077EDFDEFA8F183EECDEE02F161F0A5EF27
:1038B400FEEF62EE11EED3EF3CEFF5EF39F24DF28D
:1038C400A9F2E1F3A5F39EF4B0F56FF559F548F6C6
:1038D400DBF531F708F93FF8ACF77CF9EEFA30FB89
:1038E40075FCE4FDCBFEC0FFD0FFF1FFA300720026
:1038F4009BFF2A008B0155017001F702FA04C704EB
:10390400BE0443067E064205070610073306AC05CF
:10391400110689053205CF053406750637061C06DF
:103924009206EE069B068A06CA0574045A044604E7
:103934000C030003A5035C025F01EA01D401C70084
:10394400370068008D00A3FFF7FE4DFFBCFEE0FCCE
:1039540075FC78FCECFABAF922FA71FA67F94DF9B8
:10396400EAF98AF9BCF87BF8CAF8C6F7F3F6B2F6B6
:1039740039F6B7F5A0F596F505F5F3F450F5CCF561
:1039840016F60BF740F7D1F6EBF68EF73DF77BF61C
:10399400C1F697F752F794F7ECF8FFF9B9FAB1FBCF
:1039A40045FDB2FD9AFD3AFEB5FFBAFF57FFF9FF98
:1039B4005A00B2006E01E602F903D704E105D60607
:1039C4002C080F09730986097C095109C7098E0A55
:1039D4007C0AA70AE20B2A0DB90D5B0E1B0F390FE7
:1039E400660F630F2B0F1E0FB80E610E2C0EC50E43
:1039F4003D10D5105210941028114C108A114B13FD
:103A0400491258108010960FE00F7B11FF109C1183
:103A14003F12C7115B10D0130F162D12570FF10D63
:103A2400390DC90A430AC90A5D08E806FE07220CD3
:103A34001B0D690A59093F071909FD06DE036502D2
:103A4400700104FFAAFC2CFECBFC64FB18FB26FCD3
:103A540033FD58FC96FC86FD98FCE4F9BAF55CF558
:103A640013F252EFD3EC3DED57F06EF09BF035F1CD
:103A740069F275F1E9F1FDF26AF027ECC9EA83EB2A
:103A84008DEB59E908E80CE89AE95EEAF6ECCDEF2B
:103A9400A7F104F2FDF102F3D5F107F0D7ED9EEDA5
:103AA400E3EC6EECB4EED4F1B7F338F532F7AEFADA
:103AB400D9FB30FCBEFB1AFC3AFC91FBB5FB52FB74
:103AC4004FFB6AFBD3FCA9FF9901B002D304610840
:103AD400EB0953096809C808EB0618058205E205D5
:103AE400A505CD0529074B09AE0AF60BEF0C000D11
:103AF400FF0B6E0BC20B470BAA09BE0779061D0606
:103B04008F052405E3046805CD055106E906090778
:103B1400520678046A036E02780042FEEBFC3AFC1B
:103B2400F7FA33FA27FA77FA05FA27F9E9F94CFA9A
:103B340056F960F8D2F756F689F450F3ABF110F069
:103B44001CEFA8EE40EF01F044F0B7F05BF1CBF1CD
:103B5400D1F19EF183F08AEFC4EE8FED89EDC5EDCE
:103B640019EDF8EC42EE61EF3EF003F261F3FDF380
:103B740023F527F68AF606F672F512F588F513F69C
:103B84007EF6BBF7D4F991FBD8FD2700EF01DC02E8
:103B9400B4036904C804FE04EE042105A305280641
:103BA4001507C2087B0A2B0CAA0DBC0F2D11151288
:103BB40058122012E611A71146110211A5114F1136
:103BC400BE115513E5132A14E2153217C316C6178E
:103BD400DC16D816B0170D17D9141015C916F81419
:103BE400C215C8170217CF18DA195F18F418751A16
:103BF4009B189E1779163314D5121315370C6C0BBA
:103C0400790ED209AA06030B590E5B055B0AD70D80
:103C1400620EA20A1D07D20533057E009AFB1FFC23
:103C240083F89DF4A5F365F6B6F504F806F7B5F93F
:103C340055FAB8F981F64DF6B9F2CEEB67E867E6C6
:103C44004AE50DE480E33DE433E9EEEB5EEC9AEE05
:103C5400F8F0A4ED38ECE5EBCBEB3BE38DE0D5E1FC
:103C6400F2E2FFDE91E19DE718EACBEB01F1ACF55E
:103C7400EAF5DEF4B3F4FEF316F1FBEEA4EDC2EDC7
:103C8400AAED0AF0C6F38CF849FC3BFFE001650598
:103C9400A707E2068E05D90435030802DA00840179
:103CA40072021D038C05790AE70DE00E2111AE1393
:103CB400DF131E11271023108A0DAF091D0AE50B0F
:103CC400EF0A910A6C0DDA0EE60E5610E511341166
:103CD400360F060EEF0C850BC90883060805A003F2
:103CE4001E034603CE025A0286025F02DB019601DE
:103CF400D8FFC3FD0DFCA5FAD9F862F6F6F4B5F4C5
:103D0400B6F3BFF1F5F1B5F2E9F1DCF034F126F1E7
:103D1400CDEFE4EE4AEE83EDEFEBA0EA07EB35EAF4
:103D240013E972E848E902EA1DEA10EB2DEB08EC0E
:103D3400AEEC5DED3EEE00EE0BEE32EE5FEECDEE60
:103D440008EF76EF41F052F177F2EBF31EF61CF830
:103D540015F9B3FA45FCB2FD60FEA8FE42FFF7FF79
:103D640090002301B002570435054E07A009280B23
:103D7400410CDA0D3C0F0010C61030116E114F11BA
:103D84007A11F811F6122114B1146C15CF16B1176B
:103D9400591996195D192819B1172617541763185C
:103DA4007C172217F41748188519BB1ACC1B061B5D
:103DB4005F1B661CB01A641D871B981A551BE119FA
:103DC40019172F164D1AE919B80F4110F811BE0F23
:103DD400CC087506990AC104FE031404250B030BD1
:103DE400D60615099E0737067DFF30FA79F92BF5BB
:103DF4003FED71EB50EE2DF0C0ECADEF6FF4EAF453
:103E040034F57BF5C6F351F1BAEC4AE8F1E3A2E0EC
:103E140040DB98D88DDCF5DE38DF24E379EA40EF27
:103E24000AED39EFBCF104ED9FE602E467E49CDFA0
:103E340033DD88DFFAE256E521E9B9EF3FF6A6F86B
:103E4400D2F9A4FCB7FE4DFD50F97BF7A0F6E4F4DB
:103E540038F45FF6E8FA26FE8B014A074A0C830F12
:103E64002F10FE107D11F00F720D2B0CF20C850C2F
:103E74007A0B0D0D52102712051207152818B017CA
:103E8400E416B6175E17391477129C129611430F75
:103E9400470E570F1E10B00F0A0FE10E530E230CDE
:103EA400F609C808C007A6058B03D10214032D0226
:103EB4009D0094FF17FEE6FB62F9A2F7D2F56FF3BB
:103EC40002F10AF0C8EFF5EE01EE0BEEC1EEC7EE1B
:103ED4000BEEA4EDECEC55EB5CE903E83AE686E383
:103EE400A4E2FDE223E4ECE44FE681E83EEA22EBBF
:103EF400CDEB58EC1BECB5EAA3E984E98FE9F7E9CB
:103F04007BEA24EC7BED0DEFAEF17AF47BF6C2F79D
:103F14000FF91CFA2FFB7AFB3CFB2CFBA5FB84FC62
:103F24009DFDA9FF0802390483060909F70ADC0B81
:103F34009F0CBE0DCA0D140EDB0E4C0FA90FDA1028
:103F4400E811A513F7139714D315F716FE173618AF
:103F5400CD18AF1895189818FA18E019AE197919F0
:103F64000B19A219F819D61AAB19161AB518D417C1
:103F7400A619E11A751C1B1A121B161E5521EB1AE1
:103F8400B91C6E1DA51E4818711A501CAE1284105F
:103F9400A2129515AF0298FDC402F50547FF03FD73
:103FA40092055909180B100ACE0CD3090503C6F75C
:103FB40018F69EF2B0E98CE204E5D2E8FEE220E4D1
:103FC400A2EB09F2BEF098EF7CF1DCF42EF42DEDB7
:103FD40002E4D0DFE6DB13D300D20DD4CDD426D552
:103FE40024E175EB0BEBB3EB33F22CF5AEED98E972
:103FF4008FE97BE757E2BDE076E2ADE4BCE544E857
:104004006BEE77F4F6F8B2FD02044806F5030903F3
:104014006C04BA0311FEF6FBDFFEFA0241055108F7
:10402400F80CC3109612F513A115B01689154D148A
:104034004A161F18351756167919681A0D17D4150C
:104044007319811AFA16AE15B7162916BF138E12F4
:104054007D112A104F10BE11071308131B12E6100E
:104064000010150D6807080295FF3BFD9DF963F8E4
:10407400DAF9C2FA3AFA3FFA58FB79FB8BF946F7B8
:10408400B8F43BF158ED58EA23E8FBE4BAE074DFF6
:104094004EE2F4E418E544E61AEAB5ECB5ECDFEBDD
:1040A4006BEBE3E84BE54BE3EEE26FE2BEE10CE3DE
:1040B4007CE5C8E70FE998EBB1EEC3F0E7F012F244
:1040C4008EF479F5A4F425F489F43DF570F573F5CF
:1040D400B8F6CAF8A4FA9EFCEEFE7B009A00A8018A
:1040E400C003FD04B404C1052608E709AD0AC10BE9
:1040F4007E0C6F0C3D0C660CF80C5D0DE80DE40EA7
:1041040084104C1292130415CD167817DE162B1852
:104114003419D119B81636167C16E2150714BA13D9
:10412400BA131A1541161619F31B2B1CB41D681E5D
:104134000D1EE320D11C3C1C841D231B901B4D1B16
:104144005F1D041EDF1A991D8D1C8A19CB1AE619EE
:10415400761016087B04040404FE0AFA27FBEBFE1F
:10416400B401AE072A0DFF0D940A4F0573FF24FB1B
:1041740043F341E8F2E14EE145DE3ADB72E0F1E47B
:104184000DE521E752ECC3F167F3ACF267EFECE81D
:104194008AE21DDD5FD6EECF8BCEACCDA9D0A0DAFE
:1041A40061E24DE558EBDFF026F264F01DEFB6ED69
:1041B40062E93EE6FEE6A2E634E737E987EB6FEF15
:1041C400DEF4EFF969FE08035A06B3069B071B09E0
:1041D400F706A603BE03B906E908AD0B4D10321469
:1041E4009A164019D11AB1195417691553147F142A
:1041F40040153F168B17D819EA1BC21C1E1E8B1FB5
:104204005D1EB21BEF190418E11470102F0CD908AD
:10421400A2066106D607AA09CA0B020ED30F5B11C8
:104224005510D60B260657009FFA41F5F0F042EEE2
:104234004CEC98EB0AED73EF34F106F241F2ACF278
:104244003CF268F0F8ED49EA87E6E5E286E076DFDD
:1042540033DF38DF01E13EE420E8C4EAD3EC23EEA7
:10426400B7EDF6EC36EC7AEBD2EAA9EA43EBEDECE7
:104274002EEFD5F0E4F2A6F4F6F53AF728F81DF996
:10428400C3F9F2F966FAACFB70FC0DFD40FECAFFFF
:104294006E0123038A046D05C4057905F204340410
:1042A4000E036C02C4025204C5066809EA0B400EF0
:1042B400D10FF9100F12B311D710180F940E210E4D
:1042C4009F0E180EA60F7E0F1E113613231376159C
:1042D4006216AE17151885193218B816A81777166E
:1042E400C3152817AF16601903185B1F651FF81F45
:1042F400BD21661EEB22B723E8207720F82079251C
:10430400F31BFF18B51C70144B0748FD6F0056F9DA
:10431400C3F7EEFA4500BE05FB08E60C7312F5116F
:104324003408CFFE93FC92F8B2ECB7E331E401E039
:1043340087D71FD84CDE9CDEDDDE50E3ECEB19F2B0
:1043440086F2FEF1CDEF70EA51E096D94FD792D2C2
:1043540080D0B6CFAED7DADE8CE010E581E89BEBF7
:1043640066EBA8EC90EFECEF0AEFDFEEF4F0D5F19A
:10437400FDF151F1CFF27CF722FAA0FD43031807B7
:104384008C062F06EE0761089F061F0697095A0D33
:10439400A811EE16051B5E1DCF1D811CDF1A7319B3
:1043A4002D16F512EF116E126E126D123214541591
:1043B400D9159B16AA18651ABB1A621A2518B015C6
:1043C400E811D80BF5052F0198FD6DFBB7FB7DFDBA
:1043D400FEFE54006B026E033A02CAFF2BFC5AF82D
:1043E4004AF562F285EE6EEB11EA8FE721E52FE5DF
:1043F40038E58DE466E575E75FE810E912EA5DE902
:10440400FFE7DDE6ECE604E7B2E7DBE80CEAB2EB53
:10441400B2EE4EF033F07AF077F0F4EF6AF0CCF1CC
:10442400A5F384F5FFF706FB1DFD04FFA300360288
:10443400C4029C03E103D503AC03F1029301BE0063
:104444008A009D00320193027D04B606BC08410A2D
:10445400070BC80A7309E707810642051C04A50473
:1044640065059C052F0654081609AD09130BE20BCC
:104474005C0C120EE40D230E6A0E000E760C950BE6
:10448400BA0CF60B080EC20E34112E136814E8167B
:1044940028172819C915D219D818F61BE01B441F70
:1044A400D71C3620FF23CC21C92481294F26A824D8
:1044B4007625CC24521DB814C20826FE78F822F2C0
:1044C400B7F327F215FBB2026F0A2E1183187B1380
:1044D400380C410724FF41F5D8EC6DE47ADDA7D60A
:1044E40086D26BD261D2F3D24AD696DB5AE414EF69
:1044F4001EF2DFF207F007EBC4E135DB0CD4E4CEA7
:10450400C2CB93CEB7D580DA83DFADE31DE623E8D3
:1045140052EAE3EA8AED8FEE95EFF8F0C1F467F71B
:10452400D1F75FF740FAA0FDB4019E066D0A220B95
:10453400360BEC0AA109290749042703B705440BE4
:10454400C412B719E31F7125042799264D25E121CB
:10455400B11BFD15A811BB0ED80CF00B480B8B0A30
:104564002E0BBE0DAD11F514781736185A1808170E
:10457400CC12CF0BEF0383FC74F609F2A7F070F1B1
:104584000EF3E7F459F709F9E6F8D1F6F4F38BF0F2
:10459400DEEC50EA0AE937E74EE5B5E3EEE2A7E3DD
:1045A400E5E326E4E1E57BE7D4E8B5EA61EA1EE960
:1045B400D4E819E7A5E6F0E842EB78ED89F213F8C0
:1045C40030FC71FFD1016B012CFF1EFD6DFB4FFA16
:1045D4002AFA0BFB16FCD4FE8C02AF054C08420BE6
:1045E400F90DED0FF210AB116E10BC0DB60AC10738
:1045F40089047701D9FF30002401FD02C506790939
:10460400B10A040B780A5708DD06BB044802F0001F
:1046140099019302120224056D067B065108660A6D
:104624006209F709800BA9095108CB082D0929094A
:10463400F009B6092D0D08122F149E15D11D561B15
:10464400FC1DDA1D451EE01E0F1F711E0C1FCE241B
:10465400911F4D291B2B9C2B4A2A8B2E6E2DE12555
:104664004A1B190FD302FEF97AF4FAEDE9ED87F744
:10467400E2FDF503E90ED613C414C910F60B980233
:1046840042FBF8F051E91DDFA4D5E0CF85CC50CA38
:10469400CFC8C4CB39D27EDE59E8E9ED14EE6CEF15
:1046A40052ECF7E3A7DA50D62BD194CE97D0FDD5B0
:1046B400E8DA98DE92E3A3E701E97BE964ED38F0F8
:1046C400B5F03DF1BDF32CF775F83DF983FB7AFFA6
:1046D4004405560CE2112C151B188E189516B212AF
:1046E4008B0EA4094606D406170AC70DDC13F51B66
:1046F40052227326B029922BF329232650210C1C15
:1047040027163611060C20060E0238016E01DF0250
:104714007B06F409000C1E0EB90F7D0DEE07CA02CC
:104724007AFD6CF638F0E9ECDEEAEAE822E971EAAF
:1047340018EB70EA41EAEDE82CE628E44EE315E1D3
:1047440052DF02E053DF05E015E3E0E4A5E6D7EA33
:10475400CDED3DEF22F1DBF095EF59EE5AED94ECFF
:1047640071EC70EEABF107F6C0FB3402B7072B0C0B
:10477400980F2811A2106E0FA60DB30AA108CC073A
:104784003706080673074E085A0AC40D931092128E
:104794007A14F3141E142012C50F520C9F0824051A
:1047A400BB025C01D90021019901F902AF03940312
:1047B400AC037702CD002F01EB006DFF1800ED0173
:1047C400F601B602E506B5075607710B750B9D0792
:1047D4006F0C120DB7060808EC0A8F040E0A310F8D
:1047E400C00EAE11E41D711FF520F22C602BB42A0B
:1047F400A431E32D212C0E2F922B412E762C6924EB
:104804004626F6236C0CE707C8016EF6F1F020F794
:10481400DFF8ECF857061B0F270D180F0B15D108FE
:104824001503040258F7FFEBFAE9F8DF32D255CC4E
:10483400BDC75FC190BF5FC3EACA48D4C0DD4CE6C0
:1048440066E958E867E61DE4C1DD57D73ED72CD6A4
:1048540027D493D725DB59DA63DC91DF84E0D5E3F1
:104864007AE739ED7EF1CFF403F909FD0700A901D8
:104874004B04C208480D74111A17FD19D2197B197B
:10488400C0170813B20E200C6C096708010B7D0FCA
:104894000314211ADD20E0247D275C2AEB290E264F
:1048A4007C22C91DDE16E00F050A2C0322FC03F945
:1048B400F9F7B5F602F8D6FB75FEF4FF36023803B5
:1048C4000F01B1FD5AFA14F598EFAAEB75E84DE51E
:1048D4006AE316E26AE1B4E08CDF09DFC1DDF3DCF0
:1048E40034DE03DF94DF86E2D6E34DE5D2E813EB52
:1048F40081EDC6F02EF309F53FF6F6F60BF754F604
:104904001CF601F637F62FF791F90DFD2301BA06CF
:104914006F0C161135158E17C8173B18C116911454
:10492400011311105A0DB20B0A0AFB0803092609D8
:104934003A0A600B590CAC0CFD0CF60CF60B570A3A
:10494400810815054C02A4FFBBFD52FC1FFC5FFB54
:10495400D3FA8EFB6EFBF2F92BFCD2FB76FBC1FD86
:10496400FEFE86FFB8015204710594070D0A930AEE
:10497400B60ADE0D360B220C990F790C6210ED1479
:104984003A11D415D71C221C171FBC27752DF02AE9
:104994007933613ED239DA3C6245303AAB37083973
:1049A4000F27A6183A0D1500C8F3DAEB34EB7FEEA7
:1049B40099EF78FAE905D80A68111D175E15A50E56
:1049C4001008E10125F6CEEAECE097D4EDC7B2C2B7
:1049D400ADBDC5B785B871C0B5C5A1CDB9D8C0DD69
:1049E4003FDF17E132E13ADD82DB98DAB6D947DA04
:1049F4002FDD3AE010E303E5BEE579E650E6A9E7EA
:104A04009FE81BEA3BEC8DEF9AF3C4F85BFEE604E7
:104A1400D20BEA12121AC820DC259227C6262B24B0
:104A2400501F7518F111D50AAE049C010102FC0354
:104A3400EE08F90F73168A1CB9222C263726252571
:104A4400C321561B3E142A0DA7044BFC3AF575EFFF
:104A540071EBC5E9E0E953EA12ECABEEDCF0D8F116
:104A6400E6F1E5F07DEE42EBCFE83DE6F3E36FE2FD
:104A740031E20AE298E143E2E2E114E0ABDFA8DECE
:104A8400C7DD99DE8EDFC2E027E31EE762EB67EF46
:104A94004FF53FFB19FFB203C6071309A609230A02
:104AA4001D081F06C8048C02640178020504A107CE
:104AB400760C5211C01588193A1C401DA61D501CB5
:104AC4003D191A17BD137E0F2A0D220A1D07AC05C6
:104AD40098048D0336030C032A027901EC01AC001F
:104AE4000DFF35FE1CFCD3FADFF857F807FA5CF922
:104AF400DFFA48FDA5FC28FE6BFF7FFDDFFE38FED4
:104B040061FC9EFEAAFF2E009B022006D20A910C95
:104B140095112D125C16191CC9178B1DFE24461CF9
:104B24000821482BE320C4277F30392CCC34503D56
:104B34001B3D7F447E4430452745023B812F701D39
:104B44005C0CF50165F063E633ED5DE68DEDD3FBBA
:104B54002200F406E30FBE11570F150D03076FFC77
:104B6400C0F538EC56DBD2D213C991BE00B8CCB62E
:104B7400C6B920BFC9C730D3F1DA5BE0C6E1E2E2CF
:104B840081E290DDE6DD6BDD6BDC86DF51E499E8E4
:104B940006EC75F1E0F3B3F331F886F894F6A1F876
:104BA4004FF805F910FA89FD18010E05370D711437
:104BB400AA1CBB25EC2AE22EFE303F2F432B2725CF
:104BC4008D1C2613A70AD10289FDE5FCF8FD4D01D1
:104BD4008607AF0DEF124A17451A8B1ADA173814E5
:104BE400530E47075DFFEAF5F5ED66E6FEE043DDAB
:104BF400C8DA12DB83DC91DF07E3F7E55EE84EE712
:104C0400D5E59DE3A0DF15DC50DA56D970D989DCEF
:104C14006EDF36E100E6BEE7A0E8CFEC7AEC58ECB4
:104C24008BEEF6EC1CED8AEF0EEF6CF2FCF796FAC5
:104C3400EA006C086D0C51136618061AA71CB11B08
:104C44005A18651638128E0E300D9D0B3D0C3E0E13
:104C54003B10E6120A164418C019751A3A19261799
:104C6400C0133D102F0CFE07F104B5013EFFA5FE55
:104C7400D9FCB6FCF3FD45FDCEFEC3FE30FC1FFCA3
:104C840013FA0CF719F672F4BBF294F45FF67EF89B
:104C94005EFC7E00A003A1072F0A440A820A130BBC
:104CA4004B0957092D096E0B150B910E0F14AB15FB
:104CB4009A197F2301239A2ADA2FAB31F6359338D8
:104CC400943BD63FAB3CA945CA410C39FC462D3C2C
:104CD4009E2D40287C18B6064EFD51EFE3EB09E308
:104CE40015E733EF82F1C7FCCA035B04F70B0F0D22
:104CF4004B057802D9FC40F7C4E74CDE26D3DDC669
:104D0400D0BA55B554B158B2B3B743C1A9CEB7D58B
:104D140048DE4BE475E971EB47EA5EE82DEB98E970
:104D240015EC60EF1BF209F671F7B1FAF6FD93FE8C
:104D34005601EE000503F6057A043E07C50A190C70
:104D4400F40FAF143A1C51222528EF2FCD32F2353F
:104D5400CA366D33DC2D35267E1CC111B2072F01F6
:104D64009DFB07F8DAF848FBD4FE85037608E50BCB
:104D7400350E370EC70D160B3A0663FF80F695EE17
:104D840082E63EDD5AD639D149CEAACD9DCEC0D2D7
:104D94003BD6DCD8CEDB84DD1BDE6CDC88DBCFDBF2
:104DA4007BDA3FDCC4DE52E00CE5E4E72DE98CEE6F
:104DB400A7F0C6F04DF458F57DF44DF6FBF59AF5E1
:104DC400F4F813FA45FCEE026D07DD0CA115D61AB2
:104DD400DB1F4B254D25E5246A234C1DCD18881473
:104DE400F20EF10BE50920089308140AD90BDA0D29
:104DF4007C10EC11AD117C127B117B0D510B4A0719
:104E04003C02DCFE3DFADAF519F4B8F224F251F270
:104E1400F6F27EF318F4F5F3D5F446F590F3C7F4FF
:104E2400DDF542F4C0F714FA41FB5F01E0041A0611
:104E3400E90A8E0CC80E20124F12F1138E143F147F
:104E440082164218FA17D31A2A1FA9211F265D2D8C
:104E5400D32E2B381140DF434F48834EE14A7D4E19
:104E64006D4AA03DDA373C222E0CBD056FEF4ADDBA
:104E74003AE028D7CFD697E5A7E62EF150FDF9FF03
:104E8400C404EC04760516FE70F79DF370E65CD658
:104E940059D09CC12FB683B143AAFFAD56B3D3BA40
:104EA40095C480CFF8D56CDCE2E268E734E667EAC3
:104EB400B5EC83F00DF67FF9F0FFD503EA059D0903
:104EC400C50B5D0B520CEB0A5D0A7C0A4509770998
:104ED4008B0A540DF01098156B1D8225762CE7353E
:104EE400843C543FBA429441073CE8335F29B31CE5
:104EF4002F10E205F7FCA8F5CCF12BF1FDF277F6C3
:104F0400D1F96FFEF00150056B079207AE059001D1
:104F14005BFB1EF4B2EB29E269D914D23FCDF6C98A
:104F2400D7C885CA1BCD1BCFC8D1ADD3F7D300D406
:104F34001CD5E2D569D7BEDA45DE89E3CEE9E9EDD1
:104F4400B8F290F89BFA3FFD2E0000FFC5FEA7FEC5
:104F540091FBBBFAFFF9EAF71EFA4DFD8100D20777
:104F6400740F2B1717207427332C342F372F3B2C17
:104F7400AC2782216F1A4F133F0DA4086904EB027A
:104F84001A0340022504A106F7060F09B10A0C0909
:104F94000709C808BC04C90104FFF6F994F70CF624
:104FA400B6F2A9F21FF484F3C7F4E4F591F563F4BF
:104FB4008BF527F43BF265F46FF43DF646FC68FD8F
:104FC4005E01080AEB0D19119A197E1A401DDD22A3
:104FD4007E22272300251D23E3227222E123C522FA
:104FE400EC24272D102F603342432F464947CE54DB
:104FF40006516847F83E88285A17B106A8ED68DFBD
:1050040010D893D13CD174D689E12FE82BEDE4F785
:1050140056FD1DFD29FDBDFCAFF898F1EBE40FDA58
:1050240057CFB5BE7EB3A1AC80A991AB99B281BE76
:10503400C6C7CBCF47D954E029E29BE1D1E26FE464
:10504400DBE4E6E84DF018F6BDFC5E03ED098810DC
:10505400FB13A116371AA11A69191F197A16AA1374
:105064003F0F070D830D440ED812D6187E20082B4F
:105074005934D73C274393457344C93E2535FA290F
:105084001C1E93110D0692FCD8F5C5F1A7EF20F074
:10509400C5F1D2F324F75BFBE9FED400FF0007005F
:1050A4000DFDC8F791F00BE83AE016D914D4AAD153
:1050B4003AD132D23BD4A7D62DD835D882D7D1D540
:1050C40045D49BD3B0D3E6D5B7D9D6DECEE449EBED
:1050D40072F154F81CFE1103B5073D0A460C9C0CF2
:1050E400B00A16080B04E1FF30FD38FB3CFB72FEEE
:1050F40062038E0A08137B1B07237B28682B732CFF
:10510400C02A2427D7227E1CCF16BF11B30B330726
:1051140004049A005BFE35FE88FD0BFEB7FF3F00DA
:1051240029016E02CF0136002AFF3BFD77FADEF932
:10513400AAF8DBF7D5F9D9FACFFB8EFD62FDB6FCF0
:105144001DFCD7FA81F857F611F7FCF659F8B4FDAF
:10515400FFFFB1041B0DF310461736205D24E4262F
:10516400252F1C31052E35340431DA2A152E362B21
:105174000228792CA0304232B03A5D3EFF3FAD4761
:10518400D041952F51252D1C5905DFF278E844DDD7
:10519400F1D523D6D2D65BDE10E454E562EE47F5B2
:1051A400E3F5CFF380F809F6CDEC59E5E6D932CE34
:1051B400A9BF34B276AA55A717A85BAE4BB9EFC303
:1051C400A3CDFDD986E11EE5FDE7E4E851E9B4E8A5
:1051D4009BEB3AEF25F3F9F571FB21024B05030B29
:1051E400EC107315FD18F01BA21EB91E021DD21877
:1051F40056140812F60E840DE70E2613971A512240
:10520400F02A0033FC38393BC1397F355A2D6A23E3
:10521400CC18400D3002EFF701F0C4EAF0E755E690
:1052240011E65FE96AEE90F348F8E7FB66FE5BFE81
:10523400DCFB5AF642EEB6E576DDB6D669D1B4CEDD
:1052440073CE8FCFC3D2B7D50FD80DDA73DB0DDC95
:1052540038DB71DC87DD70DF84E22DE572E9AEEDC9
:1052640095F202F892FDC802BA071E0D33105B11C5
:105274009011F50EEE0B50079B025F00A8FE7CFF19
:10528400EB02FA08B20FA0167F1D2622BB25342795
:10529400B626BC245220971B35160F10B6090204FB
:1052A40098FE42FA49F83DF731F70BF926FB26FE42
:1052B4009A003702D30232015C0010FED9FAD4F905
:1052C400B3F8C2F8C3F9B0FAB1FC4BFE3D00660076
:1052D40012016701C001B900F1FFE602B202260320
:1052E400AD081C0AF30CB51252179F1DDC21452989
:1052F400682EC132D7369D36CD38F7387235C5366B
:105304000F3719368A3AD03DB13CAD404F40723523
:105314001C25001DDD0FE6F79FEB45E152D919D797
:10532400D0D413DAF3E1ABE12AE731ED8DF395F153
:1053340012F464F957F4B2F069E7E4DDDAD132C16A
:10534400C6B2F0AB08A827A729ACCDB678C0A1CBCC
:10535400DBD69CDEC3E364E850ECC4EDA5F1BAF5FA
:1053640074FBF5FD93014C06E807370AF30CE50FCF
:10537400B511CC140519431B271CE11B6A198217AC
:105384001015271211103311DA159B1AFA209128DF
:10539400C72F6633DF342A344E30442AB922E01949
:1053A4004710C206A1FD02F5DDEDA1E7F2E197DFAA
:1053B400CFDFC6E160E5AFEA89F03DF5A4F89FF9D7
:1053C4008EF714F34FEDAAE6D2DF98DA5CD6EFD26B
:1053D400C7D0D7D028D12CD014D155D1CED135D5E2
:1053E4006CD799DBABE04EE4C8E9C2ED60F1CEF5D1
:1053F40020F920FDC101D306A50A880E0C1227123C
:105404006A12D40F360B0708BE037400EAFF0901C1
:1054140004041308360DFF11D916031B431E24215F
:10542400EF2102221A21861EE619AB14FD0DD606C1
:105434004600E3F938F51BF295F171F24EF431F8B8
:10544400EEFA86FD30FF26FFD900F4FF91FF9AFFA4
:1054540073FF74005300DD019C025803740371034D
:105464008304AB03050552055E059208D807BF0BFC
:10547400F50A510D87135A137E1A491E3F252A2D0A
:105484009C2E0736B2396B3A3F3C7939F33B6F3A7D
:10549400CE3A123BF73ACA3F753CA8397231DF2342
:1054A40034193F0B77F9A5EA00E1BDD9DBD407D560
:1054B400F2D71CDC58DFE7E1A9E9A2EC5EED9EF22D
:1054C4002BF658F551F211EE33E51EDA2BCCC4BE9F
:1054D400F9B40DAFB2AB23AD23B4C3BBE0C3D9CD94
:1054E400A6D656DD55E27BE7B0EDAFF220F996FE85
:1054F400AB03F007220BE90CFD0D9310D411A91294
:10550400961552196D1B681CDF1C9C1BFD18211677
:105514008512B60F2B0F0A1151145D19EA1FFA25D3
:10552400DD2A992E9730B12F162D9A29CA235A1C99
:105534001814920BAF0204FA08F16AE85BE232DF56
:10554400B8DDAADEFCE1DDE6D4EB92F004F4F0F47D
:1055540033F42AF2B8EE73EAA7E6E8E296DFA6DDB2
:10556400F6DB89DA98D880D60ED55ED4A4D49BD540
:1055740000D8CBDB9DDFF9E3EEE77FECC9F051F413
:10558400A3F9CFFEF6038F09B20E8013F8150217A4
:10559400E315E612920F440A67069903BA01AB01B8
:1055A400A4020C0521070E0A9B0D9910171462160C
:1055B4002B18811AFD1A191A2D18C3142A10E70A78
:1055C400C70420FFADFA0CF78EF4C6F360F4BCF404
:1055D400E4F5B9F669F8CCF96DF96DFB49FC73FD96
:1055E40051FFADFF51022A0307049F0408054F042D
:1055F40071038D069A03DF05C0089B06FD0A7F0A26
:10560400DB0C560E690F73141F15851B431FE02214
:10561400C429992C4033CD32C535383BC6371A3BA3
:10562400CF3F44407D41444305425143353B522DD5
:10563400C0247A13E60501F672E202DC4BD5A6D04B
:1056440083CD3DD365DB12D6EFE0C5E74BE7AFEE84
:1056540083EFE1F423F576F076ECD2E471DCC2CF8B
:10566400D5C314BBF2B650B48BB2F6B83EBFA2C3D6
:10567400AACA6CD1A1D636DA28E00CE69BEB13F368
:1056840055FA79FF1007CE0CA60F0114DE17111B73
:10569400B41BB31EBA220E2202226F20091D7019F8
:1056A400F213740F990AF508BD09380A0C0EBF13DA
:1056B400061A711F3925DF29CB2B4E2DE12C6B2ABD
:1056C400EB25F61FD6183E1042072FFD86F2EEE9B1
:1056D40077E348DE2CDB61DB4DDD31E005E4ACE74C
:1056E40037EAD3EBDAEC05ECC9EAF7E9DDE8E1E601
:1056F400C7E560E523E28CDFA7DE15DCCADA63D9EF
:10570400ADD971DCC3DD75E098E3F5E698E983EC87
:1057140094F07EF4D2F9B7FEEF04E70BC3108115C1
:10572400AC18E3192F19BD1796150612F70F060DBD
:10573400B30A340AC908FB07820841098D0AED0B34
:10574400C20D58104F12C013C414FB14B7134311E5
:10575400470E7F0A4E06D7027DFF01FDD0FB8FFA6C
:105764001CFA50F9FCF913FA7EF878F898F8A9F8BD
:10577400C7F850F984FAB1FB76FDF3FD8AFE3D01CA
:10578400EC015102B904DB05BE074209570B2D0D8C
:10579400B90D510F300F5A114E13C411A016E3194D
:1057A4006E1C71205222FA2592292C2CDB2CFD2F01
:1057B400DE32073285377139333AED41C9416740EA
:1057C40025435C3FE637712B8C1E1D131B03C4F06D
:1057D400CAE183DAB1D3CFC958CA5FCF97CE3ED2DC
:1057E40000D7C7DC40E275E45AE923EF22EF70ECFE
:1057F400DAE905E6D7DD6DD416CB2EC607C2FABDAD
:1058040063BEAAC254C62FC9E1CD0ED3F7D5BFD902
:1058140038DD63E27BE9F2EE19F545FD0C05E10A9A
:10582400D60F5316311C0B1F13235C27152A6D2A20
:10583400BB298B273C23C41C00169C0EA1086604BC
:105844008E01BF00D6022907ED0BBE11CC17A71C91
:10585400AA200824EE25F625DA245422CC1DFE17AE
:105864004D101D07AEFDB0F402EC95E44FDF21DCD2
:1058740060DA50DA7EDBB9DC52DE05E0AEE03BE113
:105884000BE2FAE2F3E311E41FE58FE5ECE427E52C
:105894002FE4C6E326E363E295E366E4FDE530E73F
:1058A400F0E802EBD9EB67EDF3EE93F11FF490F718
:1058B400DDFC01027C07AE0CF310F31426177118FB
:1058C400AF18B5180118B81698153614BD127C1007
:1058D400F20E1E0EBC0CCA0B720B770BE40B0C0CF5
:1058E400640C480D400DFA0BF40ACB08400613046F
:1058F400F001C2000C00830078006000BB016E015F
:1059040090007AFF5AFF06FFC0FCFFFB7CFB44FBC0
:10591400A2FABAF969FA8DFAD6FABBFB86FD390008
:105924006A04FC056608A20C560E57118D1110135B
:10593400E01529150F1641162118501AF71AA01C44
:10594400951CE21E2121F61F991F3B24C0224223ED
:10595400D429B325BE2ACD2B6D2AD5334F2C5531EE
:105964002535CE33133C7330A132A4307C21FB1790
:10597400EF052CFF0EEB2CD9CFD699CC49C69CC28F
:10598400B8C985C9B4C73DD171D2BAD927DF01E4FA
:1059940008EAFEEE6AF3CAEE46ED2BEB77E1C1DAD4
:1059A400EDD456D2BECDD9CB28CF5BD053D2F5D5CA
:1059B4007FD724DAFCDD61E1A7E5D6EB16F4CCF75A
:1059C4000AFEED07FD091C0DA3120316DE174C1980
:1059D400801E8E1F71204F220F210B1EDD194A16C7
:1059E400120F5609070627021200DFFF5C028F021E
:1059F4002B04CB065F07EE085B0A160B630A0C0D3B
:105A04005D0FE30ECB0FA90DDF097C0528021FFCF7
:105A1400CCF313F15EEF1EEC68EACEE97BE978E79C
:105A240000E579E244DF8DDD69DCFFDAFCDBF8DFD9
:105A340067E202E41DE8CFEAE7EC46EFB4F106F6CC
:105A440090F8FBFA88FD74FFFC0073FFFBFCEFFB8E
:105A540023F98FF600F7A9F88DFA23FD24015806DF
:105A64008909770B850C6B0E990F840F5E10521009
:105A74001E117E113A11B3119C10A60F040D4F0A8A
:105A8400FC091708FF05E105EF061D053D02D201DB
:105A94001000BDFC2EFAF2F930FBB6FA30FC38FFE8
:105AA40028008702F1020802B3027E00CE0006FF3E
:105AB4001AFDEEFEE1FDBAFD6DFC76FCFAFCB9FAC6
:105AC400A8FBB2FBE0FCA4008602DF054006340A12
