:020000040800F2
:1000000000000220ED2D0008792D00087B2D00084E
:100010007D2D00087F2D0008812D000800000000C4
:10002000000000000000000000000000832D000818
:10003000852D000800000000872D0008892D00088C
:100040003D2E00083D2E00083D2E00083D2E0008E4
:100050003D2E00083D2E00083D2E00083D2E0008D4
:100060003D2E00083D2E00083D2E00083D2E0008C4
:100070003D2E00083D2E00083D2E00083D2E0008B4
:10008000912D00083D2E00083D2E00083D2E000851
:100090003D2E00083D2E00083D2E00083D2E000894
:1000A0003D2E00083D2E00083D2E00083D2E000884
:1000B0003D2E00083D2E00083D2E00083D2E000874
:1000C0003D2E00083D2E00083D2E00083D2E000864
:1000D0003D2E00083D2E00083D2E00083D2E000854
:1000E0003D2E00083D2E00083D2E00083D2E000844
:1000F0003D2E00083D2E00083D2E00083D2E000834
:100100003D2E00083D2E00083D2E00083D2E000823
:100110003D2E00083D2E00083D2E00083D2E000813
:100120003D2E00083D2E00083D2E00083D2E000803
:100130003D2E00083D2E00083D2E00083D2E0008F3
:100140003D2E00083D2E00083D2E00083D2E0008E3
:100150003D2E00083D2E00083D2E00083D2E0008D3
:100160003D2E00083D2E00083D2E00083D2E0008C3
:100170003D2E00083D2E00083D2E00080000000026
:080180003D2E00083D2E000891
:1001880010B5054C237833B9044B13B10448AFF3C9
:1001980000800123237010BD0C0000200000000027
:1001A800B02E000808B5034B1BB103490348AFF351
:1001B800008008BD0000000010000020B02E0008DC
:1001C80053B94AB9002908BF00281CBF4FF0FF31B6
:1001D8004FF0FF3000F072B9ADF1080C6DE904CEB4
:1001E80000F006F8DDF804E0DDE9022304B070470A
:1001F8002DE9F047089E04468846002B4BD18A42D9
:10020800154667D9B2FA82F24AB1C2F1200701FA5B
:1002180002F320FA07F7954047EA030894404FEAAB
:10022800154E230CB8FBFEF71FFA85FC0EFB17884A
:1002380043EA084307FB0CF1994209D9EB1807F187
:10024800FF3080F01B81994240F21881023F2B4415
:100258005B1AA4B2B3FBFEF00EFB103344EA03446E
:1002680000FB0CFCA44509D92C1900F1FF3380F0E0
:100278000781A44540F2048102382C4440EA074033
:10028800A4EB0C0400271EB1D4400023C6E90043A8
:100298003946BDE8F0878B4209D9002E00F0EB8083
:1002A8000027C6E9000138463946BDE8F087B3FAA9
:1002B80083F7002F47D18B4202D3824200F2FA80A3
:1002C800841A61EB030301209846002EE0D0C6E9AA
:1002D8000048DDE702B9FFDEB2FA82F2002A40F0F8
:1002E8008F80491B4FEA154E1FFA85F80127B1FB8D
:1002F800FEFC230C0EFB1C1143EA014308FB0CF126
:10030800994207D9EB180CF1FF3002D2994200F25A
:10031800CD808446591AA3B2B1FBFEF00EFB10142F
:1003280043EA044408FB00F8A04507D92C1900F15A
:10033800FF3302D2A04500F2B6801846A4EB0804A9
:1003480040EA0C409FE7C7F1200CBB4022FA0CFEA4
:100358004EEA030E01FA07F420FA0CF521FA0CF321
:100368004FEA1E482543B3FBF8F92C0C08FB193358
:100378001FFA8EFA44EA034309FB0AF49C4202FA84
:1003880007F200FA07F10BD91EEB030309F1FF305E
:1003980080F087809C4240F28480A9F1020973446E
:1003A8001B1BADB2B3FBF8F008FB103345EA03445E
:1003B80000FB0AFAA24508D91EEB040400F1FF333A
:1003C8006BD2A24569D90238744440EA0940A0FBBF
:1003D8000289A4EB0A044C45C2464B4654D351D07B
:1003E800002E69D0B1EB0A0564EB030404FA0CFC97
:1003F800FD40FC404CEA0505C6E90054002747E7E4
:10040800C2F1200320FA03F7954001FA02F021FA1D
:1004180003F34FEA154E3843010CB3FBFEF71FFAFE
:1004280085F80EFB173341EA034107FB08F38B42BB
:1004380004FA02F407D9691807F1FF3C2FD28B425E
:100448002DD9023F2944CB1A81B2B3FBFEF00EFB33
:10045800103341EA034100FB08F38B4207D96918BE
:1004680000F1FF3C17D28B4215D902382944C91A2A
:1004780040EA07473BE73746304609E70746E7E6DD
:100488001846FBE64145ABD2B8EB020A69EB0E020F
:1004980001381346A4E76046E9E7184695E767463A
:1004A800D1E781467CE702382C4447E7ACF1020CDF
:1004B8002B442FE7384608E73746E9E6704700BF80
:1004C80010B504460E4B18784FF47A73B3FBF0F36B
:1004D8000C4A1068B0FBF3F000F0A8F868B90F2CCC
:1004E80001D901200AE0002221464FF0FF3000F038
:1004F8005DF8034B5C60002000E0012010BD00BFE8
:10050800000000200800002008B50B4B1A6842F4D0
:1005180000721A601A6842F480621A601A6842F41B
:1005280080721A60032000F02FF80020FFF7C8FF40
:1005380002F012FB002008BD003C0240034A11688B
:10054800034B1B780B441360704700BF80000020EA
:1005580000000020014B1868704700BF8000002091
:1005680038B50446FFF7F6FF0546B4F1FF3F02D061
:10057800044B1B781C44FFF7EDFF401BA042FAD345
:1005880038BD00BF00000020074AD36823F4E063A9
:100598001B041B0C000200F4E060184340F0BF602D
:1005A80040F40030D060704700ED00E030B4174BE5
:1005B800DB68C3F30223C3F10704042C28BF042417
:1005C8001D1D062D18D9033B4FF0FF3505FA04F41D
:1005D80021EA0401994005FA03F322EA03031943C7
:1005E80000280BDB0901C9B200F1604000F5614049
:1005F80080F8001330BC70470023E5E700F00F00D7
:100608000901C9B2024B1954F4E700BF00ED00E03C
:1006180014ED00E000F01F02400901239340024A54
:1006280042F82030704700BF00E100E00138B0F127
:10063800807F0AD2064B5860064AF02182F82310C0
:100648000020986007221A6070470120704700BF99
:1006580010E000E000ED00E00268D3B2103B0B4967
:10066800A1FB03131B090A49C95CC165032B06D802
:1006780022F47F7222F003028265806D704722F4B3
:100688007F7222F0030204328265F6E7ABAAAAAAB7
:10069800C82E0008836A826992B9012B0AD01BB15F
:1006A800022B01D000207047C36A13F0807F2CD141
:1006B80000207047C36AB3F1C07F28D0002070477C
:1006C800B2F5005F05D0022B29D9032B15D00020E5
:1006D8007047032B03D8DFE803F01C041C0A002032
:1006E8007047C36A13F0807F15D100207047C36A32
:1006F800B3F1C07F11D000207047C36A13F0807F28
:1007080001D0012070470020704701207047012068
:100718007047012070470120704701207047012071
:100728007047000070B50446FFF714FF002C5BD03B
:100738000546002384F83430022384F835302268D3
:10074800136823F00103136023681A6812F0010F7D
:100758000AD0FFF7FFFE401B0528F5D92023636563
:10076800032084F8350070BD1A682048104061687D
:10077800A2680A43E1680A4321690A4361690A4396
:10078800A1690A43E1690A43216A0A430243616A8B
:1007980004291ED01A602668756925F00705636A62
:1007A8001D43042B07D1A36A1D43E36A1BB12046EE
:1007B800FFF770FF90B975612046FFF74DFFE26DB6
:1007C8003F239340836000206065012384F835301F
:1007D800C9E7E16A206B01430A43DBE7402363650D
:1007E800012084F83500BEE70120BCE73F8010F007
:1007F800F0B583B0044600230193724B1D68724B19
:10080800A3FB0535AD0A876D3E68C26D082393408A
:10081800334210D003681A6812F0040F0BD01A681C
:1008280022F004021A60C26D08239340BB60436D36
:1008380043F001034365E26D01239340334209D03D
:100848002268526912F0800F04D0BB60636D43F0D8
:1008580002036365E26D04239340334209D02268A2
:10086800126812F0020F04D0BB60636D43F00403FA
:100878006365E26D10239340334224D022681268E6
:1008880012F0080F1FD0BB6023681A6812F4802F7B
:100898000DD01B6813F4002F04D1236C9BB12046A4
:1008A800984710E0A36C73B1204698470BE01A688C
:1008B80012F4807F03D11A6822F008021A60236CB0
:1008C8000BB120469847E26D20239340334255D020
:1008D8002268126812F0100F50D0BB6094F83530BF
:1008E800DBB2052B0ED023681A6812F4802F33D0A0
:1008F8001B6813F4002F2AD1636C002B3ED02046CE
:1009080098473BE02268136823F0160313602268B7
:10091800536923F080035361236CA3B122681368E1
:1009280023F008031360E26D3F239340BB6000236C
:1009380084F83430012384F83530236D002B3FD000
:10094800204698473CE0A36C002BE7D1EBE7E36B2C
:10095800A3B12046984711E01A6812F4807F09D1A4
:100968001A6822F010021A60002384F83430012338
:1009780084F83530E36B0BB120469847636DFBB1C3
:10098800636D13F0010F17D0052384F83530226802
:10099800136823F001031360019B01330193AB42F9
:1009A80004D823681B6813F0010FF5D1002384F8DD
:1009B8003430012384F83530E36C0BB12046984776
:1009C80003B0F0BD08000020B5814E1B00230F2B9B
:1009D80000F2D780F0B482B039E0072200E00022AC
:1009E800B2403A430234674E46F82420664A1468F7
:1009F800EA4302EA04064F6817F4803F01D045EA4B
:100A08000406614C2660646802EA04064F6817F41D
:100A1800003F01D045EA04065B4C6660A46802EA20
:100A280004064F6817F4801F01D045EA0406564CA7
:100A3800A660E46822404E6816F4001F01D045EA1B
:100A48000402514CE26001330F2B00F2978001221F
:100A58009A400C6804EA0205AA42F4D14C68022CB8
:100A680001D0122C10D1DE08083650F826C003F049
:100A78000704A7000F24BC402CEA040C0C69BC40F6
:100A880044EA0C0440F8264004685F000326BE4090
:100A9800F64306EA040C4C6804F00304BC4044EA3C
:100AA8000C0404604C6804F1FF3CBCF1010F03D94D
:100AB800112C01D0122C10D1846806EA040CCC68E1
:100AC800BC4044EA0C048460446824EA02024C688E
:100AD800C4F300149C4014434460C26816408A68FA
:100AE800BA403243C2604A6812F0805FABD000223D
:100AF8000192264A546C44F480445464526C02F4C3
:100B080080420192019A9C08A61C1E4A52F826703F
:100B180003F0030296000F22B24027EA02071C4A9C
:100B280090423FF45CAF02F5806290421AD002F521
:100B38008062904218D002F58062904216D002F589
:100B48008062904214D002F58062904212D002F581
:100B58008062904210D002F5806290423FF43DAF2F
:100B680008223DE701223BE7022239E7032237E763
:100B7800042235E7052233E7062231E702B0F0BC4C
:100B88007047704700380140003C0140003802407F
:100B98000000024012B90904816170478161704701
:100BA80003685A6912F4806F0DD06FF480625A613D
:100BB8000423036400230363202280F83D2080F887
:100BC8003C300120704700207047F8B506460C46B7
:100BD80017461D461EE02DB1FFF7BCFC069BC01A48
:100BE800A84217D900233363202286F83D2086F8CF
:100BF8003E3086F83C3003201AE033685B6924EA0B
:100C080003039BB2B3FA83F35B099F420FD1B5F19B
:100C1800FF3FE0D1C4F30743012BEED033689B6953
:100C280024EA03039BB2B3FA83F35B09EDE70020E0
:100C3800F8BDF8B504460D4616461F4632E01A6858
:100C480042F400721A6023686FF480625A610423C8
:100C5800236400232363202284F83D2084F83C3059
:100C680001202DE026B1FFF775FCC01BB04219D951
:100C780000232363202284F83D2084F83C3003209D
:100C88001EE023685B6925EA03039BB2003318BFA3
:100C98000123A3B123685A6912F4806FCFD1B6F14A
:100CA800FF3FDFD1C5F30743012BEAD023689B69D7
:100CB80025EA03039BB2003318BF0123E9E70020AC
:100CC800F8BD0000F0B583B004460D4616461F4631
:100CD800C36A042B0DD0012B0BD013F5803F08D02D
:100CE800036B122B0AD10268136843F480731360F4
:100CF80004E02268136843F4807313600097334656
:100D080000224FF001112046FFF75FFF58BB23690F
:100D1800B3F5804F10D1236805F0FE051D613B46F1
:100D2800324615492046FFF784FF0346E0B1236C9D
:100D3800042B1ED1012317E0EB11226803F00603F0
:100D480043F0F00313613B4632460C492046FFF757
:100D580070FF20B1236C042B09D1012304E0236820
:100D6800EDB21D61DBE70323184603B0F0BD032392
:100D7800FAE70323F8E700BF0200010008000100BA
:100D88002DE9F04184B004460D4616461F46C26A56
:100D980001680B6843F480630B60042A0DD0012AB4
:100DA8000BD012F5803F08D0036B112B0AD10268D3
:100DB800136843F48073136004E02268136843F4F3
:100DC800807313600097334600224FF001112046CC
:100DD800FFF7FBFE002852D12369B3F5804F12D1EB
:100DE800236845F00105EDB21D613B4632462A49AC
:100DF8002046FFF71EFF0346002841D0236C042B32
:100E080048D101233CE04FEAE51808F006082368BA
:100E180048F0F0021A613B46324620492046FFF767
:100E280008FF20B1236C042B2ED1012328E023686E
:100E3800EDB21D613B46324617492046FFF7F9FEE1
:100E480020B1236C042B21D1012319E00022039245
:100E5800236859690391996903910399196841F4C1
:100E680080711960009733464FF001112046FFF753
:100E7800ACFE68B9226848F0F1031361B5E70323B3
:100E8800184604B0BDE8F0810323F9E70323F7E728
:100E98000323F5E70323F3E702000100080001003C
:100EA80070B504460D46164623685B6913F0800F3B
:100EB80019D12046FFF774FEB8B9B5F1FF3FF3D05A
:100EC80025B1FFF747FB801BA842EDD9236C43F0FF
:100ED8002003236400232363202284F83D2084F820
:100EE8003C30032000E0002070BD0120FCE770B515
:100EF80004460D46164623685B6913F0040F19D1A2
:100F08002046FFF74DFEB8B9B5F1FF3FF3D025B144
:100F1800FFF720FB801BA842EDD9236C43F0200388
:100F2800236400232363202284F83D2084F83C3086
:100F3800032000E0002070BD0120FCE770B50546E5
:100F48000C4616462B685A6912F0400F22D15A698E
:100F580012F0100F11D124B1FFF7FCFA801BA04248
:100F6800F0D92B6C43F020032B64202385F83D3007
:100F7800002385F83C30032070BD6FF010025A61E1
:100F880000232B642B63202285F83D2085F83C3014
:100F98000120F1E70020EFE7002800F0828010B57B
:100FA800044690F83D30002B41D0242384F83D308E
:100FB8002268136823F00103136001F0DBF93A4B50
:100FC800A3FB00239B0C226853606168374A914257
:100FD80032D80133226813626368344A934235D8A1
:100FE8005B00B0FBF3F0C0F30B03032B00D8042025
:100FF8002368D861E369216A22680B431360236977
:10100800E16822680B4393606369A16922680B4316
:10101800D3602268136843F0010313600020206442
:10102800202384F83D30206384F83E0010BD80F80A
:101038003C3001F0B1FDB8E74FF4967202FB03F3C0
:101048001B4AA2FB03239B090133C3E7A16889B9A3
:1010580003EB4302B0FBF2F2C2F30B02B2FA82F2E4
:101068005209E2B991B903EB4303B0FBF3F040F442
:101078000040BDE703EB830202EB8202B0FBF2F211
:10108800C2F30B02B2FA82F25209EAE703EB8303D6
:1010980003EB8303B0FBF3F040F44040A8E70120E2
:1010A800A6E70120704700BF83DE1B43A08601002E
:1010B800D34D62102DE9F04184B004460E469046A7
:1010C8001F46FFF747FA94F83D30DBB2202B04D0D7
:1010D8000226304604B0BDE8F08105460090192389
:1010E800012254492046FFF770FD002840F09980FE
:1010F80094F83C30012B00F09680012384F83C30B2
:1011080023681A6812F0010F03D11A6842F001022D
:101118001A602268136823F400631360212384F89B
:101128003D30102384F83E3000232364C4F8248023
:101138006785A3F58033E362638D23852B460A9A7E
:1011480031462046FFF7BEFD064660B1236C042BEE
:1011580004D1002384F83C300126BAE7002384F840
:101168003C300326B5E70023039323685A690392AA
:101178009B690393039B10E0236C042B55D12268D1
:10118800136843F4007313600126A2E72A460A99FC
:101198002046FFF7ACFE00282BD1238D002B32D040
:1011A8002A460A992046FFF77BFE0028E4D1636AA5
:1011B8005A1C626222681B781361638D013B9BB2E3
:1011C8006385238D013B9BB223852268516911F009
:1011D800040FDBD0002BD9D0636A591C61621B78DD
:1011E8001361638D013B9BB26385238D013B23858E
:1011F800CCE7236C042B1AD12268136843F40073DC
:101208001360012665E72268136843F400731360CE
:10121800202384F83D30002384F83E3084F83C30A5
:1012280057E7022655E7022653E7032651E7032628
:101238004FE700BF020010002DE9F04186B00446D8
:101248000E4690461F46FFF785F994F83D30DBB20D
:10125800202B04D00226304606B0BDE8F0810546B2
:101268000090192301228C492046FFF7AEFC002884
:1012780040F04B8194F83C30012B00F04881012369
:1012880084F83C3023681A6812F0010F03D11A68F9
:1012980042F001021A602268136823F400631360A5
:1012A800222384F83D30102384F83E300023236441
:1012B800C4F824806785A3F58033E362638D2385B2
:1012C8002B460C9A31462046FFF75AFD064660B178
:1012D800236C042B04D1002384F83C300126BAE7A0
:1012E800002384F83C300326B5E7238D5BB90293CD
:1012F80023685A6902929A690292029A1A6842F419
:1013080000721A607AE0012B0FD0022B1FD02268DE
:10131800136843F4806313600023059323685A69B4
:1013280005929B690593059B68E02268136823F47E
:10133800806313600023039323685A6903929A69B0
:101348000392039A1A6842F400721A6056E02268FF
:10135800136823F4806313602268136843F40063FE
:1013680013600023049323685A6904929B690493C9
:10137800049B43E02A460C992046FFF7DFFD68B935
:1013880023681A69636A591C61621A70238D013BCC
:101398002385638D013B9BB263852FE0236C202B53
:1013A80001D0012657E7032655E700950C9B00223C
:1013B8003A492046FFF709FC002840F0AA80226835
:1013C800136843F40073136023681A69636A591C2D
:1013D80061621A70238D013B2385638D013B9BB2AB
:1013E800638523681A69636A591C61621A70238DC0
:1013F800013B2385638D013B9BB26385238D002BC5
:101408007AD0032B4CD8012BB4D0022BCDD0009529
:101418000C9B002221492046FFF7D7FB00287AD1F0
:101428002268136823F48063136023681A69636A67
:10143800591C61621A70238D013B2385638D013B22
:101448009BB2638500950C9B002214492046FFF748
:10145800BCFB002861D12268136843F40073136051
:1014680023681A69636A591C61621A70238D013BEB
:101478002385638D013B9BB2638523681A69636A80
:10148800591C61621A70238D013B2385638D013BD2
:101498009BB26385B2E700BF0200100004000100A0
:1014A8002A460C992046FFF749FDF0B923681A69C6
:1014B800636A591C61621A70238D013B2385638D11
:1014C800013B9BB2638523685A6912F0040F95D0DB
:1014D8001A69636A591C61621A70238D013B23855E
:1014E800638D013B9BB2638588E7236C202B01D079
:1014F8000126B0E60326AEE6202384F83D3000231B
:1015080084F83E3084F83C30A5E60226A3E602269D
:10151800A1E603269FE603269DE603269BE600BF79
:101528002DE9F04105460F4616461C46FFF712F80E
:10153800804614E02CB1FFF70DF8A0EB0800A0429C
:101548000DD9012385F84130002385F84030032068
:101558000DE00123B34209D0B4F1FF3FEAD12B6873
:101568009B6837EA0303F4D00023F3E70020BDE8C3
:10157800F081704708B5436A9A1C426202681B886A
:10158800D360438D013B9BB24385438D9BB203B12E
:1015980008BD0268536823F0A0031B041B0C5360AA
:1015A800012380F84130FFF7E4FFF1E7704708B501
:1015B8000368DA68C36A991CC1621A80438E013BCA
:1015C8009BB24386438E9BB203B108BD0268536841
:1015D80023F060031B041B0C5360012380F8413087
:1015E800FFF7E4FFF1E77047002800F0BB8070B513
:1015F8000446022580F841505B4B436301F006FB2B
:101608002268D36923F47B6323F00F03D361236833
:101618001D622368DD696369022B5BD0E368002BD8
:101628003ED02026A368202B00D87600012000F0A9
:101638005BFF2369B3F5007F34D0B0FBF6F000EB15
:10164800800043006269B3FBF2F30533474AA2FB0B
:101658000323DB0803F001029B1AC3F34F031102B3
:101668009A1EFD2A38D822690A43216813430B625F
:101678006268A168E068238B03439BB20B439BB26B
:1016880013439BB243F400631D432368DD61236A5F
:10169800012B2AD000206064012384F8413070BDFA
:1016A8001026BFE7E36853B1B600B0FBF6F000EBD5
:1016B800800043006269B3FBF2F30533C6E7F60026
:1016C800B0FBF6F000EB800043006269B3FBF2F375
:1016D8000533BBE70021C3E7636C43F01003636481
:1016E8002046FFF780FF0120D9E7214B636322687A
:1016F800204B9A421ED04FF04022D36923F47B63DB
:1017080023F00F03D36122681A4B9A4214D04FF08A
:10171800402302221A622268164B9A420FD04FF0D9
:101728004022D0696168B1F5007F0AD0C1B94FF491
:10173800807608E0104AE0E7A3F58063E9E70E4AFF
:10174800EFE74FF48076A168E568238B2B439BB2C3
:101758000B439BB2334343F400630343D36199E7DC
:101768000026F0E70120704785170008CDCCCCCCC7
:10177800A11B0008003800400034004010B584B0B8
:10178800044602689368039390F84130DBB2042B57
:1017980006D094F84130DBB2032B2ED004B010BD34
:1017A800039B13F0010F03D0536813F0400F21D1AE
:1017B800039B13F0400FECD023685A6812F0200FF7
:1017C800E7D05A6822F060021204120C5A60002313
:1017D80001932368DA6801929B680193019B0123B6
:1017E80084F84130636C43F0020363642046FFF7DA
:1017F800FAFECEE7FFF7DBFEDAE7039B13F0020FF2
:1018080004D023685B6813F0800F1FD1039B13F08B
:10181800080FC3D023685A6812F0200FBED05A6848
:1018280022F0A0021204120C5A60002302932368CB
:101838009B680293029B012384F84130636C43F058
:10184800040363642046FFF7CEFEA7E72046FFF7B0
:1018580091FEDBE700296DD070B582B004461D46C5
:101868000846002A68D094F84130DBB2012B66D1D3
:101878002368DB6903F00703032B04D0052B02D090
:101888002285628503E0520092B22285628594F82F
:101898004030DBB2012B54D0012384F840300023C0
:1018A8006364032384F841302368DA6912F4806F93
:1018B80003D1DA6942F48062DA61638D9BB2002B4E
:1018C80031D0861C23680288DA60638D013B9BB2A5
:1018D80063852B46012202212046FFF721FE30B9FD
:1018E80023689A6812F0080F0AD13046E5E7636C5E
:1018F80043F0010363642046FFF775FE03201CE0F4
:10190800002201929B680193019B012584F84150B4
:1019180084F84020636C43F0040363642046FFF7B7
:1019280062FE284609E0012384F84130002084F84B
:10193800400002E001207047012002B070BD022083
:10194800FBE70220F9E700297CD070B582B0044695
:101958001E460D46002A77D090F84130DBB2012BA5
:1019680075D10368DB6903F00703032B04D0052B4B
:1019780002D00286428603E0520092B22286628634
:1019880094F84030DBB2012B63D0012384F8403057
:1019980000236364042384F841302368DA6912F46D
:1019A800806F03D1DA6942F48062DA612268D36910
:1019B80003F44073B3F5407F17D0638E9BB2002BBE
:1019C80039D03346012211462046FFF7A9FDA0B9B8
:1019D80023689A6812F0400F18D1DB682B80638E59
:1019E800013B9BB263860235E7E700230093D36887
:1019F800009393680093009BDFE7636C43F0010357
:101A080063642046FFF7EFFD03201EE000220192E9
:101A1800D96801919B680193019B012584F8415085
:101A280084F84020636C43F0020363642046FFF7A8
:101A3800DAFD284609E0012384F84130002084F8C3
:101A4800400002E001207047012002B070BD022072
:101A5800FBE70220F9E7704708B5E9B9436A9A1C21
:101A6800426202681B88D360438D013B9BB2438569
:101A7800438D9BB24BB90268536823F0A0031B0443
:101A88001B0C5360438E9BB203B108BD012380F841
:101A98004130FFF7E0FFF8E7436A9A1C42621A8870
:101AA8000168134B99421ED04FF04023DA60438DF2
:101AB800013B9BB24385438D9BB2002BE5D1026865
:101AC8000B4B9A4212D04FF04022536823F0A003E8
:101AD8005360438E9BB2002BD7D1012380F841304D
:101AE800FFF7B9FFD1E7A3F58063DFE7014AECE729
:101AF800003800400034004008B5E9B90368DA68E6
:101B0800C36A991CC1621A80438E013B9BB243860B
:101B1800438E9BB24BB90268536823F060031B04E1
:101B28001B0C5360438D9BB203B108BD012380F8A1
:101B38004130FFF790FFF8E70268154B9A4222D030
:101B48004FF04023DA68C36A991CC1621A80438E39
:101B5800013B9BB24386438E9BB2002BE5D10268C2
:101B68000B4B9A4212D04FF04022536823F0600387
:101B78005360438D9BB2002BD7D1012380F84130AD
:101B8800FFF769FFD1E7A3F58063DBE7014AECE7DC
:101B9800003800400034004010B584B004460368A3
:101BA8009A6803927C4A93425DD04FF040218A683C
:101BB8000292DA6902F44072B2F5007F04D0DA6961
:101BC80012F4407F40F08180039A12F0020F03D094
:101BD8005B6813F0800F48D1029B13F0010F09D006
:101BE80022686D4B9A4245D04FF040235B6813F052
:101BF800400F42D1029B13F0400F09D02268664B78
:101C08009A423FD04FF040235A6812F0200F3CD13F
:101C1800039B13F0080F24D023685A6812F0200F92
:101C28001FD05A6822F0A0021204120C5A602268CF
:101C3800594B9A4247D04FF04022536823F0600333
:101C480053600023019323689B680193019B012340
:101C580084F84130636C43F0040363642046FFF763
:101C6800C2FC04B010BD4D49A1E700212046FFF792
:101C7800F3FEB1E7A3F58063B8E701212046FFF73B
:101C88003BFFB7E7A3F58063BEE75A6822F060021E
:101C98005A602268536823F0A0031B041B0C53608E
:101CA800002300932368DA6800929B680093009BE6
:101CB800012384F84130636C43F0020363642046D7
:101CC800FFF791FCA4E7354AB7E7029B13F0020F30
:101CD80003D04B6813F0800F4FD1039B13F0010F13
:101CE80004D023685B6813F0400F4BD1039B13F0BB
:101CF800400F1ED023685A6812F0200F19D05A6876
:101D080022F060021204120C5A602268224B9A4296
:101D18003DD04FF04022536823F0A00353600123C5
:101D280084F84130636C43F0020363642046FFF794
:101D38005AFC029B13F0080F93D02268164B9A4264
:101D480027D04FF040235A6812F0200F89D05A68E4
:101D580022F0A0025A602268536823F060031B0433
:101D68001B0C5360012384F84130636C43F0040377
:101D780063642046FFF737FC73E701212046FFF72D
:101D88006BFEAAE700212046FFF7B6FEAEE7034A3E
:101D9800C1E7A3F58063D6E700380040003400406F
:101DA800002800F0BB8170B582B00446036813F0C8
:101DB800010F3BD0A74B9B6803F00C03042B2CD0DE
:101DC800A44B9B6803F00C03082B21D06368B3F580
:101DD800803F4FD0B3F5A02F52D09E4B1A6822F403
:101DE80080321A601A6822F480221A606368002B15
:101DF80050D0FEF7AFFB0546964B1B6813F4003F27
:101E080014D1FEF7A7FB401B6428F5D903208AE10B
:101E1800904B5B6813F4800FD8D08E4B1B6813F47B
:101E2800003F03D06368002B00F07A81236813F029
:101E3800020F55D0874B9B6813F00C0F3ED0854B93
:101E48009B6803F00C03082B33D0E368002B68D0A1
:101E5800814B01221A60FEF77DFB05467D4B1B680E
:101E680013F0020F54D1FEF775FB401B0228F5D979
:101E7800032058E1774A136843F480331360B5E7C9
:101E8800744B1A6842F480221A601A6842F480324D
:101E98001A60ABE7FEF75EFB05466E4B1B6813F452
:101EA800003FC3D0FEF756FB401B6428F5D903203A
:101EB80039E1684B5B6813F4800FC6D1654B1B682A
:101EC80013F0020F04D0E368012B01D001202AE1AE
:101ED800604A136823F0F803216943EAC1031360D9
:101EE800236813F0080F40D0636963B35B4B01228A
:101EF8001A60FEF72FFB0546564B5B6F13F0020F77
:101F080033D1FEF727FB401B0228F5D903200AE14D
:101F1800504A136823F0F803216943EAC1031360A8
:101F2800DEE74D4B00221A60FEF714FB0546494BCD
:101F38001B6813F0020FD3D0FEF70CFB401B0228DE
:101F4800F5D90320EFE0454B00221A60FEF702FBAB
:101F58000546404B5B6F13F0020F06D0FEF7FAFA06
:101F6800401B0228F5D90320DDE0236813F0040F95
:101F780079D0384B1B6C13F0805F33D10023019369
:101F8800344B1A6C42F080521A641B6C03F0805375
:101F98000193019B0125324B1B6813F4807F23D0EA
:101FA800A368012B34D0052B38D02A4B1A6F22F0A6
:101FB80001021A671A6F22F004021A67A368002B3D
:101FC80036D0FEF7C7FA0646224B1B6F13F0020FF6
:101FD80048D1FEF7BFFA801B41F288339842F3D903
:101FE8000320A0E00025D6E71D4A136843F4807358
:101FF8001360FEF7AFFA0646194B1B6813F4807F8F
:10200800CED1FEF7A7FA801B0228F5D903208AE073
:10201800104A136F43F001031367CFE70D4B1A6F94
:1020280042F004021A671A6F42F001021A67C5E704
:10203800FEF790FA0646074B1B6F13F0020F11D0FC
:10204800FEF788FA801B41F288339842F3D90320BF
:1020580069E000BF0038024000004742800E474256
:1020680000700040E5B9A369002B5BD0304A926844
:1020780002F00C02082A58D0022B17D02D4B002250
:102088001A60FEF767FA0446294B1B6813F0007FB5
:1020980042D0FEF75FFA001B0228F5D9032042E080
:1020A800234A136C23F080531364DCE7214B00228E
:1020B8001A60FEF74FFA05461D4B1B6813F0007FA8
:1020C80006D0FEF747FA401B0228F5D903202AE07C
:1020D800E369226A1343626A43EA8213A26A5208D6
:1020E800013A43EA0243E26A43EA0263104A536050
:1020F800104B01221A60FEF72DFA04460C4B1B68A0
:1021080013F0007F06D1FEF725FA001B0228F5D947
:10211800032008E0002006E0002004E001207047CA
:10212800012000E0002002B070BD0120FBE700BFE5
:102138000038024060004742324B9B6803F00C03B2
:10214800042B5CD0082B01D02F4870472DE9F04BA9
:102158002C4B5A6802F03F025B6813F4800F2BD0B7
:10216800284B5B68C3F388131E4600275C010025D3
:10217800E41A65EB0705A90141EA9461A001001B77
:1021880061EB0501CB0043EA5073C400A01943EB8F
:1021980007014B0243EAD053440220461946002364
:1021A800FEF70EF8174B5B68C3F3014301335B007E
:1021B800B0FBF3F0BDE8F08B124B5B68C3F38813F8
:1021C8001E4600275C010025E41A65EB0705A901F6
:1021D80041EA9461A001001B61EB0501CB0043EAD1
:1021E8005073C400A01943EB07018B0243EA9053D4
:1021F8008402204619460023FDF7E2FFD2E7034890
:10220800704700BF003802400024F40000127A0032
:10221800002800F09D8070B504464F4B1B6803F002
:102228000F038B4209D2CBB24B4A1370136803F0E9
:102238000F038B4201D0012070BD236813F0020FF9
:1022480017D013F0040F04D0444A936843F4E053C2
:102258009360236813F0080F04D0404A936843F44E
:10226800604393603D4A936823F0F003A0680343FA
:1022780093600D46236813F0010F32D06368012B79
:1022880021D09A1E012A25D9344A126812F0020F69
:1022980060D032498A6822F0030213438B60FEF74C
:1022A80059F906462D4B9B6803F00C036268B3EBA3
:1022B800820F16D0FEF74EF9801B41F28833984200
:1022C800F0D90320B8E7254A126812F4003FE0D19C
:1022D8000120B1E7214A126812F0007FD9D101200C
:1022E800AAE71D4B1B6803F00F03AB4209D9EAB2FA
:1022F800194B1A701B6803F00F03AB4201D0012081
:102308009AE7236813F0040F06D0144A936823F45D
:10231800E053E1680B439360236813F0080F07D07C
:102328000E4A936823F46043216943EAC10393602A
:10233800FFF702FF094B9B68C3F30313084AD35CFA
:10234800D840084B18600020FEF7BAF8002073E761
:102358000120704701206FE7003C0240003802402E
:10236800D032000808000020014B1868704700BFF1
:102378000800002008B5FFF7F7FF044B9B68C3F37C
:102388008223034AD35CD84008BD00BF003802400E
:10239800E032000830B583B00446036813F0050F37
:1023A80006D1236813F0020F2ED1002003B030BDF0
:1023B800494B00221A60FEF7CDF80546474B1B68CB
:1023C80013F0006F06D0FEF7C5F8401B0228F5D9B8
:1023D8000320EBE76268A3681B0743EA82133F4ABE
:1023E800C2F884303C4B01221A60FEF7B3F8054668
:1023F8003A4B1B6813F0006FD3D1FEF7ABF8401BC4
:102408000228F5D90320D1E700230193334B1A6C36
:1024180042F080521A641B6C03F080530193019BB5
:102428002F4A136843F480731360FEF793F8054648
:102438002B4B1B6813F4807F06D1FEF78BF8401BEB
:102448000228F5D90320B1E7244B1B6F13F440731E
:1024580012D0E26802F440729A420DD01F4B1A6FF4
:1024680022F440721F4901200860002008601A67A2
:102478001B6F13F0010F13D1E36803F44072B2F538
:10248800407F1ED0154A936823F4F81393601349CC
:102498000B6FE268C2F30B0213430B67002085E75A
:1024A800FEF758F805460D4B1B6F13F0020FE3D1EA
:1024B800FEF750F8401B41F288339842F3D90320C5
:1024C80074E706498A6822F4F81223F0704323F46B
:1024D800407313438B60DAE76800474200380240D4
:1024E80000700040400E474201282AD1174B9B68D4
:1024F80013F4000303D0012B25D115487047134B63
:102508005B6813F4800F14D0104B5B6803F03F0333
:102518001048B0FBF3F00D4AD2F88430C3F38813A7
:1025280000FB03F0D2F88430C3F30273B0FBF3F07E
:102538007047064B5B6803F03F030748B0FBF3F0B6
:10254800E9E7002070470020704700BF00380240CC
:102558000080BB0000127A000024F40010B582B09D
:10256800064C20700B786370642300930223224684
:102578009421201DFEF79EFD02B010BD280000200A
:1025880070B582B00E460A4A144604F8040B642556
:102598000095012394212046FEF78CFD0095012328
:1025A800324694212046FEF747FE02B070BD00BFB8
:1025B8002800002084B070B504AC84E80F009DF8B2
:1025C8006460444B002283F840201A68D36943F4BE
:1025D8008063D361012210213F48FEF7DBFA3F4CAC
:1025E800542204A9201D00F04BFC012363702146EE
:1025F8000220FFF7B3FF2546AF2305F8013F294620
:102608000420FFF7ABFF8023637029460520FFF7FE
:10261800A5FF21460620FFF7B3FF637803F02003E8
:1026280043F00703637029460620FFF797FF294602
:102638000820FFF7A5FF637803F0F00343F00103D8
:10264800637029460820FFF789FF29460920FFF70C
:1026580097FF637803F0F00343F0010363702946A2
:102668000920FFF77BFF29460E20FFF789FF012E7F
:1026780028D016B9194B02225A70184D6C1C2146E5
:102688000E20FFF76BFF21460F20FFF779FF00268A
:102698006E7021460F20FFF761FF6E7021461420EF
:1026A800FFF75CFF21461520FFF758FF21461A2047
:1026B800FFF754FF21461B20FFF750FFBDE870408D
:1026C80004B07047637843F0C00303F0C703637036
:1026D800D3E700BFA4010020000C0240280000201E
:1026E80008B5032806D8DFE800F0020F13170C4BD3
:1026F800F0225A700A494B7843F00F0301F8013F62
:102708000420FFF72BFF08BD054BB0225A70F1E7F4
:10271800034BE0225A70EDE7014BA0225A70E9E71B
:102728002800002038B50446A0F13203DBB25B0074
:10273800114D05F8013F29461420FFF70FFF2946E0
:102748001520FFF70BFF642C14D804EB4404230175
:102758000A4A82FB03235B09183BDBB2064C04F8E8
:10276800013F21462020FFF7F9FE21462120FFF7EF
:10277800F5FE38BD1823F1E7280000201F85EB512E
:1027880038B5194D2C46992304F8013F21460020FD
:10279800FFF7E4FE80236B7021464720FFF7DEFE3B
:1027A80021463220FFF7ECFE6B7863F07F036B70F5
:1027B80021463220FFF7D2FE21463220FFF7E0FE05
:1027C8006B7803F07F036B7021463220FFF7C6FE5B
:1027D800002068702146FFF7C1FE9E236B702146DA
:1027E8000220FFF7BBFE38BD2800002030B58BB0B3
:1027F8000024059406940794089409940094234BA4
:102808001A6B42F080021A631A6B02F0800200927F
:10281800009A01941A6B42F004021A631A6B02F0D0
:1028280004020192019A02941A6B42F001021A639F
:102838001A6B02F001020292029A03941A6B42F098
:1028480002021A631A6B02F002020392039A0494BA
:102858001A6B42F008021A631B6B03F00803049317
:10286800049B0B4D22464FF210012846FEF792F9C1
:102878004FF210030593012306930794089405A9C2
:102888002846FEF7A3F80BB030BD00BF0038024061
:10289800000C024000B583B000210191094B1A6B6E
:1028A80042F400121A631B6B03F400130193019B9B
:1028B8000A461020FDF77AFE1020FDF7ABFE03B0A4
:1028C8005DF804FB0038024008B50948094B03606D
:1028D800094B436000238360C3604FF48042026168
:1028E80043618361C3610362FEF756FB08BD00BF05
:1028F8008400002000540040A086010008B5094863
:10290800094B03604FF40072426000238360C36088
:1029180002614FF47A5242618361C3610362FEF738
:1029280063FE08BDA4010020003C004008B509482A
:10293800094B03604FF44073436000238360C36016
:1029480003614FF47A5242618361C3610362FEF707
:102958004BFE08BD5C0100200038004070B598B0FF
:10296800302200210DEB020000F095FA00240794B4
:10297800089409940A940B94039404940594069477
:102988000194204B1A6C42F080521A641B6C03F0BD
:1029980080530193019B02941B4B1A6842F48042B6
:1029A8001A601B6803F480430293029B01260C966D
:1029B8004FF480330D93022512954FF4800313933F
:1029C80004231493A82315931695072317930CA88B
:1029D800FFF7E6F90F230793089509944FF4A053DE
:1029E8000A934FF480530B93052107A8FFF710FCB7
:1029F800039632230493059503A8FFF7CBFC18B080
:102A080070BD00BF003802400070004070B5ADF5E1
:102A1800FA3D92B0FDF778FDFFF7A0FFFFF7E6FE5D
:102A2800FFF738FFFFF750FFFFF768FFFFF77EFF5C
:102A38001F4C00231193442204F11001684600F052
:102A48001FFA94E80F00FFF7B5FD3220FFF76AFE82
:102A58000120FFF745FEFFF793FE164800F031F816
:102A68001CE012AD134E35F81410304600F034F85F
:102A78001021304600F03AF825F814000134B4F576
:102A88007A4FEEDB4FF47A734FF47A4212A90A4870
:102A9800FEF7E0FE4FF47A70FDF762FD4FF47A73AB
:102AA8004FF47A4212A90548FEF74DFF0024E6E7E5
:102AB8008400002038010020A40100205C010020CF
:102AC80070470023036204E045F2555220F81320B2
:102AD80001330F2BF8DD7047036A20F81310013318
:102AE80003620F2B01DD002303627047F0B5D0F8B5
:102AF80020E0F4460026354623E0C5EB05131344D1
:102B0800144C54F823301E4401320F2A0FDCC2F152
:102B18000F040123A3403B402341012BEDD0C5EB1B
:102B2800051313440B4C54F82330F61AECE70CF158
:102B3800010CBCF10F0F01DD4FF0000CF44504D07F
:102B4800013530F81C700022DFE7C1F11F0146FA99
:102B580001F0F0BDD02E000800B583B0002100912F
:102B68000C4B5A6C42F480425A645A6C02F480420C
:102B78000092009A01911A6C42F080521A641B6C00
:102B880003F080530193019B0720FDF7FDFC03B080
:102B98005DF804FB0038024030B589B00023039388
:102BA80004930593069307930268154B9A4201D044
:102BB80009B030BD00250195124C236B43F0020388
:102BC8002363236B03F002030193019B4FF41073FB
:102BD80003931223049301230593032306930423E9
:102BE800079303A90848FDF7F1FE0295236C43F407
:102BF80000132364236C03F400130293029BD7E7AA
:102C0800005400400038024000040240F0B58DB086
:102C180000230793089309930A930B9303684C4A7C
:102C2800934205D004464B4A934237D00DB0F0BDCD
:102C380000240194484B1A6C42F480421A641A6CBE
:102C480002F480420192019A02941A6B42F0040243
:102C58001A631A6B02F004020292029A03941A6B26
:102C680042F002021A631B6B03F002030393039BF7
:102C7800082307930226089605250B9507A93748C8
:102C8800FDF7A4FE4FF4A0530793089609940A94FD
:102C98000B9507A93248FDF799FEC7E7002504956B
:102CA8002D4B1A6C42F400421A641A6C02F400426A
:102CB8000492049A05951A6B42F001021A631A6B82
:102CC80002F001020592059A06951A6B42F0040279
:102CD8001A631B6B03F004030693069B10230793E8
:102CE8000227089706260B9607A91E48FDF76EFED1
:102CF8004FF4A4530793089709950A950B9607A9CB
:102D08001648FDF763FE1848184B036045604023DA
:102D18008360C5604FF4806303614FF400634361CF
:102D28004FF4005383614FF48073C3610562042339
:102D3800436203238362C5620563FDF7F3FC18B998
:102D4800094BA3639C6371E7FFF7BAFEF8E700BF7E
:102D580000380040003C00400038024000080240B3
:102D68000004024000000240D800002088600240B1
:102D78007047FEE7FEE7FEE7FEE7704770477047DB
:102D880008B5FDF7DBFB08BD08B50248FDF730FDC7
:102D980008BD00BFD80000200F49D1F8883043F49F
:102DA8007003C1F888300D4B1A6842F001021A60AE
:102DB800002098601A6822F0847222F480321A6027
:102DC800074A5A601A6822F480221A60D8604FF0C5
:102DD80000638B60704700BF00ED00E000380240E0
:102DE80010300024DFF834D0002103E00C4B5B588E
:102DF800435004310B480C4B42189A42F6D30B4A05
:102E080002E0002342F8043B094B9A42F9D3FFF74A
:102E1800C3FF00F011F8FFF7F9FD7047000002202A
:102E2800F8320008000000200C0000200C000020F0
:102E3800EC010020FEE7000070B50D4E0D4CA41B00
:102E4800A4100025A54209D10B4E0C4C00F02CF81B
:102E5800A41BA4100025A54205D170BD56F8253045
:102E680098470135EEE756F8253098470135F2E7DF
:102E7800F0320008F0320008F0320008F43200089E
:102E880010B5431E0A44914200D110BD11F8014B00
:102E980003F8014FF7E702440346934200D1704715
:102EA80003F8011BF9E70000F8B500BFF8BC08BC3F
:102EB8009E467047F8B500BFF8BC08BC9E467047F0
:102EC80000061016000610166F7C06003A8C0600E5
:102ED800E7A1060095BD060065DF06007307070039
:102EE800DE350700BF6A070031A607004DE8070076
:102EF80029310800DA80080075D708000C35090068
:102F0800B09909006F050A0058780A0075F20A009E
:102F1800D1730B0075FC0B00668C0C00A9230D0007
:102F280041C20D0030680E0074150F000CCA0F0066
:102F3800F2851000214911009013120036E51200A5
:102F480007BE1300F49D1400EF841500E572160007
:102F5800C567170078631800E8651900FB6E1A004A
:102F6800987E1B00A1941C00F9B01D0080D31E00A0
:102F780014FC1F00912A2100D25E2200B29823007F
:102F880006D82400A51C26006466270015B528006D
:102F980089082A0091602B00FBBC2C00931D2E0091
:102FA80025822F007CEA3000615632009AC5330032
:102FB800F037350027AD3600042538004A9F390020
:102FC800BC1B3B001B9A3C00271A3E00A09B3F00FD
:102FD800461E4100D7A1420010264400AEAA450073
:102FE8006E2F47000CB4480044384A00D1BB4B0050
:102FF8006E3E4D00D6BF4E00C43F5000F2BD51009A
:103008001B3A5300FAB35400492B5600C29F57008D
:1030180023115900247F5A0083E95B00FC4F5D00AF
:103028004BB25E002E10600062696100A6BD6200AE
:10303800B90C64005B5665004E9A660052D867006A
:103048002B1069009D416A006C6C6B005F906C00EE
:103058003CAD6D00CDC26E00DBD06F0031D7700083
:103068009DD57100EBCB7200ECB97300719F7400B1
:103078004D7C7500535076005A1B77003ADD770077
:10308800CC957800EC44790077EA79004B867A0091
:103098004A187B0057A07B00571E7C0030927C00AA
:1030A800CBFB7C00135B7D00F6AF7D0061FA7D00F1
:1030B800473A7E009A6F7E004F9A7E005FBA7E0084
:1030C800C3CF7E0075DA7E0075DA7E00C3CF7E003E
:1030D8005FBA7E004F9A7E009A6F7E00473A7E0064
:1030E80061FA7D00F6AF7D00135B7D00CBFB7C00B1
:1030F80030927C00571E7C0057A07B004A187B004A
:103108004B867A0077EA7900EC447900CC95780010
:103118003ADD77005A1B7700535076004D7C7500D6
:10312800719F7400ECB97300EBCB72009DD57100F0
:1031380031D77000DBD06F00CDC26E003CAD6D00A2
:103148005F906C006C6C6B009D416A002B106900ED
:1031580052D867004E9A66005B566500B90C640049
:10316800A6BD6200626961002E1060004BB25E006D
:10317800FC4F5D0083E95B00247F5A00231159004E
:10318800C29F5700492B5600FAB354001B3A53000C
:10319800F2BD5100C43F5000D6BF4E006E3E4D00F8
:1031A800D1BB4B0044384A000CB448006E2F47008E
:1031B800AEAA450010264400D7A14200461E410091
:1031C800A09B3F00271A3E001B9A3C00BC1B3B00FB
:1031D8004A9F39000425380027AD3600F0373500FE
:1031E8009AC53300615632007CEA300025822F00F0
:1031F800931D2E00FBBC2C0091602B0089082A002F
:1032080015B5280064662700A51C260006D82400EA
:10321800B2982300D25E2200912A210014FC1F00DC
:1032280080D31E00F9B01D00A1941C00987E1B00DD
:10323800FB6E1A00E865190078631800C567170067
:10324800E5721600EF841500F49D140007BE130004
:1032580036E512009013120021491100F285100082
:103268000CCA0F0074150F0030680E0041C20D0023
:10327800A9230D00668C0C0075FC0B00D1730B00A4
:1032880075F20A0058780A006F050A00B09909001B
:103298000C35090075D70800DA80080029310800C4
:1032A8004DE8070031A60700BF6A0700DE350700B2
:1032B8007307070065DF060095BD0600E7A1060055
:1032C8003A8C06006F7C0600000000000000000039
:1032D80001020304060708090000000001020304B4
:0832E80010CFFF7F0100000080
:0432F000AD01000824
:0432F4008901000844
:0C32F80001000000100000000024F400A1
:0400000508002DEDD5
:00000001FF
